{
  "address": "0x01e030f48b7C9e7203EAd64Bb6B65cA772447B31",
  "abi": [
    {
      "anonymous": false,
      "inputs": [
        {
          "indexed": true,
          "internalType": "address",
          "name": "owner",
          "type": "address"
        },
        {
          "indexed": true,
          "internalType": "address",
          "name": "spender",
          "type": "address"
        },
        {
          "indexed": false,
          "internalType": "uint256",
          "name": "value",
          "type": "uint256"
        }
      ],
      "name": "Approval",
      "type": "event"
    },
    {
      "anonymous": false,
      "inputs": [
        {
          "indexed": false,
          "internalType": "uint256",
          "name": "minTokensBeforeSwap",
          "type": "uint256"
        }
      ],
      "name": "MinTokensBeforeSwapUpdated",
      "type": "event"
    },
    {
      "anonymous": false,
      "inputs": [
        {
          "indexed": true,
          "internalType": "address",
          "name": "previousOwner",
          "type": "address"
        },
        {
          "indexed": true,
          "internalType": "address",
          "name": "newOwner",
          "type": "address"
        }
      ],
      "name": "OwnershipTransferred",
      "type": "event"
    },
    {
      "anonymous": false,
      "inputs": [
        {
          "indexed": false,
          "internalType": "uint256",
          "name": "tokensSwapped",
          "type": "uint256"
        },
        {
          "indexed": false,
          "internalType": "uint256",
          "name": "ethReceived",
          "type": "uint256"
        },
        {
          "indexed": false,
          "internalType": "uint256",
          "name": "tokensIntoLiqudity",
          "type": "uint256"
        }
      ],
      "name": "SwapAndLiquify",
      "type": "event"
    },
    {
      "anonymous": false,
      "inputs": [
        {
          "indexed": false,
          "internalType": "bool",
          "name": "enabled",
          "type": "bool"
        }
      ],
      "name": "SwapAndLiquifyEnabledUpdated",
      "type": "event"
    },
    {
      "anonymous": false,
      "inputs": [
        {
          "indexed": true,
          "internalType": "address",
          "name": "owner",
          "type": "address"
        },
        {
          "indexed": true,
          "internalType": "address",
          "name": "token",
          "type": "address"
        },
        {
          "indexed": false,
          "internalType": "enum TokenType",
          "name": "tokenType",
          "type": "uint8"
        },
        {
          "indexed": false,
          "internalType": "uint256",
          "name": "version",
          "type": "uint256"
        }
      ],
      "name": "TokenCreated",
      "type": "event"
    },
    {
      "anonymous": false,
      "inputs": [
        {
          "indexed": true,
          "internalType": "address",
          "name": "from",
          "type": "address"
        },
        {
          "indexed": true,
          "internalType": "address",
          "name": "to",
          "type": "address"
        },
        {
          "indexed": false,
          "internalType": "uint256",
          "name": "value",
          "type": "uint256"
        }
      ],
      "name": "Transfer",
      "type": "event"
    },
    {
      "inputs": [
        {
          "internalType": "uint256",
          "name": "tokenAmount_",
          "type": "uint256"
        }
      ],
      "name": "AddLiquidityBuildIn",
      "outputs": [],
      "stateMutability": "payable",
      "type": "function"
    },
    {
      "inputs": [],
      "name": "VERSION",
      "outputs": [
        {
          "internalType": "uint256",
          "name": "",
          "type": "uint256"
        }
      ],
      "stateMutability": "view",
      "type": "function"
    },
    {
      "inputs": [],
      "name": "_charityAddress",
      "outputs": [
        {
          "internalType": "address",
          "name": "",
          "type": "address"
        }
      ],
      "stateMutability": "view",
      "type": "function"
    },
    {
      "inputs": [],
      "name": "_charityFee",
      "outputs": [
        {
          "internalType": "uint256",
          "name": "",
          "type": "uint256"
        }
      ],
      "stateMutability": "view",
      "type": "function"
    },
    {
      "inputs": [],
      "name": "_liquidityFee",
      "outputs": [
        {
          "internalType": "uint256",
          "name": "",
          "type": "uint256"
        }
      ],
      "stateMutability": "view",
      "type": "function"
    },
    {
      "inputs": [],
      "name": "_taxFee",
      "outputs": [
        {
          "internalType": "uint256",
          "name": "",
          "type": "uint256"
        }
      ],
      "stateMutability": "view",
      "type": "function"
    },
    {
      "inputs": [
        {
          "internalType": "address",
          "name": "patron",
          "type": "address"
        },
        {
          "internalType": "address",
          "name": "spender",
          "type": "address"
        }
      ],
      "name": "allowance",
      "outputs": [
        {
          "internalType": "uint256",
          "name": "",
          "type": "uint256"
        }
      ],
      "stateMutability": "view",
      "type": "function"
    },
    {
      "inputs": [
        {
          "internalType": "address",
          "name": "spender",
          "type": "address"
        },
        {
          "internalType": "uint256",
          "name": "amount",
          "type": "uint256"
        }
      ],
      "name": "approve",
      "outputs": [
        {
          "internalType": "bool",
          "name": "",
          "type": "bool"
        }
      ],
      "stateMutability": "nonpayable",
      "type": "function"
    },
    {
      "inputs": [
        {
          "internalType": "address",
          "name": "account",
          "type": "address"
        }
      ],
      "name": "balanceOf",
      "outputs": [
        {
          "internalType": "uint256",
          "name": "",
          "type": "uint256"
        }
      ],
      "stateMutability": "view",
      "type": "function"
    },
    {
      "inputs": [],
      "name": "decimals",
      "outputs": [
        {
          "internalType": "uint8",
          "name": "",
          "type": "uint8"
        }
      ],
      "stateMutability": "view",
      "type": "function"
    },
    {
      "inputs": [
        {
          "internalType": "address",
          "name": "spender",
          "type": "address"
        },
        {
          "internalType": "uint256",
          "name": "subtractedValue",
          "type": "uint256"
        }
      ],
      "name": "decreaseAllowance",
      "outputs": [
        {
          "internalType": "bool",
          "name": "",
          "type": "bool"
        }
      ],
      "stateMutability": "nonpayable",
      "type": "function"
    },
    {
      "inputs": [
        {
          "internalType": "address",
          "name": "account",
          "type": "address"
        }
      ],
      "name": "excludeFromFee",
      "outputs": [],
      "stateMutability": "nonpayable",
      "type": "function"
    },
    {
      "inputs": [
        {
          "internalType": "address",
          "name": "account",
          "type": "address"
        }
      ],
      "name": "excludeFromReward",
      "outputs": [],
      "stateMutability": "nonpayable",
      "type": "function"
    },
    {
      "inputs": [
        {
          "internalType": "address",
          "name": "account",
          "type": "address"
        }
      ],
      "name": "includeInFee",
      "outputs": [],
      "stateMutability": "nonpayable",
      "type": "function"
    },
    {
      "inputs": [
        {
          "internalType": "address",
          "name": "account",
          "type": "address"
        }
      ],
      "name": "includeInReward",
      "outputs": [],
      "stateMutability": "nonpayable",
      "type": "function"
    },
    {
      "inputs": [
        {
          "internalType": "address",
          "name": "spender",
          "type": "address"
        },
        {
          "internalType": "uint256",
          "name": "addedValue",
          "type": "uint256"
        }
      ],
      "name": "increaseAllowance",
      "outputs": [
        {
          "internalType": "bool",
          "name": "",
          "type": "bool"
        }
      ],
      "stateMutability": "nonpayable",
      "type": "function"
    },
    {
      "inputs": [
        {
          "internalType": "address",
          "name": "owner_",
          "type": "address"
        },
        {
          "internalType": "string",
          "name": "name_",
          "type": "string"
        },
        {
          "internalType": "string",
          "name": "symbol_",
          "type": "string"
        },
        {
          "internalType": "uint256",
          "name": "totalSupply_",
          "type": "uint256"
        },
        {
          "internalType": "address",
          "name": "router_",
          "type": "address"
        },
        {
          "internalType": "address",
          "name": "charityAddress_",
          "type": "address"
        },
        {
          "internalType": "uint16",
          "name": "taxFeeBps_",
          "type": "uint16"
        },
        {
          "internalType": "uint16",
          "name": "liquidityFeeBps_",
          "type": "uint16"
        },
        {
          "internalType": "uint16",
          "name": "charityFeeBps_",
          "type": "uint16"
        },
        {
          "internalType": "uint16",
          "name": "maxTxBps_",
          "type": "uint16"
        }
      ],
      "name": "initialize",
      "outputs": [],
      "stateMutability": "payable",
      "type": "function"
    },
    {
      "inputs": [
        {
          "internalType": "address",
          "name": "account",
          "type": "address"
        }
      ],
      "name": "isExcludedFromFee",
      "outputs": [
        {
          "internalType": "bool",
          "name": "",
          "type": "bool"
        }
      ],
      "stateMutability": "view",
      "type": "function"
    },
    {
      "inputs": [
        {
          "internalType": "address",
          "name": "account",
          "type": "address"
        }
      ],
      "name": "isExcludedFromReward",
      "outputs": [
        {
          "internalType": "bool",
          "name": "",
          "type": "bool"
        }
      ],
      "stateMutability": "view",
      "type": "function"
    },
    {
      "inputs": [],
      "name": "name",
      "outputs": [
        {
          "internalType": "string",
          "name": "",
          "type": "string"
        }
      ],
      "stateMutability": "view",
      "type": "function"
    },
    {
      "inputs": [],
      "name": "owner",
      "outputs": [
        {
          "internalType": "address",
          "name": "",
          "type": "address"
        }
      ],
      "stateMutability": "view",
      "type": "function"
    },
    {
      "inputs": [
        {
          "internalType": "uint256",
          "name": "tAmount",
          "type": "uint256"
        },
        {
          "internalType": "bool",
          "name": "deductTransferFee",
          "type": "bool"
        }
      ],
      "name": "reflectionFromToken",
      "outputs": [
        {
          "internalType": "uint256",
          "name": "",
          "type": "uint256"
        }
      ],
      "stateMutability": "view",
      "type": "function"
    },
    {
      "inputs": [],
      "name": "renounceOwnership",
      "outputs": [],
      "stateMutability": "nonpayable",
      "type": "function"
    },
    {
      "inputs": [
        {
          "internalType": "uint256",
          "name": "liquidityFeeBps",
          "type": "uint256"
        }
      ],
      "name": "setLiquidityFeePercent",
      "outputs": [],
      "stateMutability": "nonpayable",
      "type": "function"
    },
    {
      "inputs": [
        {
          "internalType": "bool",
          "name": "_enabled",
          "type": "bool"
        }
      ],
      "name": "setSwapAndLiquifyEnabled",
      "outputs": [],
      "stateMutability": "nonpayable",
      "type": "function"
    },
    {
      "inputs": [
        {
          "internalType": "uint256",
          "name": "taxFeeBps",
          "type": "uint256"
        }
      ],
      "name": "setTaxFeePercent",
      "outputs": [],
      "stateMutability": "nonpayable",
      "type": "function"
    },
    {
      "inputs": [],
      "name": "swapAndLiquifyEnabled",
      "outputs": [
        {
          "internalType": "bool",
          "name": "",
          "type": "bool"
        }
      ],
      "stateMutability": "view",
      "type": "function"
    },
    {
      "inputs": [],
      "name": "symbol",
      "outputs": [
        {
          "internalType": "string",
          "name": "",
          "type": "string"
        }
      ],
      "stateMutability": "view",
      "type": "function"
    },
    {
      "inputs": [
        {
          "internalType": "uint256",
          "name": "rAmount",
          "type": "uint256"
        }
      ],
      "name": "tokenFromReflection",
      "outputs": [
        {
          "internalType": "uint256",
          "name": "",
          "type": "uint256"
        }
      ],
      "stateMutability": "view",
      "type": "function"
    },
    {
      "inputs": [],
      "name": "totalFees",
      "outputs": [
        {
          "internalType": "uint256",
          "name": "",
          "type": "uint256"
        }
      ],
      "stateMutability": "view",
      "type": "function"
    },
    {
      "inputs": [],
      "name": "totalSupply",
      "outputs": [
        {
          "internalType": "uint256",
          "name": "",
          "type": "uint256"
        }
      ],
      "stateMutability": "view",
      "type": "function"
    },
    {
      "inputs": [
        {
          "internalType": "address",
          "name": "recipient",
          "type": "address"
        },
        {
          "internalType": "uint256",
          "name": "amount",
          "type": "uint256"
        }
      ],
      "name": "transfer",
      "outputs": [
        {
          "internalType": "bool",
          "name": "",
          "type": "bool"
        }
      ],
      "stateMutability": "nonpayable",
      "type": "function"
    },
    {
      "inputs": [
        {
          "internalType": "address",
          "name": "sender",
          "type": "address"
        },
        {
          "internalType": "address",
          "name": "recipient",
          "type": "address"
        },
        {
          "internalType": "uint256",
          "name": "amount",
          "type": "uint256"
        }
      ],
      "name": "transferFrom",
      "outputs": [
        {
          "internalType": "bool",
          "name": "",
          "type": "bool"
        }
      ],
      "stateMutability": "nonpayable",
      "type": "function"
    },
    {
      "inputs": [
        {
          "internalType": "address",
          "name": "newOwner",
          "type": "address"
        }
      ],
      "name": "transferOwnership",
      "outputs": [],
      "stateMutability": "nonpayable",
      "type": "function"
    },
    {
      "inputs": [],
      "name": "uniswapV2Pair",
      "outputs": [
        {
          "internalType": "address",
          "name": "",
          "type": "address"
        }
      ],
      "stateMutability": "view",
      "type": "function"
    },
    {
      "inputs": [],
      "name": "uniswapV2Router",
      "outputs": [
        {
          "internalType": "contract IUniswapV2Router02",
          "name": "",
          "type": "address"
        }
      ],
      "stateMutability": "view",
      "type": "function"
    },
    {
      "stateMutability": "payable",
      "type": "receive"
    }
  ],
  "transactionHash": "0xdec2fee98c65cdd3a1b2b690c1a0d265f08a8770afb22cb80695cb3281221855",
  "args": [],
  "numDeployments": 1,
  "solcInputHash": "959caf29cad5f3d3d4024af123f82ca0",
  "bytecode": "0x6080604052600d54600e55600f5460105560115460125534801561002257600080fd5b50615e1c80620000336000396000f3fe6080604052600436106102135760003560e01c80634a74bb021161011857806395d89b41116100a0578063c49b9a801161006f578063c49b9a80146107cc578063dd62ed3e146107f5578063ea2f0b3714610832578063f2fde38b1461085b578063ffa1ad74146108845761021a565b806395d89b411461070b578063a457c2d714610736578063a9059cbb14610773578063b00544f6146107b05761021a565b806370a08231116100e757806370a0823114610626578063715018a61461066357806388f820201461067a5780638da5cb5b146106b75780638ee88c53146106e25761021a565b80634a74bb021461056a57806352390c02146105955780635342acb4146105be5780636bc87c3a146105fb5761021a565b80632d8381191161019b5780633b124fe71161016a5780633b124fe71461048357806340f8007a146104ae578063437823ec146104d95780634549b0391461050257806349bd5a5e1461053f5761021a565b80632d838119146103b5578063313ce567146103f25780633685d4191461041d57806339509351146104465761021a565b806313114a9d116101e257806313114a9d146102cc5780631694505e146102f757806318160ddd1461032257806319a8ac9e1461034d57806323b872dd146103785761021a565b8063061c82d01461021f57806306fdde0314610248578063095ea7b3146102735780630b98e9bd146102b05761021a565b3661021a57005b600080fd5b34801561022b57600080fd5b5061024660048036038101906102419190614cd3565b6108af565b005b34801561025457600080fd5b5061025d610996565b60405161026a91906151bf565b60405180910390f35b34801561027f57600080fd5b5061029a60048036038101906102959190614c6e565b610a28565b6040516102a79190615160565b60405180910390f35b6102ca60048036038101906102c59190614cd3565b610a46565b005b3480156102d857600080fd5b506102e1610d1f565b6040516102ee9190615421565b60405180910390f35b34801561030357600080fd5b5061030c610d29565b604051610319919061517b565b60405180910390f35b34801561032e57600080fd5b50610337610d4f565b6040516103449190615421565b60405180910390f35b34801561035957600080fd5b50610362610d59565b60405161036f91906150bb565b60405180910390f35b34801561038457600080fd5b5061039f600480360381019061039a9190614b14565b610d7f565b6040516103ac9190615160565b60405180910390f35b3480156103c157600080fd5b506103dc60048036038101906103d79190614cd3565b610e37565b6040516103e99190615421565b60405180910390f35b3480156103fe57600080fd5b50610407610e9e565b60405161041491906154cd565b60405180910390f35b34801561042957600080fd5b50610444600480360381019061043f9190614a86565b610eb5565b005b34801561045257600080fd5b5061046d60048036038101906104689190614c6e565b611283565b60405161047a9190615160565b60405180910390f35b34801561048f57600080fd5b5061049861132f565b6040516104a59190615421565b60405180910390f35b3480156104ba57600080fd5b506104c3611335565b6040516104d09190615421565b60405180910390f35b3480156104e557600080fd5b5061050060048036038101906104fb9190614a86565b61133b565b005b34801561050e57600080fd5b5061052960048036038101906105249190614cfc565b611412565b6040516105369190615421565b60405180910390f35b34801561054b57600080fd5b50610554611498565b60405161056191906150bb565b60405180910390f35b34801561057657600080fd5b5061057f6114be565b60405161058c9190615160565b60405180910390f35b3480156105a157600080fd5b506105bc60048036038101906105b79190614a86565b6114cf565b005b3480156105ca57600080fd5b506105e560048036038101906105e09190614a86565b61176a565b6040516105f29190615160565b60405180910390f35b34801561060757600080fd5b506106106117c0565b60405161061d9190615421565b60405180910390f35b34801561063257600080fd5b5061064d60048036038101906106489190614a86565b6117c6565b60405161065a9190615421565b60405180910390f35b34801561066f57600080fd5b506106786118b1565b005b34801561068657600080fd5b506106a1600480360381019061069c9190614a86565b611939565b6040516106ae9190615160565b60405180910390f35b3480156106c357600080fd5b506106cc61198f565b6040516106d991906150bb565b60405180910390f35b3480156106ee57600080fd5b5061070960048036038101906107049190614cd3565b6119b8565b005b34801561071757600080fd5b50610720611a9f565b60405161072d91906151bf565b60405180910390f35b34801561074257600080fd5b5061075d60048036038101906107589190614c6e565b611b31565b60405161076a9190615160565b60405180910390f35b34801561077f57600080fd5b5061079a60048036038101906107959190614c6e565b611bdd565b6040516107a79190615160565b60405180910390f35b6107ca60048036038101906107c59190614b63565b611bfb565b005b3480156107d857600080fd5b506107f360048036038101906107ee9190614caa565b612386565b005b34801561080157600080fd5b5061081c60048036038101906108179190614ad8565b612455565b6040516108299190615421565b60405180910390f35b34801561083e57600080fd5b5061085960048036038101906108549190614a86565b6124dc565b005b34801561086757600080fd5b50610882600480360381019061087d9190614a86565b6125b3565b005b34801561089057600080fd5b506108996126ab565b6040516108a69190615421565b60405180910390f35b6108b76126b0565b73ffffffffffffffffffffffffffffffffffffffff166108d561198f565b73ffffffffffffffffffffffffffffffffffffffff161461092b576040517f08c379a000000000000000000000000000000000000000000000000000000000815260040161092290615381565b60405180910390fd5b80600d819055506109c4601154600f54600d5461094891906155cb565b61095291906155cb565b1115610993576040517f08c379a000000000000000000000000000000000000000000000000000000000815260040161098a90615341565b60405180910390fd5b50565b6060600a80546109a5906157e0565b80601f01602080910402602001604051908101604052809291908181526020018280546109d1906157e0565b8015610a1e5780601f106109f357610100808354040283529160200191610a1e565b820191906000526020600020905b815481529060010190602001808311610a0157829003601f168201915b5050505050905090565b6000610a3c610a356126b0565b84846126b8565b6001905092915050565b610a4e6126b0565b73ffffffffffffffffffffffffffffffffffffffff16610a6c61198f565b73ffffffffffffffffffffffffffffffffffffffff1614610ac2576040517f08c379a0000000000000000000000000000000000000000000000000000000008152600401610ab990615381565b60405180910390fd5b610b0233601360009054906101000a900473ffffffffffffffffffffffffffffffffffffffff16671bc16d674ec8000084610afd91906155cb565b6126b8565b6000610b3033601360009054906101000a900473ffffffffffffffffffffffffffffffffffffffff16612455565b9050610b716040518060400160405280601981526020017f2d2d416c6c6f77616e6365206f6620726f757465722069733a0000000000000081525082612883565b610bb86040518060400160405280601981526020017f2d2d2d2d2d2d2d42616c616e63652073656e6465722069733a00000000000000815250610bb3336117c6565b612883565b610bf76040518060400160405280601981526020017f547279696e6720746f20616464206e756d20746f6b656e733a0000000000000081525083612883565b610c586040518060400160405280600a81526020017f526f757465722069733a00000000000000000000000000000000000000000000815250601360009054906101000a900473ffffffffffffffffffffffffffffffffffffffff1661291f565b601360009054906101000a900473ffffffffffffffffffffffffffffffffffffffff1673ffffffffffffffffffffffffffffffffffffffff1663f305d719343085600080610ca461198f565b426040518863ffffffff1660e01b8152600401610cc6969594939291906150ff565b6060604051808303818588803b158015610cdf57600080fd5b505af1158015610cf3573d6000803e3d6000fd5b50505050506040513d601f19601f82011682018060405250810190610d189190614d38565b5050505050565b6000600954905090565b601360009054906101000a900473ffffffffffffffffffffffffffffffffffffffff1681565b6000600754905090565b601560009054906101000a900473ffffffffffffffffffffffffffffffffffffffff1681565b6000610d8c8484846129bb565b610e2c84610d986126b0565b84600360008973ffffffffffffffffffffffffffffffffffffffff1673ffffffffffffffffffffffffffffffffffffffff1681526020019081526020016000206000610de26126b0565b73ffffffffffffffffffffffffffffffffffffffff1673ffffffffffffffffffffffffffffffffffffffff16815260200190815260200160002054610e2791906156ac565b6126b8565b600190509392505050565b6000600854821115610e7e576040517f08c379a0000000000000000000000000000000000000000000000000000000008152600401610e7590615281565b60405180910390fd5b6000610e88612c58565b90508083610e969190615621565b915050919050565b6000600c60009054906101000a900460ff16905090565b610ebd6126b0565b73ffffffffffffffffffffffffffffffffffffffff16610edb61198f565b73ffffffffffffffffffffffffffffffffffffffff1614610f31576040517f08c379a0000000000000000000000000000000000000000000000000000000008152600401610f2890615381565b60405180910390fd5b600560008273ffffffffffffffffffffffffffffffffffffffff1673ffffffffffffffffffffffffffffffffffffffff16815260200190815260200160002060009054906101000a900460ff16610fbd576040517f08c379a0000000000000000000000000000000000000000000000000000000008152600401610fb490615301565b60405180910390fd5b60005b60068054905081101561127f578173ffffffffffffffffffffffffffffffffffffffff166006828154811061101e577f4e487b7100000000000000000000000000000000000000000000000000000000600052603260045260246000fd5b9060005260206000200160009054906101000a900473ffffffffffffffffffffffffffffffffffffffff1673ffffffffffffffffffffffffffffffffffffffff16141561126c576006600160068054905061107991906156ac565b815481106110b0577f4e487b7100000000000000000000000000000000000000000000000000000000600052603260045260246000fd5b9060005260206000200160009054906101000a900473ffffffffffffffffffffffffffffffffffffffff1660068281548110611115577f4e487b7100000000000000000000000000000000000000000000000000000000600052603260045260246000fd5b9060005260206000200160006101000a81548173ffffffffffffffffffffffffffffffffffffffff021916908373ffffffffffffffffffffffffffffffffffffffff1602179055506000600260008473ffffffffffffffffffffffffffffffffffffffff1673ffffffffffffffffffffffffffffffffffffffff168152602001908152602001600020819055506000600560008473ffffffffffffffffffffffffffffffffffffffff1673ffffffffffffffffffffffffffffffffffffffff16815260200190815260200160002060006101000a81548160ff0219169083151502179055506006805480611232577f4e487b7100000000000000000000000000000000000000000000000000000000600052603160045260246000fd5b6001900381819060005260206000200160006101000a81549073ffffffffffffffffffffffffffffffffffffffff0219169055905561127f565b808061127790615843565b915050610fc0565b5050565b60006113256112906126b0565b84846003600061129e6126b0565b73ffffffffffffffffffffffffffffffffffffffff1673ffffffffffffffffffffffffffffffffffffffff16815260200190815260200160002060008873ffffffffffffffffffffffffffffffffffffffff1673ffffffffffffffffffffffffffffffffffffffff1681526020019081526020016000205461132091906155cb565b6126b8565b6001905092915050565b600d5481565b60115481565b6113436126b0565b73ffffffffffffffffffffffffffffffffffffffff1661136161198f565b73ffffffffffffffffffffffffffffffffffffffff16146113b7576040517f08c379a00000000000000000000000000000000000000000000000000000000081526004016113ae90615381565b60405180910390fd5b6001600460008373ffffffffffffffffffffffffffffffffffffffff1673ffffffffffffffffffffffffffffffffffffffff16815260200190815260200160002060006101000a81548160ff02191690831515021790555050565b6000600754831115611459576040517f08c379a000000000000000000000000000000000000000000000000000000000815260040161145090615361565b60405180910390fd5b8161147a57600061146984612c7c565b505050505050905080915050611492565b600061148584612c7c565b5050505050915050809150505b92915050565b601460009054906101000a900473ffffffffffffffffffffffffffffffffffffffff1681565b60158054906101000a900460ff1681565b6114d76126b0565b73ffffffffffffffffffffffffffffffffffffffff166114f561198f565b73ffffffffffffffffffffffffffffffffffffffff161461154b576040517f08c379a000000000000000000000000000000000000000000000000000000000815260040161154290615381565b60405180910390fd5b600560008273ffffffffffffffffffffffffffffffffffffffff1673ffffffffffffffffffffffffffffffffffffffff16815260200190815260200160002060009054906101000a900460ff16156115d8576040517f08c379a00000000000000000000000000000000000000000000000000000000081526004016115cf90615301565b60405180910390fd5b6000600160008373ffffffffffffffffffffffffffffffffffffffff1673ffffffffffffffffffffffffffffffffffffffff1681526020019081526020016000205411156116ac57611668600160008373ffffffffffffffffffffffffffffffffffffffff1673ffffffffffffffffffffffffffffffffffffffff16815260200190815260200160002054610e37565b600260008373ffffffffffffffffffffffffffffffffffffffff1673ffffffffffffffffffffffffffffffffffffffff168152602001908152602001600020819055505b6001600560008373ffffffffffffffffffffffffffffffffffffffff1673ffffffffffffffffffffffffffffffffffffffff16815260200190815260200160002060006101000a81548160ff0219169083151502179055506006819080600181540180825580915050600190039060005260206000200160009091909190916101000a81548173ffffffffffffffffffffffffffffffffffffffff021916908373ffffffffffffffffffffffffffffffffffffffff16021790555050565b6000600460008373ffffffffffffffffffffffffffffffffffffffff1673ffffffffffffffffffffffffffffffffffffffff16815260200190815260200160002060009054906101000a900460ff169050919050565b600f5481565b6000600560008373ffffffffffffffffffffffffffffffffffffffff1673ffffffffffffffffffffffffffffffffffffffff16815260200190815260200160002060009054906101000a900460ff161561186157600260008373ffffffffffffffffffffffffffffffffffffffff1673ffffffffffffffffffffffffffffffffffffffff1681526020019081526020016000205490506118ac565b6118a9600160008473ffffffffffffffffffffffffffffffffffffffff1673ffffffffffffffffffffffffffffffffffffffff16815260200190815260200160002054610e37565b90505b919050565b6118b96126b0565b73ffffffffffffffffffffffffffffffffffffffff166118d761198f565b73ffffffffffffffffffffffffffffffffffffffff161461192d576040517f08c379a000000000000000000000000000000000000000000000000000000000815260040161192490615381565b60405180910390fd5b6119376000612ce4565b565b6000600560008373ffffffffffffffffffffffffffffffffffffffff1673ffffffffffffffffffffffffffffffffffffffff16815260200190815260200160002060009054906101000a900460ff169050919050565b60008060009054906101000a900473ffffffffffffffffffffffffffffffffffffffff16905090565b6119c06126b0565b73ffffffffffffffffffffffffffffffffffffffff166119de61198f565b73ffffffffffffffffffffffffffffffffffffffff1614611a34576040517f08c379a0000000000000000000000000000000000000000000000000000000008152600401611a2b90615381565b60405180910390fd5b80600f819055506109c4601154600f54600d54611a5191906155cb565b611a5b91906155cb565b1115611a9c576040517f08c379a0000000000000000000000000000000000000000000000000000000008152600401611a9390615341565b60405180910390fd5b50565b6060600b8054611aae906157e0565b80601f0160208091040260200160405190810160405280929190818152602001828054611ada906157e0565b8015611b275780601f10611afc57610100808354040283529160200191611b27565b820191906000526020600020905b815481529060010190602001808311611b0a57829003601f168201915b5050505050905090565b6000611bd3611b3e6126b0565b848460036000611b4c6126b0565b73ffffffffffffffffffffffffffffffffffffffff1673ffffffffffffffffffffffffffffffffffffffff16815260200190815260200160002060008873ffffffffffffffffffffffffffffffffffffffff1673ffffffffffffffffffffffffffffffffffffffff16815260200190815260200160002054611bce91906156ac565b6126b8565b6001905092915050565b6000611bf1611bea6126b0565b84846129bb565b6001905092915050565b611c03612da8565b611c496040518060400160405280600b81526020017f0a0a204f776e657228293a000000000000000000000000000000000000000000815250611c4461198f565b61291f565b60008461ffff161015611c91576040517f08c379a0000000000000000000000000000000000000000000000000000000008152600401611c8890615261565b60405180910390fd5b60008361ffff161015611cd9576040517f08c379a0000000000000000000000000000000000000000000000000000000008152600401611cd0906152e1565b60405180910390fd5b60008261ffff161015611d21576040517f08c379a0000000000000000000000000000000000000000000000000000000008152600401611d18906153a1565b60405180910390fd5b600073ffffffffffffffffffffffffffffffffffffffff168573ffffffffffffffffffffffffffffffffffffffff161415611d9e5760008261ffff1614611d9d576040517f08c379a0000000000000000000000000000000000000000000000000000000008152600401611d9490615321565b60405180910390fd5b5b6109c4828486611dae9190615593565b611db89190615593565b61ffff161115611dfd576040517f08c379a0000000000000000000000000000000000000000000000000000000008152600401611df490615341565b60405180910390fd5b88600a9080519060200190611e139291906148fd565b5087600b9080519060200190611e2a9291906148fd565b506012600c60006101000a81548160ff021916908360ff16021790555086600781905550600754600019611e5e919061588c565b600019611e6b91906156ac565b6008819055508361ffff16600d81905550600d54600e819055508261ffff16600f81905550600f5460108190555084601560006101000a81548173ffffffffffffffffffffffffffffffffffffffff021916908373ffffffffffffffffffffffffffffffffffffffff1602179055508161ffff16601181905550601154601281905550612710600588611efe9190615652565b611f089190615621565b60168190555060016015806101000a81548160ff02191690831515021790555060085460016000611f3761198f565b73ffffffffffffffffffffffffffffffffffffffff1673ffffffffffffffffffffffffffffffffffffffff1681526020019081526020016000208190555060008690508073ffffffffffffffffffffffffffffffffffffffff1663c45a01556040518163ffffffff1660e01b815260040160206040518083038186803b158015611fc057600080fd5b505afa158015611fd4573d6000803e3d6000fd5b505050506040513d601f19601f82011682018060405250810190611ff89190614aaf565b73ffffffffffffffffffffffffffffffffffffffff1663c9c65396308373ffffffffffffffffffffffffffffffffffffffff1663ad5c46486040518163ffffffff1660e01b815260040160206040518083038186803b15801561205a57600080fd5b505afa15801561206e573d6000803e3d6000fd5b505050506040513d601f19601f820116820180604052508101906120929190614aaf565b6040518363ffffffff1660e01b81526004016120af9291906150d6565b602060405180830381600087803b1580156120c957600080fd5b505af11580156120dd573d6000803e3d6000fd5b505050506040513d601f19601f820116820180604052508101906121019190614aaf565b601460006101000a81548173ffffffffffffffffffffffffffffffffffffffff021916908373ffffffffffffffffffffffffffffffffffffffff1602179055506121a26040518060400160405280600d81526020017f5041495220435245415445443a00000000000000000000000000000000000000815250601460009054906101000a900473ffffffffffffffffffffffffffffffffffffffff1661291f565b80601360006101000a81548173ffffffffffffffffffffffffffffffffffffffff021916908373ffffffffffffffffffffffffffffffffffffffff1602179055506001600460006121f161198f565b73ffffffffffffffffffffffffffffffffffffffff1673ffffffffffffffffffffffffffffffffffffffff16815260200190815260200160002060006101000a81548160ff0219169083151502179055506001600460003073ffffffffffffffffffffffffffffffffffffffff1673ffffffffffffffffffffffffffffffffffffffff16815260200190815260200160002060006101000a81548160ff0219169083151502179055506122a261198f565b73ffffffffffffffffffffffffffffffffffffffff16600073ffffffffffffffffffffffffffffffffffffffff167fddf252ad1be2c89b69c2b068fc378daa952ba7f163c4a11628f55a4df523b3ef6007546040516123019190615421565b60405180910390a33073ffffffffffffffffffffffffffffffffffffffff1661232861198f565b73ffffffffffffffffffffffffffffffffffffffff167f56358b41df5fa59f5639228f0930994cbdde383c8a8fd74e06c04e1deebe356260026001604051612371929190615196565b60405180910390a35050505050505050505050565b61238e6126b0565b73ffffffffffffffffffffffffffffffffffffffff166123ac61198f565b73ffffffffffffffffffffffffffffffffffffffff1614612402576040517f08c379a00000000000000000000000000000000000000000000000000000000081526004016123f990615381565b60405180910390fd5b806015806101000a81548160ff0219169083151502179055507f53726dfcaf90650aa7eb35524f4d3220f07413c8d6cb404cc8c18bf5591bc1598160405161244a9190615160565b60405180910390a150565b6000600360008473ffffffffffffffffffffffffffffffffffffffff1673ffffffffffffffffffffffffffffffffffffffff16815260200190815260200160002060008373ffffffffffffffffffffffffffffffffffffffff1673ffffffffffffffffffffffffffffffffffffffff16815260200190815260200160002054905092915050565b6124e46126b0565b73ffffffffffffffffffffffffffffffffffffffff1661250261198f565b73ffffffffffffffffffffffffffffffffffffffff1614612558576040517f08c379a000000000000000000000000000000000000000000000000000000000815260040161254f90615381565b60405180910390fd5b6000600460008373ffffffffffffffffffffffffffffffffffffffff1673ffffffffffffffffffffffffffffffffffffffff16815260200190815260200160002060006101000a81548160ff02191690831515021790555050565b6125bb6126b0565b73ffffffffffffffffffffffffffffffffffffffff166125d961198f565b73ffffffffffffffffffffffffffffffffffffffff161461262f576040517f08c379a000000000000000000000000000000000000000000000000000000000815260040161262690615381565b60405180910390fd5b600073ffffffffffffffffffffffffffffffffffffffff168173ffffffffffffffffffffffffffffffffffffffff16141561269f576040517f08c379a0000000000000000000000000000000000000000000000000000000008152600401612696906152a1565b60405180910390fd5b6126a881612ce4565b50565b600181565b600033905090565b600073ffffffffffffffffffffffffffffffffffffffff168373ffffffffffffffffffffffffffffffffffffffff161415612728576040517f08c379a000000000000000000000000000000000000000000000000000000000815260040161271f90615401565b60405180910390fd5b600073ffffffffffffffffffffffffffffffffffffffff168273ffffffffffffffffffffffffffffffffffffffff161415612798576040517f08c379a000000000000000000000000000000000000000000000000000000000815260040161278f906152c1565b60405180910390fd5b80600360008573ffffffffffffffffffffffffffffffffffffffff1673ffffffffffffffffffffffffffffffffffffffff16815260200190815260200160002060008473ffffffffffffffffffffffffffffffffffffffff1673ffffffffffffffffffffffffffffffffffffffff168152602001908152602001600020819055508173ffffffffffffffffffffffffffffffffffffffff168373ffffffffffffffffffffffffffffffffffffffff167f8c5be1e5ebec7d5bd14f71427d1e84f3dd0314c0f7b2291e5b200ac8c7c3b925836040516128769190615421565b60405180910390a3505050565b61291b8282604051602401612899929190615211565b6040516020818303038152906040527f9710a9d0000000000000000000000000000000000000000000000000000000007bffffffffffffffffffffffffffffffffffffffffffffffffffffffff19166020820180517bffffffffffffffffffffffffffffffffffffffffffffffffffffffff8381831617835250505050612dea565b5050565b6129b782826040516024016129359291906151e1565b6040516020818303038152906040527f319af333000000000000000000000000000000000000000000000000000000007bffffffffffffffffffffffffffffffffffffffffffffffffffffffff19166020820180517bffffffffffffffffffffffffffffffffffffffffffffffffffffffff8381831617835250505050612dea565b5050565b600073ffffffffffffffffffffffffffffffffffffffff168373ffffffffffffffffffffffffffffffffffffffff161415612a2b576040517f08c379a0000000000000000000000000000000000000000000000000000000008152600401612a22906153e1565b60405180910390fd5b600073ffffffffffffffffffffffffffffffffffffffff168273ffffffffffffffffffffffffffffffffffffffff161415612a9b576040517f08c379a0000000000000000000000000000000000000000000000000000000008152600401612a9290615241565b60405180910390fd5b60008111612ade576040517f08c379a0000000000000000000000000000000000000000000000000000000008152600401612ad5906153c1565b60405180910390fd5b6000612ae9306117c6565b905060006016548210159050808015612b0f5750601560149054906101000a900460ff16155b8015612b695750601460009054906101000a900473ffffffffffffffffffffffffffffffffffffffff1673ffffffffffffffffffffffffffffffffffffffff168573ffffffffffffffffffffffffffffffffffffffff1614155b8015612b7f575060158054906101000a900460ff165b15612b93576016549150612b9282612e13565b5b600060019050600460008773ffffffffffffffffffffffffffffffffffffffff1673ffffffffffffffffffffffffffffffffffffffff16815260200190815260200160002060009054906101000a900460ff1680612c3a5750600460008673ffffffffffffffffffffffffffffffffffffffff1673ffffffffffffffffffffffffffffffffffffffff16815260200190815260200160002060009054906101000a900460ff165b15612c4457600090505b612c5086868684612ed4565b505050505050565b6000806000612c656131e5565b915091508082612c759190615621565b9250505090565b6000806000806000806000806000806000612c968c61351b565b93509350935093506000806000612cb78f878787612cb2612c58565b613585565b925092509250828282898989899d509d509d509d509d509d509d5050505050505050919395979092949650565b60008060009054906101000a900473ffffffffffffffffffffffffffffffffffffffff169050816000806101000a81548173ffffffffffffffffffffffffffffffffffffffff021916908373ffffffffffffffffffffffffffffffffffffffff1602179055508173ffffffffffffffffffffffffffffffffffffffff168173ffffffffffffffffffffffffffffffffffffffff167f8be0079c531659141344cd1fd0a4f28419497f9722a3daafe3b4186f6b6457e060405160405180910390a35050565b326000806101000a81548173ffffffffffffffffffffffffffffffffffffffff021916908373ffffffffffffffffffffffffffffffffffffffff160217905550565b60008151905060006a636f6e736f6c652e6c6f679050602083016000808483855afa5050505050565b6001601560146101000a81548160ff0219169083151502179055506000600282612e3d9190615621565b905060008183612e4d91906156ac565b90506000479050612e5d83613608565b60008147612e6b91906156ac565b9050612e7783826138cc565b7f17bbfb9a6069321b6ded73bd96327c9e6b7212a5cd51ff219cd61370acafb561848285604051612eaa93929190615496565b60405180910390a1505050506000601560146101000a81548160ff02191690831515021790555050565b80612ee257612ee16139c0565b5b600560008573ffffffffffffffffffffffffffffffffffffffff1673ffffffffffffffffffffffffffffffffffffffff16815260200190815260200160002060009054906101000a900460ff168015612f855750600560008473ffffffffffffffffffffffffffffffffffffffff1673ffffffffffffffffffffffffffffffffffffffff16815260200190815260200160002060009054906101000a900460ff16155b15612f9a57612f95848484613a22565b6131d1565b600560008573ffffffffffffffffffffffffffffffffffffffff1673ffffffffffffffffffffffffffffffffffffffff16815260200190815260200160002060009054906101000a900460ff1615801561303d5750600560008473ffffffffffffffffffffffffffffffffffffffff1673ffffffffffffffffffffffffffffffffffffffff16815260200190815260200160002060009054906101000a900460ff165b156130525761304d848484613c7b565b6131d0565b600560008573ffffffffffffffffffffffffffffffffffffffff1673ffffffffffffffffffffffffffffffffffffffff16815260200190815260200160002060009054906101000a900460ff161580156130f65750600560008473ffffffffffffffffffffffffffffffffffffffff1673ffffffffffffffffffffffffffffffffffffffff16815260200190815260200160002060009054906101000a900460ff16155b1561310b57613106848484613ed4565b6131cf565b600560008573ffffffffffffffffffffffffffffffffffffffff1673ffffffffffffffffffffffffffffffffffffffff16815260200190815260200160002060009054906101000a900460ff1680156131ad5750600560008473ffffffffffffffffffffffffffffffffffffffff1673ffffffffffffffffffffffffffffffffffffffff16815260200190815260200160002060009054906101000a900460ff165b156131c2576131bd84848461409f565b6131ce565b6131cd848484613ed4565b5b5b5b5b806131df576131de614386565b5b50505050565b600080600060085490506000600754905060005b6006805490508110156134e557826001600060068481548110613245577f4e487b7100000000000000000000000000000000000000000000000000000000600052603260045260246000fd5b9060005260206000200160009054906101000a900473ffffffffffffffffffffffffffffffffffffffff1673ffffffffffffffffffffffffffffffffffffffff1673ffffffffffffffffffffffffffffffffffffffff16815260200190815260200160002054118061335957508160026000600684815481106132f1577f4e487b7100000000000000000000000000000000000000000000000000000000600052603260045260246000fd5b9060005260206000200160009054906101000a900473ffffffffffffffffffffffffffffffffffffffff1673ffffffffffffffffffffffffffffffffffffffff1673ffffffffffffffffffffffffffffffffffffffff16815260200190815260200160002054115b156133705760085460075494509450505050613517565b60016000600683815481106133ae577f4e487b7100000000000000000000000000000000000000000000000000000000600052603260045260246000fd5b9060005260206000200160009054906101000a900473ffffffffffffffffffffffffffffffffffffffff1673ffffffffffffffffffffffffffffffffffffffff1673ffffffffffffffffffffffffffffffffffffffff168152602001908152602001600020548361341f91906156ac565b9250600260006006838154811061345f577f4e487b7100000000000000000000000000000000000000000000000000000000600052603260045260246000fd5b9060005260206000200160009054906101000a900473ffffffffffffffffffffffffffffffffffffffff1673ffffffffffffffffffffffffffffffffffffffff1673ffffffffffffffffffffffffffffffffffffffff16815260200190815260200160002054826134d091906156ac565b915080806134dd90615843565b9150506131f9565b506007546008546134f69190615621565b82101561350e57600854600754935093505050613517565b81819350935050505b9091565b600080600080600061352c866143a3565b90506000613539876143c7565b90506000613546886143eb565b905060008183858b61355891906156ac565b61356291906156ac565b61356c91906156ac565b9050808484849750975097509750505050509193509193565b60008060008084896135979190615652565b9050600085896135a79190615652565b9050600086896135b79190615652565b9050600087896135c79190615652565b90506000818385876135d991906156ac565b6135e391906156ac565b6135ed91906156ac565b90508481859750975097505050505050955095509592505050565b6000600267ffffffffffffffff81111561364b577f4e487b7100000000000000000000000000000000000000000000000000000000600052604160045260246000fd5b6040519080825280602002602001820160405280156136795781602001602082028036833780820191505090505b50905030816000815181106136b7577f4e487b7100000000000000000000000000000000000000000000000000000000600052603260045260246000fd5b602002602001019073ffffffffffffffffffffffffffffffffffffffff16908173ffffffffffffffffffffffffffffffffffffffff1681525050601360009054906101000a900473ffffffffffffffffffffffffffffffffffffffff1673ffffffffffffffffffffffffffffffffffffffff1663ad5c46486040518163ffffffff1660e01b815260040160206040518083038186803b15801561375957600080fd5b505afa15801561376d573d6000803e3d6000fd5b505050506040513d601f19601f820116820180604052508101906137919190614aaf565b816001815181106137cb577f4e487b7100000000000000000000000000000000000000000000000000000000600052603260045260246000fd5b602002602001019073ffffffffffffffffffffffffffffffffffffffff16908173ffffffffffffffffffffffffffffffffffffffff168152505061383230601360009054906101000a900473ffffffffffffffffffffffffffffffffffffffff16846126b8565b601360009054906101000a900473ffffffffffffffffffffffffffffffffffffffff1673ffffffffffffffffffffffffffffffffffffffff1663791ac9478360008430426040518663ffffffff1660e01b815260040161389695949392919061543c565b600060405180830381600087803b1580156138b057600080fd5b505af11580156138c4573d6000803e3d6000fd5b505050505050565b6138f930601360009054906101000a900473ffffffffffffffffffffffffffffffffffffffff16846126b8565b601360009054906101000a900473ffffffffffffffffffffffffffffffffffffffff1673ffffffffffffffffffffffffffffffffffffffff1663f305d71982308560008061394561198f565b426040518863ffffffff1660e01b8152600401613967969594939291906150ff565b6060604051808303818588803b15801561398057600080fd5b505af1158015613994573d6000803e3d6000fd5b50505050506040513d601f19601f820116820180604052508101906139b99190614d38565b5050505050565b6000600d541480156139d457506000600f54145b80156139e257506000601154145b156139ec57613a20565b600d54600e81905550600f546010819055506011546012819055506000600d819055506000600f8190555060006011819055505b565b6000806000806000806000613a3688612c7c565b965096509650965096509650965087600260008c73ffffffffffffffffffffffffffffffffffffffff1673ffffffffffffffffffffffffffffffffffffffff16815260200190815260200160002054613a8f91906156ac565b600260008c73ffffffffffffffffffffffffffffffffffffffff1673ffffffffffffffffffffffffffffffffffffffff1681526020019081526020016000208190555086600160008c73ffffffffffffffffffffffffffffffffffffffff1673ffffffffffffffffffffffffffffffffffffffff16815260200190815260200160002054613b1d91906156ac565b600160008c73ffffffffffffffffffffffffffffffffffffffff1673ffffffffffffffffffffffffffffffffffffffff1681526020019081526020016000208190555085600160008b73ffffffffffffffffffffffffffffffffffffffff1673ffffffffffffffffffffffffffffffffffffffff16815260200190815260200160002054613bab91906155cb565b600160008b73ffffffffffffffffffffffffffffffffffffffff1673ffffffffffffffffffffffffffffffffffffffff16815260200190815260200160002081905550613bf78261446f565b613c00816145ff565b613c0a85846148d1565b8873ffffffffffffffffffffffffffffffffffffffff168a73ffffffffffffffffffffffffffffffffffffffff167fddf252ad1be2c89b69c2b068fc378daa952ba7f163c4a11628f55a4df523b3ef86604051613c679190615421565b60405180910390a350505050505050505050565b6000806000806000806000613c8f88612c7c565b965096509650965096509650965086600160008c73ffffffffffffffffffffffffffffffffffffffff1673ffffffffffffffffffffffffffffffffffffffff16815260200190815260200160002054613ce891906156ac565b600160008c73ffffffffffffffffffffffffffffffffffffffff1673ffffffffffffffffffffffffffffffffffffffff1681526020019081526020016000208190555083600260008b73ffffffffffffffffffffffffffffffffffffffff1673ffffffffffffffffffffffffffffffffffffffff16815260200190815260200160002054613d7691906155cb565b600260008b73ffffffffffffffffffffffffffffffffffffffff1673ffffffffffffffffffffffffffffffffffffffff1681526020019081526020016000208190555085600160008b73ffffffffffffffffffffffffffffffffffffffff1673ffffffffffffffffffffffffffffffffffffffff16815260200190815260200160002054613e0491906155cb565b600160008b73ffffffffffffffffffffffffffffffffffffffff1673ffffffffffffffffffffffffffffffffffffffff16815260200190815260200160002081905550613e508261446f565b613e59816145ff565b613e6385846148d1565b8873ffffffffffffffffffffffffffffffffffffffff168a73ffffffffffffffffffffffffffffffffffffffff167fddf252ad1be2c89b69c2b068fc378daa952ba7f163c4a11628f55a4df523b3ef86604051613ec09190615421565b60405180910390a350505050505050505050565b6000806000806000806000613ee888612c7c565b965096509650965096509650965086600160008c73ffffffffffffffffffffffffffffffffffffffff1673ffffffffffffffffffffffffffffffffffffffff16815260200190815260200160002054613f4191906156ac565b600160008c73ffffffffffffffffffffffffffffffffffffffff1673ffffffffffffffffffffffffffffffffffffffff1681526020019081526020016000208190555085600160008b73ffffffffffffffffffffffffffffffffffffffff1673ffffffffffffffffffffffffffffffffffffffff16815260200190815260200160002054613fcf91906155cb565b600160008b73ffffffffffffffffffffffffffffffffffffffff1673ffffffffffffffffffffffffffffffffffffffff1681526020019081526020016000208190555061401b8261446f565b614024816145ff565b61402e85846148d1565b8873ffffffffffffffffffffffffffffffffffffffff168a73ffffffffffffffffffffffffffffffffffffffff167fddf252ad1be2c89b69c2b068fc378daa952ba7f163c4a11628f55a4df523b3ef8660405161408b9190615421565b60405180910390a350505050505050505050565b60008060008060008060006140b388612c7c565b965096509650965096509650965087600260008c73ffffffffffffffffffffffffffffffffffffffff1673ffffffffffffffffffffffffffffffffffffffff1681526020019081526020016000205461410c91906156ac565b600260008c73ffffffffffffffffffffffffffffffffffffffff1673ffffffffffffffffffffffffffffffffffffffff1681526020019081526020016000208190555086600160008c73ffffffffffffffffffffffffffffffffffffffff1673ffffffffffffffffffffffffffffffffffffffff1681526020019081526020016000205461419a91906156ac565b600160008c73ffffffffffffffffffffffffffffffffffffffff1673ffffffffffffffffffffffffffffffffffffffff1681526020019081526020016000208190555083600260008b73ffffffffffffffffffffffffffffffffffffffff1673ffffffffffffffffffffffffffffffffffffffff1681526020019081526020016000205461422891906155cb565b600260008b73ffffffffffffffffffffffffffffffffffffffff1673ffffffffffffffffffffffffffffffffffffffff1681526020019081526020016000208190555085600160008b73ffffffffffffffffffffffffffffffffffffffff1673ffffffffffffffffffffffffffffffffffffffff168152602001908152602001600020546142b691906155cb565b600160008b73ffffffffffffffffffffffffffffffffffffffff1673ffffffffffffffffffffffffffffffffffffffff168152602001908152602001600020819055506143028261446f565b61430b816145ff565b61431585846148d1565b8873ffffffffffffffffffffffffffffffffffffffff168a73ffffffffffffffffffffffffffffffffffffffff167fddf252ad1be2c89b69c2b068fc378daa952ba7f163c4a11628f55a4df523b3ef866040516143729190615421565b60405180910390a350505050505050505050565b600e54600d81905550601054600f81905550601254601181905550565b6000612710600d54836143b69190615652565b6143c09190615621565b9050919050565b6000612710600f54836143da9190615652565b6143e49190615621565b9050919050565b60008073ffffffffffffffffffffffffffffffffffffffff16601560009054906101000a900473ffffffffffffffffffffffffffffffffffffffff1673ffffffffffffffffffffffffffffffffffffffff16141561444c576000905061446a565b6127106011548361445d9190615652565b6144679190615621565b90505b919050565b6000614479612c58565b9050600081836144899190615652565b905080600160003073ffffffffffffffffffffffffffffffffffffffff1673ffffffffffffffffffffffffffffffffffffffff168152602001908152602001600020546144d691906155cb565b600160003073ffffffffffffffffffffffffffffffffffffffff1673ffffffffffffffffffffffffffffffffffffffff16815260200190815260200160002081905550600560003073ffffffffffffffffffffffffffffffffffffffff1673ffffffffffffffffffffffffffffffffffffffff16815260200190815260200160002060009054906101000a900460ff16156145fa5782600260003073ffffffffffffffffffffffffffffffffffffffff1673ffffffffffffffffffffffffffffffffffffffff168152602001908152602001600020546145b691906155cb565b600260003073ffffffffffffffffffffffffffffffffffffffff1673ffffffffffffffffffffffffffffffffffffffff168152602001908152602001600020819055505b505050565b60008111156148ce576000614612612c58565b9050600081836146229190615652565b90508060016000601560009054906101000a900473ffffffffffffffffffffffffffffffffffffffff1673ffffffffffffffffffffffffffffffffffffffff1673ffffffffffffffffffffffffffffffffffffffff1681526020019081526020016000205461469191906155cb565b60016000601560009054906101000a900473ffffffffffffffffffffffffffffffffffffffff1673ffffffffffffffffffffffffffffffffffffffff1673ffffffffffffffffffffffffffffffffffffffff1681526020019081526020016000208190555060056000601560009054906101000a900473ffffffffffffffffffffffffffffffffffffffff1673ffffffffffffffffffffffffffffffffffffffff1673ffffffffffffffffffffffffffffffffffffffff16815260200190815260200160002060009054906101000a900460ff161561483d578260026000601560009054906101000a900473ffffffffffffffffffffffffffffffffffffffff1673ffffffffffffffffffffffffffffffffffffffff1673ffffffffffffffffffffffffffffffffffffffff168152602001908152602001600020546147d791906155cb565b60026000601560009054906101000a900473ffffffffffffffffffffffffffffffffffffffff1673ffffffffffffffffffffffffffffffffffffffff1673ffffffffffffffffffffffffffffffffffffffff168152602001908152602001600020819055505b601560009054906101000a900473ffffffffffffffffffffffffffffffffffffffff1673ffffffffffffffffffffffffffffffffffffffff1661487e6126b0565b73ffffffffffffffffffffffffffffffffffffffff167fddf252ad1be2c89b69c2b068fc378daa952ba7f163c4a11628f55a4df523b3ef856040516148c39190615421565b60405180910390a350505b50565b816008546148df91906156ac565b600881905550806009546148f391906156ac565b6009819055505050565b828054614909906157e0565b90600052602060002090601f01602090048101928261492b5760008555614972565b82601f1061494457805160ff1916838001178555614972565b82800160010185558215614972579182015b82811115614971578251825591602001919060010190614956565b5b50905061497f9190614983565b5090565b5b8082111561499c576000816000905550600101614984565b5090565b60006149b36149ae8461550d565b6154e8565b9050828152602081018484840111156149cb57600080fd5b6149d684828561579e565b509392505050565b6000813590506149ed81615d8a565b92915050565b600081519050614a0281615d8a565b92915050565b600081359050614a1781615da1565b92915050565b600082601f830112614a2e57600080fd5b8135614a3e8482602086016149a0565b91505092915050565b600081359050614a5681615db8565b92915050565b600081359050614a6b81615dcf565b92915050565b600081519050614a8081615dcf565b92915050565b600060208284031215614a9857600080fd5b6000614aa6848285016149de565b91505092915050565b600060208284031215614ac157600080fd5b6000614acf848285016149f3565b91505092915050565b60008060408385031215614aeb57600080fd5b6000614af9858286016149de565b9250506020614b0a858286016149de565b9150509250929050565b600080600060608486031215614b2957600080fd5b6000614b37868287016149de565b9350506020614b48868287016149de565b9250506040614b5986828701614a5c565b9150509250925092565b6000806000806000806000806000806101408b8d031215614b8357600080fd5b6000614b918d828e016149de565b9a505060208b013567ffffffffffffffff811115614bae57600080fd5b614bba8d828e01614a1d565b99505060408b013567ffffffffffffffff811115614bd757600080fd5b614be38d828e01614a1d565b9850506060614bf48d828e01614a5c565b9750506080614c058d828e016149de565b96505060a0614c168d828e016149de565b95505060c0614c278d828e01614a47565b94505060e0614c388d828e01614a47565b935050610100614c4a8d828e01614a47565b925050610120614c5c8d828e01614a47565b9150509295989b9194979a5092959850565b60008060408385031215614c8157600080fd5b6000614c8f858286016149de565b9250506020614ca085828601614a5c565b9150509250929050565b600060208284031215614cbc57600080fd5b6000614cca84828501614a08565b91505092915050565b600060208284031215614ce557600080fd5b6000614cf384828501614a5c565b91505092915050565b60008060408385031215614d0f57600080fd5b6000614d1d85828601614a5c565b9250506020614d2e85828601614a08565b9150509250929050565b600080600060608486031215614d4d57600080fd5b6000614d5b86828701614a71565b9350506020614d6c86828701614a71565b9250506040614d7d86828701614a71565b9150509250925092565b6000614d938383614d9f565b60208301905092915050565b614da8816156e0565b82525050565b614db7816156e0565b82525050565b6000614dc88261554e565b614dd28185615571565b9350614ddd8361553e565b8060005b83811015614e0e578151614df58882614d87565b9750614e0083615564565b925050600181019050614de1565b5085935050505092915050565b614e24816156f2565b82525050565b614e3381615756565b82525050565b614e428161577a565b82525050565b614e518161578c565b82525050565b6000614e6282615559565b614e6c8185615582565b9350614e7c8185602086016157ad565b614e85816159a8565b840191505092915050565b6000614e9d602383615582565b9150614ea8826159b9565b604082019050919050565b6000614ec0600f83615582565b9150614ecb82615a08565b602082019050919050565b6000614ee3602a83615582565b9150614eee82615a31565b604082019050919050565b6000614f06602683615582565b9150614f1182615a80565b604082019050919050565b6000614f29602283615582565b9150614f3482615acf565b604082019050919050565b6000614f4c601583615582565b9150614f5782615b1e565b602082019050919050565b6000614f6f601b83615582565b9150614f7a82615b47565b602082019050919050565b6000614f92604a83615582565b9150614f9d82615b70565b606082019050919050565b6000614fb5601583615582565b9150614fc082615be5565b602082019050919050565b6000614fd8601f83615582565b9150614fe382615c0e565b602082019050919050565b6000614ffb602083615582565b915061500682615c37565b602082019050919050565b600061501e601383615582565b915061502982615c60565b602082019050919050565b6000615041602983615582565b915061504c82615c89565b604082019050919050565b6000615064602583615582565b915061506f82615cd8565b604082019050919050565b6000615087602483615582565b915061509282615d27565b604082019050919050565b6150a68161573f565b82525050565b6150b581615749565b82525050565b60006020820190506150d06000830184614dae565b92915050565b60006040820190506150eb6000830185614dae565b6150f86020830184614dae565b9392505050565b600060c0820190506151146000830189614dae565b615121602083018861509d565b61512e6040830187614e48565b61513b6060830186614e48565b6151486080830185614dae565b61515560a083018461509d565b979650505050505050565b60006020820190506151756000830184614e1b565b92915050565b60006020820190506151906000830184614e2a565b92915050565b60006040820190506151ab6000830185614e39565b6151b8602083018461509d565b9392505050565b600060208201905081810360008301526151d98184614e57565b905092915050565b600060408201905081810360008301526151fb8185614e57565b905061520a6020830184614dae565b9392505050565b6000604082019050818103600083015261522b8185614e57565b905061523a602083018461509d565b9392505050565b6000602082019050818103600083015261525a81614e90565b9050919050565b6000602082019050818103600083015261527a81614eb3565b9050919050565b6000602082019050818103600083015261529a81614ed6565b9050919050565b600060208201905081810360008301526152ba81614ef9565b9050919050565b600060208201905081810360008301526152da81614f1c565b9050919050565b600060208201905081810360008301526152fa81614f3f565b9050919050565b6000602082019050818103600083015261531a81614f62565b9050919050565b6000602082019050818103600083015261533a81614f85565b9050919050565b6000602082019050818103600083015261535a81614fa8565b9050919050565b6000602082019050818103600083015261537a81614fcb565b9050919050565b6000602082019050818103600083015261539a81614fee565b9050919050565b600060208201905081810360008301526153ba81615011565b9050919050565b600060208201905081810360008301526153da81615034565b9050919050565b600060208201905081810360008301526153fa81615057565b9050919050565b6000602082019050818103600083015261541a8161507a565b9050919050565b6000602082019050615436600083018461509d565b92915050565b600060a082019050615451600083018861509d565b61545e6020830187614e48565b81810360408301526154708186614dbd565b905061547f6060830185614dae565b61548c608083018461509d565b9695505050505050565b60006060820190506154ab600083018661509d565b6154b8602083018561509d565b6154c5604083018461509d565b949350505050565b60006020820190506154e260008301846150ac565b92915050565b60006154f2615503565b90506154fe8282615812565b919050565b6000604051905090565b600067ffffffffffffffff82111561552857615527615979565b5b615531826159a8565b9050602081019050919050565b6000819050602082019050919050565b600081519050919050565b600081519050919050565b6000602082019050919050565b600082825260208201905092915050565b600082825260208201905092915050565b600061559e82615711565b91506155a983615711565b92508261ffff038211156155c0576155bf6158bd565b5b828201905092915050565b60006155d68261573f565b91506155e18361573f565b9250827fffffffffffffffffffffffffffffffffffffffffffffffffffffffffffffffff03821115615616576156156158bd565b5b828201905092915050565b600061562c8261573f565b91506156378361573f565b925082615647576156466158ec565b5b828204905092915050565b600061565d8261573f565b91506156688361573f565b9250817fffffffffffffffffffffffffffffffffffffffffffffffffffffffffffffffff04831182151516156156a1576156a06158bd565b5b828202905092915050565b60006156b78261573f565b91506156c28361573f565b9250828210156156d5576156d46158bd565b5b828203905092915050565b60006156eb8261571f565b9050919050565b60008115159050919050565b600081905061570c82615d76565b919050565b600061ffff82169050919050565b600073ffffffffffffffffffffffffffffffffffffffff82169050919050565b6000819050919050565b600060ff82169050919050565b600061576182615768565b9050919050565b60006157738261571f565b9050919050565b6000615785826156fe565b9050919050565b60006157978261573f565b9050919050565b82818337600083830152505050565b60005b838110156157cb5780820151818401526020810190506157b0565b838111156157da576000848401525b50505050565b600060028204905060018216806157f857607f821691505b6020821081141561580c5761580b61594a565b5b50919050565b61581b826159a8565b810181811067ffffffffffffffff8211171561583a57615839615979565b5b80604052505050565b600061584e8261573f565b91507fffffffffffffffffffffffffffffffffffffffffffffffffffffffffffffffff821415615881576158806158bd565b5b600182019050919050565b60006158978261573f565b91506158a28361573f565b9250826158b2576158b16158ec565b5b828206905092915050565b7f4e487b7100000000000000000000000000000000000000000000000000000000600052601160045260246000fd5b7f4e487b7100000000000000000000000000000000000000000000000000000000600052601260045260246000fd5b7f4e487b7100000000000000000000000000000000000000000000000000000000600052602160045260246000fd5b7f4e487b7100000000000000000000000000000000000000000000000000000000600052602260045260246000fd5b7f4e487b7100000000000000000000000000000000000000000000000000000000600052604160045260246000fd5b6000601f19601f8301169050919050565b7f45524332303a207472616e7366657220746f20746865207a65726f206164647260008201527f6573730000000000000000000000000000000000000000000000000000000000602082015250565b7f496e76616c696420746178206665650000000000000000000000000000000000600082015250565b7f416d6f756e74206d757374206265206c657373207468616e20746f74616c207260008201527f65666c656374696f6e7300000000000000000000000000000000000000000000602082015250565b7f4f776e61626c653a206e6577206f776e657220697320746865207a65726f206160008201527f6464726573730000000000000000000000000000000000000000000000000000602082015250565b7f45524332303a20617070726f766520746f20746865207a65726f20616464726560008201527f7373000000000000000000000000000000000000000000000000000000000000602082015250565b7f496e76616c6964206c6971756964697479206665650000000000000000000000600082015250565b7f4163636f756e7420697320616c7265616479206578636c756465640000000000600082015250565b7f43616e742073657420626f74682063686172697479206164647265737320746f60008201527f2061646472657373203020616e6420636861726974792070657263656e74206d60208201527f6f7265207468616e203000000000000000000000000000000000000000000000604082015250565b7f546f74616c20666565206973206f766572203235250000000000000000000000600082015250565b7f416d6f756e74206d757374206265206c657373207468616e20737570706c7900600082015250565b7f4f776e61626c653a2063616c6c6572206973206e6f7420746865206f776e6572600082015250565b7f496e76616c696420636861726974792066656500000000000000000000000000600082015250565b7f5472616e7366657220616d6f756e74206d75737420626520677265617465722060008201527f7468616e207a65726f0000000000000000000000000000000000000000000000602082015250565b7f45524332303a207472616e736665722066726f6d20746865207a65726f20616460008201527f6472657373000000000000000000000000000000000000000000000000000000602082015250565b7f45524332303a20617070726f76652066726f6d20746865207a65726f2061646460008201527f7265737300000000000000000000000000000000000000000000000000000000602082015250565b60088110615d8757615d8661591b565b5b50565b615d93816156e0565b8114615d9e57600080fd5b50565b615daa816156f2565b8114615db557600080fd5b50565b615dc181615711565b8114615dcc57600080fd5b50565b615dd88161573f565b8114615de357600080fd5b5056fea2646970667358221220bb7120e09d85a19328d5f0334230be8b1a132188ab399426e51a3257327f5a5564736f6c63430008010033",
  "devdoc": {
    "kind": "dev",
    "methods": {
      "approve(address,uint256)": {
        "details": "Sets `amount` as the allowance of `spender` over the caller's tokens. Returns a boolean value indicating whether the operation succeeded. IMPORTANT: Beware that changing an allowance with this method brings the risk that someone may use both the old and the new allowance by unfortunate transaction ordering. One possible solution to mitigate this race condition is to first reduce the spender's allowance to 0 and set the desired value afterwards: https://github.com/ethereum/EIPs/issues/20#issuecomment-263524729 Emits an {Approval} event."
      },
      "balanceOf(address)": {
        "details": "Returns the amount of tokens owned by `account`."
      },
      "owner()": {
        "details": "Returns the address of the current owner."
      },
      "renounceOwnership()": {
        "details": "Leaves the contract without owner. It will not be possible to call `onlyOwner` functions anymore. Can only be called by the current owner. NOTE: Renouncing ownership will leave the contract without an owner, thereby removing any functionality that is only available to the owner."
      },
      "totalSupply()": {
        "details": "Returns the amount of tokens in existence."
      },
      "transfer(address,uint256)": {
        "details": "Moves `amount` tokens from the caller's account to `recipient`. Returns a boolean value indicating whether the operation succeeded. Emits a {Transfer} event."
      },
      "transferFrom(address,address,uint256)": {
        "details": "Moves `amount` tokens from `sender` to `recipient` using the allowance mechanism. `amount` is then deducted from the caller's allowance. Returns a boolean value indicating whether the operation succeeded. Emits a {Transfer} event."
      },
      "transferOwnership(address)": {
        "details": "Transfers ownership of the contract to a new account (`newOwner`). Can only be called by the current owner."
      }
    },
    "version": 1
  },
  "userdoc": {
    "kind": "user",
    "methods": {},
    "version": 1
  },
  "storageLayout": {
    "storage": [
      {
        "astId": 8167,
        "contract": "src/tokens/LiquidityGeneratorToken.sol:LiquidityGeneratorToken",
        "label": "_owner",
        "offset": 0,
        "slot": "0",
        "type": "t_address"
      },
      {
        "astId": 8688,
        "contract": "src/tokens/LiquidityGeneratorToken.sol:LiquidityGeneratorToken",
        "label": "_rOwned",
        "offset": 0,
        "slot": "1",
        "type": "t_mapping(t_address,t_uint256)"
      },
      {
        "astId": 8692,
        "contract": "src/tokens/LiquidityGeneratorToken.sol:LiquidityGeneratorToken",
        "label": "_tOwned",
        "offset": 0,
        "slot": "2",
        "type": "t_mapping(t_address,t_uint256)"
      },
      {
        "astId": 8698,
        "contract": "src/tokens/LiquidityGeneratorToken.sol:LiquidityGeneratorToken",
        "label": "_allowances",
        "offset": 0,
        "slot": "3",
        "type": "t_mapping(t_address,t_mapping(t_address,t_uint256))"
      },
      {
        "astId": 8702,
        "contract": "src/tokens/LiquidityGeneratorToken.sol:LiquidityGeneratorToken",
        "label": "_isExcludedFromFee",
        "offset": 0,
        "slot": "4",
        "type": "t_mapping(t_address,t_bool)"
      },
      {
        "astId": 8706,
        "contract": "src/tokens/LiquidityGeneratorToken.sol:LiquidityGeneratorToken",
        "label": "_isExcluded",
        "offset": 0,
        "slot": "5",
        "type": "t_mapping(t_address,t_bool)"
      },
      {
        "astId": 8709,
        "contract": "src/tokens/LiquidityGeneratorToken.sol:LiquidityGeneratorToken",
        "label": "_excluded",
        "offset": 0,
        "slot": "6",
        "type": "t_array(t_address)dyn_storage"
      },
      {
        "astId": 8718,
        "contract": "src/tokens/LiquidityGeneratorToken.sol:LiquidityGeneratorToken",
        "label": "_tTotal",
        "offset": 0,
        "slot": "7",
        "type": "t_uint256"
      },
      {
        "astId": 8720,
        "contract": "src/tokens/LiquidityGeneratorToken.sol:LiquidityGeneratorToken",
        "label": "_rTotal",
        "offset": 0,
        "slot": "8",
        "type": "t_uint256"
      },
      {
        "astId": 8722,
        "contract": "src/tokens/LiquidityGeneratorToken.sol:LiquidityGeneratorToken",
        "label": "_tFeeTotal",
        "offset": 0,
        "slot": "9",
        "type": "t_uint256"
      },
      {
        "astId": 8724,
        "contract": "src/tokens/LiquidityGeneratorToken.sol:LiquidityGeneratorToken",
        "label": "_name",
        "offset": 0,
        "slot": "10",
        "type": "t_string_storage"
      },
      {
        "astId": 8726,
        "contract": "src/tokens/LiquidityGeneratorToken.sol:LiquidityGeneratorToken",
        "label": "_symbol",
        "offset": 0,
        "slot": "11",
        "type": "t_string_storage"
      },
      {
        "astId": 8728,
        "contract": "src/tokens/LiquidityGeneratorToken.sol:LiquidityGeneratorToken",
        "label": "_decimals",
        "offset": 0,
        "slot": "12",
        "type": "t_uint8"
      },
      {
        "astId": 8730,
        "contract": "src/tokens/LiquidityGeneratorToken.sol:LiquidityGeneratorToken",
        "label": "_taxFee",
        "offset": 0,
        "slot": "13",
        "type": "t_uint256"
      },
      {
        "astId": 8733,
        "contract": "src/tokens/LiquidityGeneratorToken.sol:LiquidityGeneratorToken",
        "label": "_previousTaxFee",
        "offset": 0,
        "slot": "14",
        "type": "t_uint256"
      },
      {
        "astId": 8735,
        "contract": "src/tokens/LiquidityGeneratorToken.sol:LiquidityGeneratorToken",
        "label": "_liquidityFee",
        "offset": 0,
        "slot": "15",
        "type": "t_uint256"
      },
      {
        "astId": 8738,
        "contract": "src/tokens/LiquidityGeneratorToken.sol:LiquidityGeneratorToken",
        "label": "_previousLiquidityFee",
        "offset": 0,
        "slot": "16",
        "type": "t_uint256"
      },
      {
        "astId": 8740,
        "contract": "src/tokens/LiquidityGeneratorToken.sol:LiquidityGeneratorToken",
        "label": "_charityFee",
        "offset": 0,
        "slot": "17",
        "type": "t_uint256"
      },
      {
        "astId": 8743,
        "contract": "src/tokens/LiquidityGeneratorToken.sol:LiquidityGeneratorToken",
        "label": "_previousCharityFee",
        "offset": 0,
        "slot": "18",
        "type": "t_uint256"
      },
      {
        "astId": 8746,
        "contract": "src/tokens/LiquidityGeneratorToken.sol:LiquidityGeneratorToken",
        "label": "uniswapV2Router",
        "offset": 0,
        "slot": "19",
        "type": "t_contract(IUniswapV2Router02)8631"
      },
      {
        "astId": 8748,
        "contract": "src/tokens/LiquidityGeneratorToken.sol:LiquidityGeneratorToken",
        "label": "uniswapV2Pair",
        "offset": 0,
        "slot": "20",
        "type": "t_address"
      },
      {
        "astId": 8750,
        "contract": "src/tokens/LiquidityGeneratorToken.sol:LiquidityGeneratorToken",
        "label": "_charityAddress",
        "offset": 0,
        "slot": "21",
        "type": "t_address"
      },
      {
        "astId": 8752,
        "contract": "src/tokens/LiquidityGeneratorToken.sol:LiquidityGeneratorToken",
        "label": "inSwapAndLiquify",
        "offset": 20,
        "slot": "21",
        "type": "t_bool"
      },
      {
        "astId": 8754,
        "contract": "src/tokens/LiquidityGeneratorToken.sol:LiquidityGeneratorToken",
        "label": "swapAndLiquifyEnabled",
        "offset": 21,
        "slot": "21",
        "type": "t_bool"
      },
      {
        "astId": 8756,
        "contract": "src/tokens/LiquidityGeneratorToken.sol:LiquidityGeneratorToken",
        "label": "numTokensSellToAddToLiquidity",
        "offset": 0,
        "slot": "22",
        "type": "t_uint256"
      }
    ],
    "types": {
      "t_address": {
        "encoding": "inplace",
        "label": "address",
        "numberOfBytes": "20"
      },
      "t_array(t_address)dyn_storage": {
        "base": "t_address",
        "encoding": "dynamic_array",
        "label": "address[]",
        "numberOfBytes": "32"
      },
      "t_bool": {
        "encoding": "inplace",
        "label": "bool",
        "numberOfBytes": "1"
      },
      "t_contract(IUniswapV2Router02)8631": {
        "encoding": "inplace",
        "label": "contract IUniswapV2Router02",
        "numberOfBytes": "20"
      },
      "t_mapping(t_address,t_bool)": {
        "encoding": "mapping",
        "key": "t_address",
        "label": "mapping(address => bool)",
        "numberOfBytes": "32",
        "value": "t_bool"
      },
      "t_mapping(t_address,t_mapping(t_address,t_uint256))": {
        "encoding": "mapping",
        "key": "t_address",
        "label": "mapping(address => mapping(address => uint256))",
        "numberOfBytes": "32",
        "value": "t_mapping(t_address,t_uint256)"
      },
      "t_mapping(t_address,t_uint256)": {
        "encoding": "mapping",
        "key": "t_address",
        "label": "mapping(address => uint256)",
        "numberOfBytes": "32",
        "value": "t_uint256"
      },
      "t_string_storage": {
        "encoding": "bytes",
        "label": "string",
        "numberOfBytes": "32"
      },
      "t_uint256": {
        "encoding": "inplace",
        "label": "uint256",
        "numberOfBytes": "32"
      },
      "t_uint8": {
        "encoding": "inplace",
        "label": "uint8",
        "numberOfBytes": "1"
      }
    }
  }
}