{
  "address": "0xefc1aB2475ACb7E60499Efb171D173be19928a05",
  "abi": [
    {
      "inputs": [
        {
          "internalType": "address",
          "name": "factoryManager_",
          "type": "address"
        },
        {
          "internalType": "address",
          "name": "implementation_",
          "type": "address"
        }
      ],
      "stateMutability": "nonpayable",
      "type": "constructor"
    },
    {
      "anonymous": false,
      "inputs": [
        {
          "indexed": true,
          "internalType": "address",
          "name": "previousOwner",
          "type": "address"
        },
        {
          "indexed": true,
          "internalType": "address",
          "name": "newOwner",
          "type": "address"
        }
      ],
      "name": "OwnershipTransferred",
      "type": "event"
    },
    {
      "anonymous": false,
      "inputs": [
        {
          "indexed": true,
          "internalType": "address",
          "name": "owner",
          "type": "address"
        },
        {
          "indexed": true,
          "internalType": "address",
          "name": "token",
          "type": "address"
        },
        {
          "indexed": false,
          "internalType": "uint8",
          "name": "tokenType",
          "type": "uint8"
        }
      ],
      "name": "TokenCreated",
      "type": "event"
    },
    {
      "inputs": [
        {
          "internalType": "string",
          "name": "name",
          "type": "string"
        },
        {
          "internalType": "string",
          "name": "symbol",
          "type": "string"
        },
        {
          "internalType": "uint256",
          "name": "totalSupply",
          "type": "uint256"
        },
        {
          "internalType": "address",
          "name": "router",
          "type": "address"
        },
        {
          "internalType": "address",
          "name": "charity",
          "type": "address"
        },
        {
          "internalType": "uint16",
          "name": "taxFeeBps",
          "type": "uint16"
        },
        {
          "internalType": "uint16",
          "name": "liquidityFeeBps",
          "type": "uint16"
        },
        {
          "internalType": "uint16",
          "name": "charityBps",
          "type": "uint16"
        },
        {
          "internalType": "uint16",
          "name": "maxTxBps",
          "type": "uint16"
        }
      ],
      "name": "create",
      "outputs": [
        {
          "internalType": "address",
          "name": "token",
          "type": "address"
        }
      ],
      "stateMutability": "payable",
      "type": "function"
    },
    {
      "inputs": [],
      "name": "factoryManager",
      "outputs": [
        {
          "internalType": "address",
          "name": "",
          "type": "address"
        }
      ],
      "stateMutability": "view",
      "type": "function"
    },
    {
      "inputs": [],
      "name": "feeTo",
      "outputs": [
        {
          "internalType": "address",
          "name": "",
          "type": "address"
        }
      ],
      "stateMutability": "view",
      "type": "function"
    },
    {
      "inputs": [],
      "name": "flatFee",
      "outputs": [
        {
          "internalType": "uint256",
          "name": "",
          "type": "uint256"
        }
      ],
      "stateMutability": "view",
      "type": "function"
    },
    {
      "inputs": [],
      "name": "implementation",
      "outputs": [
        {
          "internalType": "address",
          "name": "",
          "type": "address"
        }
      ],
      "stateMutability": "view",
      "type": "function"
    },
    {
      "inputs": [],
      "name": "owner",
      "outputs": [
        {
          "internalType": "address",
          "name": "",
          "type": "address"
        }
      ],
      "stateMutability": "view",
      "type": "function"
    },
    {
      "inputs": [],
      "name": "renounceOwnership",
      "outputs": [],
      "stateMutability": "nonpayable",
      "type": "function"
    },
    {
      "inputs": [
        {
          "internalType": "address",
          "name": "feeReceivingAddress",
          "type": "address"
        }
      ],
      "name": "setFeeTo",
      "outputs": [],
      "stateMutability": "nonpayable",
      "type": "function"
    },
    {
      "inputs": [
        {
          "internalType": "uint256",
          "name": "fee",
          "type": "uint256"
        }
      ],
      "name": "setFlatFee",
      "outputs": [],
      "stateMutability": "nonpayable",
      "type": "function"
    },
    {
      "inputs": [
        {
          "internalType": "address",
          "name": "implementation_",
          "type": "address"
        }
      ],
      "name": "setImplementation",
      "outputs": [],
      "stateMutability": "nonpayable",
      "type": "function"
    },
    {
      "inputs": [
        {
          "internalType": "address",
          "name": "newOwner",
          "type": "address"
        }
      ],
      "name": "transferOwnership",
      "outputs": [],
      "stateMutability": "nonpayable",
      "type": "function"
    }
  ],
  "transactionHash": "0x138a33dce65cb98b8fbfe1f93f8aa35a2ef6d17d49b2ede0f6591a1c00909a81",
  "args": [
    "0xfcDB4564c18A9134002b9771816092C9693622e3",
    "0xde2Bd2ffEA002b8E84ADeA96e5976aF664115E2c"
  ],
  "numDeployments": 5,
  "solcInputHash": "2736dbf12be78575a797fcb296781073",
  "bytecode": "0x60806040523480156200001157600080fd5b506040516200186538038062001865833981810160405281019062000037919062000218565b8181620000596200004d6200013560201b60201c565b6200013d60201b60201c565b6001808190555081600260006101000a81548173ffffffffffffffffffffffffffffffffffffffff021916908373ffffffffffffffffffffffffffffffffffffffff16021790555080600360006101000a81548173ffffffffffffffffffffffffffffffffffffffff021916908373ffffffffffffffffffffffffffffffffffffffff16021790555033600460006101000a81548173ffffffffffffffffffffffffffffffffffffffff021916908373ffffffffffffffffffffffffffffffffffffffff160217905550600160058190555050505050620002a7565b600033905090565b60008060009054906101000a900473ffffffffffffffffffffffffffffffffffffffff169050816000806101000a81548173ffffffffffffffffffffffffffffffffffffffff021916908373ffffffffffffffffffffffffffffffffffffffff1602179055508173ffffffffffffffffffffffffffffffffffffffff168173ffffffffffffffffffffffffffffffffffffffff167f8be0079c531659141344cd1fd0a4f28419497f9722a3daafe3b4186f6b6457e060405160405180910390a35050565b60008151905062000212816200028d565b92915050565b600080604083850312156200022c57600080fd5b60006200023c8582860162000201565b92505060206200024f8582860162000201565b9150509250929050565b600062000266826200026d565b9050919050565b600073ffffffffffffffffffffffffffffffffffffffff82169050919050565b620002988162000259565b8114620002a457600080fd5b50565b6115ae80620002b76000396000f3fe60806040526004361061009c5760003560e01c8063715018a611610064578063715018a61461017b5780638da5cb5b14610192578063d784d426146101bd578063d9eb5947146101e6578063f2fde38b14610211578063f46901ed1461023a5761009c565b8063017e7e58146100a1578063032b5a73146100cc57806323fa495a146100f75780634a3cef63146101205780635c60da1b14610150575b600080fd5b3480156100ad57600080fd5b506100b6610263565b6040516100c39190610fb7565b60405180910390f35b3480156100d857600080fd5b506100e1610289565b6040516100ee9190610fb7565b60405180910390f35b34801561010357600080fd5b5061011e60048036038101906101199190610ddd565b6102af565b005b61013a60048036038101906101359190610ce7565b610335565b6040516101479190610fb7565b60405180910390f35b34801561015c57600080fd5b5061016561054f565b6040516101729190610fb7565b60405180910390f35b34801561018757600080fd5b50610190610575565b005b34801561019e57600080fd5b506101a76105fd565b6040516101b49190610fb7565b60405180910390f35b3480156101c957600080fd5b506101e460048036038101906101df9190610cbe565b610626565b005b3480156101f257600080fd5b506101fb6106e6565b60405161020891906111ae565b60405180910390f35b34801561021d57600080fd5b5061023860048036038101906102339190610cbe565b6106ec565b005b34801561024657600080fd5b50610261600480360381019061025c9190610cbe565b6107e4565b005b600460009054906101000a900473ffffffffffffffffffffffffffffffffffffffff1681565b600260009054906101000a900473ffffffffffffffffffffffffffffffffffffffff1681565b6102b76108a4565b73ffffffffffffffffffffffffffffffffffffffff166102d56105fd565b73ffffffffffffffffffffffffffffffffffffffff161461032b576040517f08c379a00000000000000000000000000000000000000000000000000000000081526004016103229061114e565b60405180910390fd5b8060058190555050565b600060055434101561037c576040517f08c379a00000000000000000000000000000000000000000000000000000000081526004016103739061116e565b60405180910390fd5b600260015414156103c2576040517f08c379a00000000000000000000000000000000000000000000000000000000081526004016103b99061118e565b60405180910390fd5b60026001819055506103d26108ac565b61041f600554600460009054906101000a900473ffffffffffffffffffffffffffffffffffffffff1673ffffffffffffffffffffffffffffffffffffffff166108f490919063ffffffff16565b61044a600360009054906101000a900473ffffffffffffffffffffffffffffffffffffffff166109e8565b90508073ffffffffffffffffffffffffffffffffffffffff1663b00544f6338c8c8c8c8c8c8c8c8c6040518b63ffffffff1660e01b81526004016104979a99989796959493929190611009565b600060405180830381600087803b1580156104b157600080fd5b505af11580156104c5573d6000803e3d6000fd5b505050506104d533826001610abd565b8073ffffffffffffffffffffffffffffffffffffffff163373ffffffffffffffffffffffffffffffffffffffff167f49fab9e82f453b3b0e1b0e507a645552d8b351f9b3cb0c9a7b4df572780c6b2f600160405161053391906110b3565b60405180910390a3600180819055509998505050505050505050565b600360009054906101000a900473ffffffffffffffffffffffffffffffffffffffff1681565b61057d6108a4565b73ffffffffffffffffffffffffffffffffffffffff1661059b6105fd565b73ffffffffffffffffffffffffffffffffffffffff16146105f1576040517f08c379a00000000000000000000000000000000000000000000000000000000081526004016105e89061114e565b60405180910390fd5b6105fb6000610b53565b565b60008060009054906101000a900473ffffffffffffffffffffffffffffffffffffffff16905090565b61062e6108a4565b73ffffffffffffffffffffffffffffffffffffffff1661064c6105fd565b73ffffffffffffffffffffffffffffffffffffffff16146106a2576040517f08c379a00000000000000000000000000000000000000000000000000000000081526004016106999061114e565b60405180910390fd5b80600360006101000a81548173ffffffffffffffffffffffffffffffffffffffff021916908373ffffffffffffffffffffffffffffffffffffffff16021790555050565b60055481565b6106f46108a4565b73ffffffffffffffffffffffffffffffffffffffff166107126105fd565b73ffffffffffffffffffffffffffffffffffffffff1614610768576040517f08c379a000000000000000000000000000000000000000000000000000000000815260040161075f9061114e565b60405180910390fd5b600073ffffffffffffffffffffffffffffffffffffffff168173ffffffffffffffffffffffffffffffffffffffff1614156107d8576040517f08c379a00000000000000000000000000000000000000000000000000000000081526004016107cf906110ce565b60405180910390fd5b6107e181610b53565b50565b6107ec6108a4565b73ffffffffffffffffffffffffffffffffffffffff1661080a6105fd565b73ffffffffffffffffffffffffffffffffffffffff1614610860576040517f08c379a00000000000000000000000000000000000000000000000000000000081526004016108579061114e565b60405180910390fd5b80600460006101000a81548173ffffffffffffffffffffffffffffffffffffffff021916908373ffffffffffffffffffffffffffffffffffffffff16021790555050565b600033905090565b6000600554346108bc9190611246565b905060008111156108f1576108f0813373ffffffffffffffffffffffffffffffffffffffff166108f490919063ffffffff16565b5b50565b80471015610937576040517f08c379a000000000000000000000000000000000000000000000000000000000815260040161092e9061110e565b60405180910390fd5b60008273ffffffffffffffffffffffffffffffffffffffff168260405161095d90610fa2565b60006040518083038185875af1925050503d806000811461099a576040519150601f19603f3d011682016040523d82523d6000602084013e61099f565b606091505b50509050806109e3576040517f08c379a00000000000000000000000000000000000000000000000000000000081526004016109da906110ee565b60405180910390fd5b505050565b60006040517f3d602d80600a3d3981f3363d3d373d3d3d363d7300000000000000000000000081528260601b60148201527f5af43d82803e903d91602b57fd5bf3000000000000000000000000000000000060288201526037816000f0915050600073ffffffffffffffffffffffffffffffffffffffff168173ffffffffffffffffffffffffffffffffffffffff161415610ab8576040517f08c379a0000000000000000000000000000000000000000000000000000000008152600401610aaf9061112e565b60405180910390fd5b919050565b600260009054906101000a900473ffffffffffffffffffffffffffffffffffffffff1673ffffffffffffffffffffffffffffffffffffffff166328220dea8484846040518463ffffffff1660e01b8152600401610b1c93929190610fd2565b600060405180830381600087803b158015610b3657600080fd5b505af1158015610b4a573d6000803e3d6000fd5b50505050505050565b60008060009054906101000a900473ffffffffffffffffffffffffffffffffffffffff169050816000806101000a81548173ffffffffffffffffffffffffffffffffffffffff021916908373ffffffffffffffffffffffffffffffffffffffff1602179055508173ffffffffffffffffffffffffffffffffffffffff168173ffffffffffffffffffffffffffffffffffffffff167f8be0079c531659141344cd1fd0a4f28419497f9722a3daafe3b4186f6b6457e060405160405180910390a35050565b6000610c2a610c25846111ee565b6111c9565b905082815260208101848484011115610c4257600080fd5b610c4d8482856112e3565b509392505050565b600081359050610c6481611533565b92915050565b600082601f830112610c7b57600080fd5b8135610c8b848260208601610c17565b91505092915050565b600081359050610ca38161154a565b92915050565b600081359050610cb881611561565b92915050565b600060208284031215610cd057600080fd5b6000610cde84828501610c55565b91505092915050565b60008060008060008060008060006101208a8c031215610d0657600080fd5b60008a013567ffffffffffffffff811115610d2057600080fd5b610d2c8c828d01610c6a565b99505060208a013567ffffffffffffffff811115610d4957600080fd5b610d558c828d01610c6a565b9850506040610d668c828d01610ca9565b9750506060610d778c828d01610c55565b9650506080610d888c828d01610c55565b95505060a0610d998c828d01610c94565b94505060c0610daa8c828d01610c94565b93505060e0610dbb8c828d01610c94565b925050610100610dcd8c828d01610c94565b9150509295985092959850929598565b600060208284031215610def57600080fd5b6000610dfd84828501610ca9565b91505092915050565b610e0f8161127a565b82525050565b610e1e816112d1565b82525050565b6000610e2f8261121f565b610e398185611235565b9350610e498185602086016112f2565b610e52816113b4565b840191505092915050565b6000610e6a602683611235565b9150610e75826113c5565b604082019050919050565b6000610e8d603a83611235565b9150610e9882611414565b604082019050919050565b6000610eb0601d83611235565b9150610ebb82611463565b602082019050919050565b6000610ed3601683611235565b9150610ede8261148c565b602082019050919050565b6000610ef6602083611235565b9150610f01826114b5565b602082019050919050565b6000610f1960008361122a565b9150610f24826114de565b600082019050919050565b6000610f3c600883611235565b9150610f47826114e1565b602082019050919050565b6000610f5f601f83611235565b9150610f6a8261150a565b602082019050919050565b610f7e8161128c565b82525050565b610f8d816112ba565b82525050565b610f9c816112c4565b82525050565b6000610fad82610f0c565b9150819050919050565b6000602082019050610fcc6000830184610e06565b92915050565b6000606082019050610fe76000830186610e06565b610ff46020830185610e06565b6110016040830184610f93565b949350505050565b60006101408201905061101f600083018d610e06565b8181036020830152611031818c610e24565b90508181036040830152611045818b610e24565b9050611054606083018a610f84565b6110616080830189610e06565b61106e60a0830188610e06565b61107b60c0830187610f75565b61108860e0830186610f75565b611096610100830185610f75565b6110a4610120830184610f75565b9b9a5050505050505050505050565b60006020820190506110c86000830184610e15565b92915050565b600060208201905081810360008301526110e781610e5d565b9050919050565b6000602082019050818103600083015261110781610e80565b9050919050565b6000602082019050818103600083015261112781610ea3565b9050919050565b6000602082019050818103600083015261114781610ec6565b9050919050565b6000602082019050818103600083015261116781610ee9565b9050919050565b6000602082019050818103600083015261118781610f2f565b9050919050565b600060208201905081810360008301526111a781610f52565b9050919050565b60006020820190506111c36000830184610f84565b92915050565b60006111d36111e4565b90506111df8282611325565b919050565b6000604051905090565b600067ffffffffffffffff82111561120957611208611385565b5b611212826113b4565b9050602081019050919050565b600081519050919050565b600081905092915050565b600082825260208201905092915050565b6000611251826112ba565b915061125c836112ba565b92508282101561126f5761126e611356565b5b828203905092915050565b60006112858261129a565b9050919050565b600061ffff82169050919050565b600073ffffffffffffffffffffffffffffffffffffffff82169050919050565b6000819050919050565b600060ff82169050919050565b60006112dc826112c4565b9050919050565b82818337600083830152505050565b60005b838110156113105780820151818401526020810190506112f5565b8381111561131f576000848401525b50505050565b61132e826113b4565b810181811067ffffffffffffffff8211171561134d5761134c611385565b5b80604052505050565b7f4e487b7100000000000000000000000000000000000000000000000000000000600052601160045260246000fd5b7f4e487b7100000000000000000000000000000000000000000000000000000000600052604160045260246000fd5b6000601f19601f8301169050919050565b7f4f776e61626c653a206e6577206f776e657220697320746865207a65726f206160008201527f6464726573730000000000000000000000000000000000000000000000000000602082015250565b7f416464726573733a20756e61626c6520746f2073656e642076616c75652c207260008201527f6563697069656e74206d61792068617665207265766572746564000000000000602082015250565b7f416464726573733a20696e73756666696369656e742062616c616e6365000000600082015250565b7f455243313136373a20637265617465206661696c656400000000000000000000600082015250565b7f4f776e61626c653a2063616c6c6572206973206e6f7420746865206f776e6572600082015250565b50565b7f466c617420666565000000000000000000000000000000000000000000000000600082015250565b7f5265656e7472616e637947756172643a207265656e7472616e742063616c6c00600082015250565b61153c8161127a565b811461154757600080fd5b50565b6115538161128c565b811461155e57600080fd5b50565b61156a816112ba565b811461157557600080fd5b5056fea26469706673582212200b9b911526ef389d5477b90b68e75acff9662fc79ae79675e2b3f647ba75546664736f6c63430008010033",
  "devdoc": {
    "kind": "dev",
    "methods": {
      "owner()": {
        "details": "Returns the address of the current owner."
      },
      "renounceOwnership()": {
        "details": "Leaves the contract without owner. It will not be possible to call `onlyOwner` functions anymore. Can only be called by the current owner. NOTE: Renouncing ownership will leave the contract without an owner, thereby removing any functionality that is only available to the owner."
      },
      "transferOwnership(address)": {
        "details": "Transfers ownership of the contract to a new account (`newOwner`). Can only be called by the current owner."
      }
    },
    "version": 1
  },
  "userdoc": {
    "kind": "user",
    "methods": {},
    "version": 1
  },
  "storageLayout": {
    "storage": [
      {
        "astId": 7,
        "contract": "src/factories/LiquidityGeneratorTokenFactory.sol:LiquidityGeneratorTokenFactory",
        "label": "_owner",
        "offset": 0,
        "slot": "0",
        "type": "t_address"
      },
      {
        "astId": 195,
        "contract": "src/factories/LiquidityGeneratorTokenFactory.sol:LiquidityGeneratorTokenFactory",
        "label": "_status",
        "offset": 0,
        "slot": "1",
        "type": "t_uint256"
      },
      {
        "astId": 736,
        "contract": "src/factories/LiquidityGeneratorTokenFactory.sol:LiquidityGeneratorTokenFactory",
        "label": "factoryManager",
        "offset": 0,
        "slot": "2",
        "type": "t_address"
      },
      {
        "astId": 738,
        "contract": "src/factories/LiquidityGeneratorTokenFactory.sol:LiquidityGeneratorTokenFactory",
        "label": "implementation",
        "offset": 0,
        "slot": "3",
        "type": "t_address"
      },
      {
        "astId": 740,
        "contract": "src/factories/LiquidityGeneratorTokenFactory.sol:LiquidityGeneratorTokenFactory",
        "label": "feeTo",
        "offset": 0,
        "slot": "4",
        "type": "t_address"
      },
      {
        "astId": 742,
        "contract": "src/factories/LiquidityGeneratorTokenFactory.sol:LiquidityGeneratorTokenFactory",
        "label": "flatFee",
        "offset": 0,
        "slot": "5",
        "type": "t_uint256"
      }
    ],
    "types": {
      "t_address": {
        "encoding": "inplace",
        "label": "address",
        "numberOfBytes": "20"
      },
      "t_uint256": {
        "encoding": "inplace",
        "label": "uint256",
        "numberOfBytes": "32"
      }
    }
  }
}