{
  "address": "0xfcDB4564c18A9134002b9771816092C9693622e3",
  "abi": [
    {
      "anonymous": false,
      "inputs": [
        {
          "indexed": true,
          "internalType": "address",
          "name": "previousOwner",
          "type": "address"
        },
        {
          "indexed": true,
          "internalType": "address",
          "name": "newOwner",
          "type": "address"
        }
      ],
      "name": "OwnershipTransferred",
      "type": "event"
    },
    {
      "inputs": [
        {
          "internalType": "address[]",
          "name": "factories",
          "type": "address[]"
        }
      ],
      "name": "addTokenFactories",
      "outputs": [],
      "stateMutability": "nonpayable",
      "type": "function"
    },
    {
      "inputs": [
        {
          "internalType": "address",
          "name": "factory",
          "type": "address"
        }
      ],
      "name": "addTokenFactory",
      "outputs": [],
      "stateMutability": "nonpayable",
      "type": "function"
    },
    {
      "inputs": [
        {
          "internalType": "address",
          "name": "owner",
          "type": "address"
        },
        {
          "internalType": "address",
          "name": "token",
          "type": "address"
        },
        {
          "internalType": "uint8",
          "name": "tokenType",
          "type": "uint8"
        }
      ],
      "name": "assignTokensToOwner",
      "outputs": [],
      "stateMutability": "nonpayable",
      "type": "function"
    },
    {
      "inputs": [
        {
          "internalType": "address",
          "name": "owner",
          "type": "address"
        }
      ],
      "name": "getAllTokens",
      "outputs": [
        {
          "internalType": "address[]",
          "name": "",
          "type": "address[]"
        },
        {
          "internalType": "uint8[]",
          "name": "",
          "type": "uint8[]"
        }
      ],
      "stateMutability": "view",
      "type": "function"
    },
    {
      "inputs": [],
      "name": "getAllowedFactories",
      "outputs": [
        {
          "internalType": "address[]",
          "name": "",
          "type": "address[]"
        }
      ],
      "stateMutability": "view",
      "type": "function"
    },
    {
      "inputs": [
        {
          "internalType": "address",
          "name": "owner",
          "type": "address"
        },
        {
          "internalType": "uint256",
          "name": "index",
          "type": "uint256"
        }
      ],
      "name": "getToken",
      "outputs": [
        {
          "internalType": "address",
          "name": "",
          "type": "address"
        },
        {
          "internalType": "uint8",
          "name": "",
          "type": "uint8"
        }
      ],
      "stateMutability": "view",
      "type": "function"
    },
    {
      "inputs": [
        {
          "internalType": "address",
          "name": "owner",
          "type": "address"
        },
        {
          "internalType": "uint8",
          "name": "tokenType",
          "type": "uint8"
        }
      ],
      "name": "getTokensForType",
      "outputs": [
        {
          "internalType": "address[]",
          "name": "",
          "type": "address[]"
        }
      ],
      "stateMutability": "view",
      "type": "function"
    },
    {
      "inputs": [
        {
          "internalType": "address",
          "name": "token",
          "type": "address"
        }
      ],
      "name": "isTokenGenerated",
      "outputs": [
        {
          "internalType": "bool",
          "name": "",
          "type": "bool"
        }
      ],
      "stateMutability": "view",
      "type": "function"
    },
    {
      "inputs": [],
      "name": "owner",
      "outputs": [
        {
          "internalType": "address",
          "name": "",
          "type": "address"
        }
      ],
      "stateMutability": "view",
      "type": "function"
    },
    {
      "inputs": [
        {
          "internalType": "address",
          "name": "factory",
          "type": "address"
        }
      ],
      "name": "removeTokenFactory",
      "outputs": [],
      "stateMutability": "nonpayable",
      "type": "function"
    },
    {
      "inputs": [],
      "name": "renounceOwnership",
      "outputs": [],
      "stateMutability": "nonpayable",
      "type": "function"
    },
    {
      "inputs": [
        {
          "internalType": "address",
          "name": "newOwner",
          "type": "address"
        }
      ],
      "name": "transferOwnership",
      "outputs": [],
      "stateMutability": "nonpayable",
      "type": "function"
    }
  ],
  "transactionHash": "0x95ca13b2452990772f1fcea4e048df3590e44665681c14a95bc90c3323cd1e9b",
  "args": [],
  "numDeployments": 1,
  "solcInputHash": "b5b95feffdbf8db097e34a15e4db2e94",
  "bytecode": "0x608060405234801561001057600080fd5b5061002d61002261003260201b60201c565b61003a60201b60201c565b6100fe565b600033905090565b60008060009054906101000a900473ffffffffffffffffffffffffffffffffffffffff169050816000806101000a81548173ffffffffffffffffffffffffffffffffffffffff021916908373ffffffffffffffffffffffffffffffffffffffff1602179055508173ffffffffffffffffffffffffffffffffffffffff168173ffffffffffffffffffffffffffffffffffffffff167f8be0079c531659141344cd1fd0a4f28419497f9722a3daafe3b4186f6b6457e060405160405180910390a35050565b611feb8061010d6000396000f3fe608060405234801561001057600080fd5b50600436106100b45760003560e01c80635da926ca116100715780635da926ca146101b5578063715018a6146101d15780638da5cb5b146101db578063937529ef146101f95780639ce1936514610215578063f2fde38b14610231576100b4565b8063178b6de6146100b957806327db6e64146100ea57806328220dea146101085780633136aef71461012457806343d7cce6146101545780634c1a7e7514610185575b600080fd5b6100d360048036038101906100ce9190611834565b61024d565b6040516100e1929190611b8e565b60405180910390f35b6100f26105a1565b6040516100ff9190611b6c565b60405180910390f35b610122600480360381019061011d919061185d565b6106d2565b005b61013e600480360381019061013991906118e8565b6109dd565b60405161014b9190611b6c565b60405180910390f35b61016e600480360381019061016991906118ac565b610dae565b60405161017c929190611b43565b60405180910390f35b61019f600480360381019061019a9190611834565b610f4a565b6040516101ac9190611bc5565b60405180910390f35b6101cf60048036038101906101ca9190611924565b610fa0565b005b6101d9611088565b005b6101e3611110565b6040516101f09190611b28565b60405180910390f35b610213600480360381019061020e9190611834565b611139565b005b61022f600480360381019061022a9190611834565b6111cd565b005b61024b60048036038101906102469190611834565b611261565b005b6060806000600360008573ffffffffffffffffffffffffffffffffffffffff1673ffffffffffffffffffffffffffffffffffffffff16815260200190815260200160002080549050905060008167ffffffffffffffff8111156102d9577f4e487b7100000000000000000000000000000000000000000000000000000000600052604160045260246000fd5b6040519080825280602002602001820160405280156103075781602001602082028036833780820191505090505b50905060008267ffffffffffffffff81111561034c577f4e487b7100000000000000000000000000000000000000000000000000000000600052604160045260246000fd5b60405190808252806020026020018201604052801561037a5781602001602082028036833780820191505090505b50905060005b8381101561059257600360008873ffffffffffffffffffffffffffffffffffffffff1673ffffffffffffffffffffffffffffffffffffffff16815260200190815260200160002081815481106103ff577f4e487b7100000000000000000000000000000000000000000000000000000000600052603260045260246000fd5b9060005260206000200160000160019054906101000a900473ffffffffffffffffffffffffffffffffffffffff16838281518110610466577f4e487b7100000000000000000000000000000000000000000000000000000000600052603260045260246000fd5b602002602001019073ffffffffffffffffffffffffffffffffffffffff16908173ffffffffffffffffffffffffffffffffffffffff1681525050600360008873ffffffffffffffffffffffffffffffffffffffff1673ffffffffffffffffffffffffffffffffffffffff1681526020019081526020016000208181548110610517577f4e487b7100000000000000000000000000000000000000000000000000000000600052603260045260246000fd5b9060005260206000200160000160009054906101000a900460ff1682828151811061056b577f4e487b7100000000000000000000000000000000000000000000000000000000600052603260045260246000fd5b602002602001019060ff16908160ff1681525050808061058a90611dee565b915050610380565b50818194509450505050915091565b606060006105af6001611359565b905060008167ffffffffffffffff8111156105f3577f4e487b7100000000000000000000000000000000000000000000000000000000600052604160045260246000fd5b6040519080825280602002602001820160405280156106215781602001602082028036833780820191505090505b50905060005b828110156106c95761064381600161136e90919063ffffffff16565b82828151811061067c577f4e487b7100000000000000000000000000000000000000000000000000000000600052603260045260246000fd5b602002602001019073ffffffffffffffffffffffffffffffffffffffff16908173ffffffffffffffffffffffffffffffffffffffff168152505080806106c190611dee565b915050610627565b50809250505090565b6106e633600161138890919063ffffffff16565b610725576040517f08c379a000000000000000000000000000000000000000000000000000000000815260040161071c90611c40565b60405180910390fd5b600460008473ffffffffffffffffffffffffffffffffffffffff1673ffffffffffffffffffffffffffffffffffffffff16815260200190815260200160002060008373ffffffffffffffffffffffffffffffffffffffff1673ffffffffffffffffffffffffffffffffffffffff16815260200190815260200160002060009054906101000a900460ff16156107ef576040517f08c379a00000000000000000000000000000000000000000000000000000000081526004016107e690611c00565b60405180910390fd5b600360008473ffffffffffffffffffffffffffffffffffffffff1673ffffffffffffffffffffffffffffffffffffffff16815260200190815260200160002060405180604001604052808360ff1681526020018473ffffffffffffffffffffffffffffffffffffffff168152509080600181540180825580915050600190039060005260206000200160009091909190915060008201518160000160006101000a81548160ff021916908360ff16021790555060208201518160000160016101000a81548173ffffffffffffffffffffffffffffffffffffffff021916908373ffffffffffffffffffffffffffffffffffffffff16021790555050506001600460008573ffffffffffffffffffffffffffffffffffffffff1673ffffffffffffffffffffffffffffffffffffffff16815260200190815260200160002060008473ffffffffffffffffffffffffffffffffffffffff1673ffffffffffffffffffffffffffffffffffffffff16815260200190815260200160002060006101000a81548160ff0219169083151502179055506001600560008473ffffffffffffffffffffffffffffffffffffffff1673ffffffffffffffffffffffffffffffffffffffff16815260200190815260200160002060006101000a81548160ff021916908315150217905550505050565b60606000805b600360008673ffffffffffffffffffffffffffffffffffffffff1673ffffffffffffffffffffffffffffffffffffffff16815260200190815260200160002080549050811015610aee578360ff16600360008773ffffffffffffffffffffffffffffffffffffffff1673ffffffffffffffffffffffffffffffffffffffff1681526020019081526020016000208281548110610aa8577f4e487b7100000000000000000000000000000000000000000000000000000000600052603260045260246000fd5b9060005260206000200160000160009054906101000a900460ff1660ff161415610adb578180610ad790611dee565b9250505b8080610ae690611dee565b9150506109e3565b5060008167ffffffffffffffff811115610b31577f4e487b7100000000000000000000000000000000000000000000000000000000600052604160045260246000fd5b604051908082528060200260200182016040528015610b5f5781602001602082028036833780820191505090505b5090506000821415610b75578092505050610da8565b600080600090505b600360008873ffffffffffffffffffffffffffffffffffffffff1673ffffffffffffffffffffffffffffffffffffffff16815260200190815260200160002080549050811015610da0578560ff16600360008973ffffffffffffffffffffffffffffffffffffffff1673ffffffffffffffffffffffffffffffffffffffff1681526020019081526020016000208281548110610c42577f4e487b7100000000000000000000000000000000000000000000000000000000600052603260045260246000fd5b9060005260206000200160000160009054906101000a900460ff1660ff161415610d8d57600360008873ffffffffffffffffffffffffffffffffffffffff1673ffffffffffffffffffffffffffffffffffffffff1681526020019081526020016000208181548110610cdd577f4e487b7100000000000000000000000000000000000000000000000000000000600052603260045260246000fd5b9060005260206000200160000160019054906101000a900473ffffffffffffffffffffffffffffffffffffffff16838381518110610d44577f4e487b7100000000000000000000000000000000000000000000000000000000600052603260045260246000fd5b602002602001019073ffffffffffffffffffffffffffffffffffffffff16908173ffffffffffffffffffffffffffffffffffffffff16815250508180610d8990611dee565b9250505b8080610d9890611dee565b915050610b7d565b508193505050505b92915050565b600080600360008573ffffffffffffffffffffffffffffffffffffffff1673ffffffffffffffffffffffffffffffffffffffff16815260200190815260200160002080549050831115610e075760008091509150610f43565b600360008573ffffffffffffffffffffffffffffffffffffffff1673ffffffffffffffffffffffffffffffffffffffff1681526020019081526020016000208381548110610e7e577f4e487b7100000000000000000000000000000000000000000000000000000000600052603260045260246000fd5b9060005260206000200160000160019054906101000a900473ffffffffffffffffffffffffffffffffffffffff16600360008673ffffffffffffffffffffffffffffffffffffffff1673ffffffffffffffffffffffffffffffffffffffff1681526020019081526020016000208481548110610f23577f4e487b7100000000000000000000000000000000000000000000000000000000600052603260045260246000fd5b9060005260206000200160000160009054906101000a900460ff16915091505b9250929050565b6000600560008373ffffffffffffffffffffffffffffffffffffffff1673ffffffffffffffffffffffffffffffffffffffff16815260200190815260200160002060009054906101000a900460ff169050919050565b610fa86113b8565b73ffffffffffffffffffffffffffffffffffffffff16610fc6611110565b73ffffffffffffffffffffffffffffffffffffffff161461101c576040517f08c379a000000000000000000000000000000000000000000000000000000000815260040161101390611c20565b60405180910390fd5b60005b815181101561108457611071828281518110611064577f4e487b7100000000000000000000000000000000000000000000000000000000600052603260045260246000fd5b60200260200101516111cd565b808061107c90611dee565b91505061101f565b5050565b6110906113b8565b73ffffffffffffffffffffffffffffffffffffffff166110ae611110565b73ffffffffffffffffffffffffffffffffffffffff1614611104576040517f08c379a00000000000000000000000000000000000000000000000000000000081526004016110fb90611c20565b60405180910390fd5b61110e60006113c0565b565b60008060009054906101000a900473ffffffffffffffffffffffffffffffffffffffff16905090565b6111416113b8565b73ffffffffffffffffffffffffffffffffffffffff1661115f611110565b73ffffffffffffffffffffffffffffffffffffffff16146111b5576040517f08c379a00000000000000000000000000000000000000000000000000000000081526004016111ac90611c20565b60405180910390fd5b6111c981600161148490919063ffffffff16565b5050565b6111d56113b8565b73ffffffffffffffffffffffffffffffffffffffff166111f3611110565b73ffffffffffffffffffffffffffffffffffffffff1614611249576040517f08c379a000000000000000000000000000000000000000000000000000000000815260040161124090611c20565b60405180910390fd5b61125d8160016114b490919063ffffffff16565b5050565b6112696113b8565b73ffffffffffffffffffffffffffffffffffffffff16611287611110565b73ffffffffffffffffffffffffffffffffffffffff16146112dd576040517f08c379a00000000000000000000000000000000000000000000000000000000081526004016112d490611c20565b60405180910390fd5b600073ffffffffffffffffffffffffffffffffffffffff168173ffffffffffffffffffffffffffffffffffffffff16141561134d576040517f08c379a000000000000000000000000000000000000000000000000000000000815260040161134490611be0565b60405180910390fd5b611356816113c0565b50565b6000611367826000016114e4565b9050919050565b600061137d83600001836114f5565b60001c905092915050565b60006113b0836000018373ffffffffffffffffffffffffffffffffffffffff1660001b611546565b905092915050565b600033905090565b60008060009054906101000a900473ffffffffffffffffffffffffffffffffffffffff169050816000806101000a81548173ffffffffffffffffffffffffffffffffffffffff021916908373ffffffffffffffffffffffffffffffffffffffff1602179055508173ffffffffffffffffffffffffffffffffffffffff168173ffffffffffffffffffffffffffffffffffffffff167f8be0079c531659141344cd1fd0a4f28419497f9722a3daafe3b4186f6b6457e060405160405180910390a35050565b60006114ac836000018373ffffffffffffffffffffffffffffffffffffffff1660001b611569565b905092915050565b60006114dc836000018373ffffffffffffffffffffffffffffffffffffffff1660001b6116ef565b905092915050565b600081600001805490509050919050565b6000826000018281548110611533577f4e487b7100000000000000000000000000000000000000000000000000000000600052603260045260246000fd5b9060005260206000200154905092915050565b600080836001016000848152602001908152602001600020541415905092915050565b600080836001016000848152602001908152602001600020549050600081146116e357600060018261159b9190611d34565b90506000600186600001805490506115b39190611d34565b905081811461166e5760008660000182815481106115fa577f4e487b7100000000000000000000000000000000000000000000000000000000600052603260045260246000fd5b9060005260206000200154905080876000018481548110611644577f4e487b7100000000000000000000000000000000000000000000000000000000600052603260045260246000fd5b90600052602060002001819055508387600101600083815260200190815260200160002081905550505b856000018054806116a8577f4e487b7100000000000000000000000000000000000000000000000000000000600052603160045260246000fd5b6001900381819060005260206000200160009055905585600101600086815260200190815260200160002060009055600193505050506116e9565b60009150505b92915050565b60006116fb8383611546565b611754578260000182908060018154018082558091505060019003906000526020600020016000909190919091505582600001805490508360010160008481526020019081526020016000208190555060019050611759565b600090505b92915050565b600061177261176d84611c85565b611c60565b9050808382526020820190508285602086028201111561179157600080fd5b60005b858110156117c157816117a788826117cb565b845260208401935060208301925050600181019050611794565b5050509392505050565b6000813590506117da81611f70565b92915050565b600082601f8301126117f157600080fd5b813561180184826020860161175f565b91505092915050565b60008135905061181981611f87565b92915050565b60008135905061182e81611f9e565b92915050565b60006020828403121561184657600080fd5b6000611854848285016117cb565b91505092915050565b60008060006060848603121561187257600080fd5b6000611880868287016117cb565b9350506020611891868287016117cb565b92505060406118a28682870161181f565b9150509250925092565b600080604083850312156118bf57600080fd5b60006118cd858286016117cb565b92505060206118de8582860161180a565b9150509250929050565b600080604083850312156118fb57600080fd5b6000611909858286016117cb565b925050602061191a8582860161181f565b9150509250929050565b60006020828403121561193657600080fd5b600082013567ffffffffffffffff81111561195057600080fd5b61195c848285016117e0565b91505092915050565b60006119718383611995565b60208301905092915050565b60006119898383611b0a565b60208301905092915050565b61199e81611d68565b82525050565b6119ad81611d68565b82525050565b60006119be82611cd1565b6119c88185611d01565b93506119d383611cb1565b8060005b83811015611a045781516119eb8882611965565b97506119f683611ce7565b9250506001810190506119d7565b5085935050505092915050565b6000611a1c82611cdc565b611a268185611d12565b9350611a3183611cc1565b8060005b83811015611a62578151611a49888261197d565b9750611a5483611cf4565b925050600181019050611a35565b5085935050505092915050565b611a7881611d7a565b82525050565b6000611a8b602683611d23565b9150611a9682611ea6565b604082019050919050565b6000611aae601483611d23565b9150611ab982611ef5565b602082019050919050565b6000611ad1602083611d23565b9150611adc82611f1e565b602082019050919050565b6000611af4601983611d23565b9150611aff82611f47565b602082019050919050565b611b1381611db0565b82525050565b611b2281611db0565b82525050565b6000602082019050611b3d60008301846119a4565b92915050565b6000604082019050611b5860008301856119a4565b611b656020830184611b19565b9392505050565b60006020820190508181036000830152611b8681846119b3565b905092915050565b60006040820190508181036000830152611ba881856119b3565b90508181036020830152611bbc8184611a11565b90509392505050565b6000602082019050611bda6000830184611a6f565b92915050565b60006020820190508181036000830152611bf981611a7e565b9050919050565b60006020820190508181036000830152611c1981611aa1565b9050919050565b60006020820190508181036000830152611c3981611ac4565b9050919050565b60006020820190508181036000830152611c5981611ae7565b9050919050565b6000611c6a611c7b565b9050611c768282611dbd565b919050565b6000604051905090565b600067ffffffffffffffff821115611ca057611c9f611e66565b5b602082029050602081019050919050565b6000819050602082019050919050565b6000819050602082019050919050565b600081519050919050565b600081519050919050565b6000602082019050919050565b6000602082019050919050565b600082825260208201905092915050565b600082825260208201905092915050565b600082825260208201905092915050565b6000611d3f82611da6565b9150611d4a83611da6565b925082821015611d5d57611d5c611e37565b5b828203905092915050565b6000611d7382611d86565b9050919050565b60008115159050919050565b600073ffffffffffffffffffffffffffffffffffffffff82169050919050565b6000819050919050565b600060ff82169050919050565b611dc682611e95565b810181811067ffffffffffffffff82111715611de557611de4611e66565b5b80604052505050565b6000611df982611da6565b91507fffffffffffffffffffffffffffffffffffffffffffffffffffffffffffffffff821415611e2c57611e2b611e37565b5b600182019050919050565b7f4e487b7100000000000000000000000000000000000000000000000000000000600052601160045260246000fd5b7f4e487b7100000000000000000000000000000000000000000000000000000000600052604160045260246000fd5b6000601f19601f8301169050919050565b7f4f776e61626c653a206e6577206f776e657220697320746865207a65726f206160008201527f6464726573730000000000000000000000000000000000000000000000000000602082015250565b7f546f6b656e20616c726561647920657869737473000000000000000000000000600082015250565b7f4f776e61626c653a2063616c6c6572206973206e6f7420746865206f776e6572600082015250565b7f4e6f7420612077686974656c697374656420666163746f727900000000000000600082015250565b611f7981611d68565b8114611f8457600080fd5b50565b611f9081611da6565b8114611f9b57600080fd5b50565b611fa781611db0565b8114611fb257600080fd5b5056fea2646970667358221220ba4dcb52f69b666d130863209d22859688fc2d92da77aca72445664c57bff7c964736f6c63430008010033",
  "devdoc": {
    "kind": "dev",
    "methods": {
      "owner()": {
        "details": "Returns the address of the current owner."
      },
      "renounceOwnership()": {
        "details": "Leaves the contract without owner. It will not be possible to call `onlyOwner` functions anymore. Can only be called by the current owner. NOTE: Renouncing ownership will leave the contract without an owner, thereby removing any functionality that is only available to the owner."
      },
      "transferOwnership(address)": {
        "details": "Transfers ownership of the contract to a new account (`newOwner`). Can only be called by the current owner."
      }
    },
    "version": 1
  },
  "userdoc": {
    "kind": "user",
    "methods": {},
    "version": 1
  },
  "storageLayout": {
    "storage": [
      {
        "astId": 7,
        "contract": "src/factories/TokenFactoryManager.sol:TokenFactoryManager",
        "label": "_owner",
        "offset": 0,
        "slot": "0",
        "type": "t_address"
      },
      {
        "astId": 1802,
        "contract": "src/factories/TokenFactoryManager.sol:TokenFactoryManager",
        "label": "tokenFactories",
        "offset": 0,
        "slot": "1",
        "type": "t_struct(AddressSet)1243_storage"
      },
      {
        "astId": 1808,
        "contract": "src/factories/TokenFactoryManager.sol:TokenFactoryManager",
        "label": "tokensOf",
        "offset": 0,
        "slot": "3",
        "type": "t_mapping(t_address,t_array(t_struct(Token)1799_storage)dyn_storage)"
      },
      {
        "astId": 1814,
        "contract": "src/factories/TokenFactoryManager.sol:TokenFactoryManager",
        "label": "hasToken",
        "offset": 0,
        "slot": "4",
        "type": "t_mapping(t_address,t_mapping(t_address,t_bool))"
      },
      {
        "astId": 1818,
        "contract": "src/factories/TokenFactoryManager.sol:TokenFactoryManager",
        "label": "isGenerated",
        "offset": 0,
        "slot": "5",
        "type": "t_mapping(t_address,t_bool)"
      }
    ],
    "types": {
      "t_address": {
        "encoding": "inplace",
        "label": "address",
        "numberOfBytes": "20"
      },
      "t_array(t_bytes32)dyn_storage": {
        "base": "t_bytes32",
        "encoding": "dynamic_array",
        "label": "bytes32[]",
        "numberOfBytes": "32"
      },
      "t_array(t_struct(Token)1799_storage)dyn_storage": {
        "base": "t_struct(Token)1799_storage",
        "encoding": "dynamic_array",
        "label": "struct TokenFactoryManager.Token[]",
        "numberOfBytes": "32"
      },
      "t_bool": {
        "encoding": "inplace",
        "label": "bool",
        "numberOfBytes": "1"
      },
      "t_bytes32": {
        "encoding": "inplace",
        "label": "bytes32",
        "numberOfBytes": "32"
      },
      "t_mapping(t_address,t_array(t_struct(Token)1799_storage)dyn_storage)": {
        "encoding": "mapping",
        "key": "t_address",
        "label": "mapping(address => struct TokenFactoryManager.Token[])",
        "numberOfBytes": "32",
        "value": "t_array(t_struct(Token)1799_storage)dyn_storage"
      },
      "t_mapping(t_address,t_bool)": {
        "encoding": "mapping",
        "key": "t_address",
        "label": "mapping(address => bool)",
        "numberOfBytes": "32",
        "value": "t_bool"
      },
      "t_mapping(t_address,t_mapping(t_address,t_bool))": {
        "encoding": "mapping",
        "key": "t_address",
        "label": "mapping(address => mapping(address => bool))",
        "numberOfBytes": "32",
        "value": "t_mapping(t_address,t_bool)"
      },
      "t_mapping(t_bytes32,t_uint256)": {
        "encoding": "mapping",
        "key": "t_bytes32",
        "label": "mapping(bytes32 => uint256)",
        "numberOfBytes": "32",
        "value": "t_uint256"
      },
      "t_struct(AddressSet)1243_storage": {
        "encoding": "inplace",
        "label": "struct EnumerableSet.AddressSet",
        "members": [
          {
            "astId": 1242,
            "contract": "src/factories/TokenFactoryManager.sol:TokenFactoryManager",
            "label": "_inner",
            "offset": 0,
            "slot": "0",
            "type": "t_struct(Set)942_storage"
          }
        ],
        "numberOfBytes": "64"
      },
      "t_struct(Set)942_storage": {
        "encoding": "inplace",
        "label": "struct EnumerableSet.Set",
        "members": [
          {
            "astId": 937,
            "contract": "src/factories/TokenFactoryManager.sol:TokenFactoryManager",
            "label": "_values",
            "offset": 0,
            "slot": "0",
            "type": "t_array(t_bytes32)dyn_storage"
          },
          {
            "astId": 941,
            "contract": "src/factories/TokenFactoryManager.sol:TokenFactoryManager",
            "label": "_indexes",
            "offset": 0,
            "slot": "1",
            "type": "t_mapping(t_bytes32,t_uint256)"
          }
        ],
        "numberOfBytes": "64"
      },
      "t_struct(Token)1799_storage": {
        "encoding": "inplace",
        "label": "struct TokenFactoryManager.Token",
        "members": [
          {
            "astId": 1796,
            "contract": "src/factories/TokenFactoryManager.sol:TokenFactoryManager",
            "label": "tokenType",
            "offset": 0,
            "slot": "0",
            "type": "t_uint8"
          },
          {
            "astId": 1798,
            "contract": "src/factories/TokenFactoryManager.sol:TokenFactoryManager",
            "label": "tokenAddress",
            "offset": 1,
            "slot": "0",
            "type": "t_address"
          }
        ],
        "numberOfBytes": "32"
      },
      "t_uint256": {
        "encoding": "inplace",
        "label": "uint256",
        "numberOfBytes": "32"
      },
      "t_uint8": {
        "encoding": "inplace",
        "label": "uint8",
        "numberOfBytes": "1"
      }
    }
  }
}