{
  "address": "0x02b0B4EFd909240FCB2Eb5FAe060dC60D112E3a4",
  "abi": [
    {
      "anonymous": false,
      "inputs": [
        {
          "indexed": true,
          "internalType": "address",
          "name": "owner",
          "type": "address"
        },
        {
          "indexed": true,
          "internalType": "address",
          "name": "spender",
          "type": "address"
        },
        {
          "indexed": false,
          "internalType": "uint256",
          "name": "value",
          "type": "uint256"
        }
      ],
      "name": "Approval",
      "type": "event"
    },
    {
      "anonymous": false,
      "inputs": [
        {
          "indexed": false,
          "internalType": "uint256",
          "name": "minTokensBeforeSwap",
          "type": "uint256"
        }
      ],
      "name": "MinTokensBeforeSwapUpdated",
      "type": "event"
    },
    {
      "anonymous": false,
      "inputs": [
        {
          "indexed": true,
          "internalType": "address",
          "name": "previousOwner",
          "type": "address"
        },
        {
          "indexed": true,
          "internalType": "address",
          "name": "newOwner",
          "type": "address"
        }
      ],
      "name": "OwnershipTransferred",
      "type": "event"
    },
    {
      "anonymous": false,
      "inputs": [
        {
          "indexed": false,
          "internalType": "uint256",
          "name": "tokensSwapped",
          "type": "uint256"
        },
        {
          "indexed": false,
          "internalType": "uint256",
          "name": "ethReceived",
          "type": "uint256"
        },
        {
          "indexed": false,
          "internalType": "uint256",
          "name": "tokensIntoLiqudity",
          "type": "uint256"
        }
      ],
      "name": "SwapAndLiquify",
      "type": "event"
    },
    {
      "anonymous": false,
      "inputs": [
        {
          "indexed": false,
          "internalType": "bool",
          "name": "enabled",
          "type": "bool"
        }
      ],
      "name": "SwapAndLiquifyEnabledUpdated",
      "type": "event"
    },
    {
      "anonymous": false,
      "inputs": [
        {
          "indexed": true,
          "internalType": "address",
          "name": "owner",
          "type": "address"
        },
        {
          "indexed": true,
          "internalType": "address",
          "name": "token",
          "type": "address"
        },
        {
          "indexed": false,
          "internalType": "enum TokenType",
          "name": "tokenType",
          "type": "uint8"
        },
        {
          "indexed": false,
          "internalType": "uint256",
          "name": "version",
          "type": "uint256"
        }
      ],
      "name": "TokenCreated",
      "type": "event"
    },
    {
      "anonymous": false,
      "inputs": [
        {
          "indexed": true,
          "internalType": "address",
          "name": "from",
          "type": "address"
        },
        {
          "indexed": true,
          "internalType": "address",
          "name": "to",
          "type": "address"
        },
        {
          "indexed": false,
          "internalType": "uint256",
          "name": "value",
          "type": "uint256"
        }
      ],
      "name": "Transfer",
      "type": "event"
    },
    {
      "inputs": [
        {
          "internalType": "uint256",
          "name": "tokenAmount_",
          "type": "uint256"
        }
      ],
      "name": "AddLiquidityBuildIn",
      "outputs": [],
      "stateMutability": "payable",
      "type": "function"
    },
    {
      "inputs": [],
      "name": "VERSION",
      "outputs": [
        {
          "internalType": "uint256",
          "name": "",
          "type": "uint256"
        }
      ],
      "stateMutability": "view",
      "type": "function"
    },
    {
      "inputs": [],
      "name": "_charityAddress",
      "outputs": [
        {
          "internalType": "address",
          "name": "",
          "type": "address"
        }
      ],
      "stateMutability": "view",
      "type": "function"
    },
    {
      "inputs": [],
      "name": "_charityFee",
      "outputs": [
        {
          "internalType": "uint256",
          "name": "",
          "type": "uint256"
        }
      ],
      "stateMutability": "view",
      "type": "function"
    },
    {
      "inputs": [],
      "name": "_liquidityFee",
      "outputs": [
        {
          "internalType": "uint256",
          "name": "",
          "type": "uint256"
        }
      ],
      "stateMutability": "view",
      "type": "function"
    },
    {
      "inputs": [],
      "name": "_taxFee",
      "outputs": [
        {
          "internalType": "uint256",
          "name": "",
          "type": "uint256"
        }
      ],
      "stateMutability": "view",
      "type": "function"
    },
    {
      "inputs": [
        {
          "internalType": "address",
          "name": "patron",
          "type": "address"
        },
        {
          "internalType": "address",
          "name": "spender",
          "type": "address"
        }
      ],
      "name": "allowance",
      "outputs": [
        {
          "internalType": "uint256",
          "name": "",
          "type": "uint256"
        }
      ],
      "stateMutability": "view",
      "type": "function"
    },
    {
      "inputs": [
        {
          "internalType": "address",
          "name": "spender",
          "type": "address"
        },
        {
          "internalType": "uint256",
          "name": "amount",
          "type": "uint256"
        }
      ],
      "name": "approve",
      "outputs": [
        {
          "internalType": "bool",
          "name": "",
          "type": "bool"
        }
      ],
      "stateMutability": "nonpayable",
      "type": "function"
    },
    {
      "inputs": [
        {
          "internalType": "address",
          "name": "account",
          "type": "address"
        }
      ],
      "name": "balanceOf",
      "outputs": [
        {
          "internalType": "uint256",
          "name": "",
          "type": "uint256"
        }
      ],
      "stateMutability": "view",
      "type": "function"
    },
    {
      "inputs": [],
      "name": "decimals",
      "outputs": [
        {
          "internalType": "uint8",
          "name": "",
          "type": "uint8"
        }
      ],
      "stateMutability": "view",
      "type": "function"
    },
    {
      "inputs": [
        {
          "internalType": "address",
          "name": "spender",
          "type": "address"
        },
        {
          "internalType": "uint256",
          "name": "subtractedValue",
          "type": "uint256"
        }
      ],
      "name": "decreaseAllowance",
      "outputs": [
        {
          "internalType": "bool",
          "name": "",
          "type": "bool"
        }
      ],
      "stateMutability": "nonpayable",
      "type": "function"
    },
    {
      "inputs": [
        {
          "internalType": "address",
          "name": "account",
          "type": "address"
        }
      ],
      "name": "excludeFromFee",
      "outputs": [],
      "stateMutability": "nonpayable",
      "type": "function"
    },
    {
      "inputs": [
        {
          "internalType": "address",
          "name": "account",
          "type": "address"
        }
      ],
      "name": "excludeFromReward",
      "outputs": [],
      "stateMutability": "nonpayable",
      "type": "function"
    },
    {
      "inputs": [
        {
          "internalType": "address",
          "name": "account",
          "type": "address"
        }
      ],
      "name": "includeInFee",
      "outputs": [],
      "stateMutability": "nonpayable",
      "type": "function"
    },
    {
      "inputs": [
        {
          "internalType": "address",
          "name": "account",
          "type": "address"
        }
      ],
      "name": "includeInReward",
      "outputs": [],
      "stateMutability": "nonpayable",
      "type": "function"
    },
    {
      "inputs": [
        {
          "internalType": "address",
          "name": "spender",
          "type": "address"
        },
        {
          "internalType": "uint256",
          "name": "addedValue",
          "type": "uint256"
        }
      ],
      "name": "increaseAllowance",
      "outputs": [
        {
          "internalType": "bool",
          "name": "",
          "type": "bool"
        }
      ],
      "stateMutability": "nonpayable",
      "type": "function"
    },
    {
      "inputs": [
        {
          "internalType": "address",
          "name": "owner_",
          "type": "address"
        },
        {
          "internalType": "string",
          "name": "name_",
          "type": "string"
        },
        {
          "internalType": "string",
          "name": "symbol_",
          "type": "string"
        },
        {
          "internalType": "uint256",
          "name": "totalSupply_",
          "type": "uint256"
        },
        {
          "internalType": "address",
          "name": "router_",
          "type": "address"
        },
        {
          "internalType": "address",
          "name": "charityAddress_",
          "type": "address"
        },
        {
          "internalType": "uint16",
          "name": "taxFeeBps_",
          "type": "uint16"
        },
        {
          "internalType": "uint16",
          "name": "liquidityFeeBps_",
          "type": "uint16"
        },
        {
          "internalType": "uint16",
          "name": "charityFeeBps_",
          "type": "uint16"
        },
        {
          "internalType": "uint16",
          "name": "maxTxBps_",
          "type": "uint16"
        }
      ],
      "name": "initialize",
      "outputs": [],
      "stateMutability": "payable",
      "type": "function"
    },
    {
      "inputs": [
        {
          "internalType": "address",
          "name": "account",
          "type": "address"
        }
      ],
      "name": "isExcludedFromFee",
      "outputs": [
        {
          "internalType": "bool",
          "name": "",
          "type": "bool"
        }
      ],
      "stateMutability": "view",
      "type": "function"
    },
    {
      "inputs": [
        {
          "internalType": "address",
          "name": "account",
          "type": "address"
        }
      ],
      "name": "isExcludedFromReward",
      "outputs": [
        {
          "internalType": "bool",
          "name": "",
          "type": "bool"
        }
      ],
      "stateMutability": "view",
      "type": "function"
    },
    {
      "inputs": [],
      "name": "name",
      "outputs": [
        {
          "internalType": "string",
          "name": "",
          "type": "string"
        }
      ],
      "stateMutability": "view",
      "type": "function"
    },
    {
      "inputs": [],
      "name": "owner",
      "outputs": [
        {
          "internalType": "address",
          "name": "",
          "type": "address"
        }
      ],
      "stateMutability": "view",
      "type": "function"
    },
    {
      "inputs": [
        {
          "internalType": "uint256",
          "name": "tAmount",
          "type": "uint256"
        },
        {
          "internalType": "bool",
          "name": "deductTransferFee",
          "type": "bool"
        }
      ],
      "name": "reflectionFromToken",
      "outputs": [
        {
          "internalType": "uint256",
          "name": "",
          "type": "uint256"
        }
      ],
      "stateMutability": "view",
      "type": "function"
    },
    {
      "inputs": [],
      "name": "renounceOwnership",
      "outputs": [],
      "stateMutability": "nonpayable",
      "type": "function"
    },
    {
      "inputs": [
        {
          "internalType": "uint256",
          "name": "liquidityFeeBps",
          "type": "uint256"
        }
      ],
      "name": "setLiquidityFeePercent",
      "outputs": [],
      "stateMutability": "nonpayable",
      "type": "function"
    },
    {
      "inputs": [
        {
          "internalType": "bool",
          "name": "_enabled",
          "type": "bool"
        }
      ],
      "name": "setSwapAndLiquifyEnabled",
      "outputs": [],
      "stateMutability": "nonpayable",
      "type": "function"
    },
    {
      "inputs": [
        {
          "internalType": "uint256",
          "name": "taxFeeBps",
          "type": "uint256"
        }
      ],
      "name": "setTaxFeePercent",
      "outputs": [],
      "stateMutability": "nonpayable",
      "type": "function"
    },
    {
      "inputs": [],
      "name": "swapAndLiquifyEnabled",
      "outputs": [
        {
          "internalType": "bool",
          "name": "",
          "type": "bool"
        }
      ],
      "stateMutability": "view",
      "type": "function"
    },
    {
      "inputs": [],
      "name": "symbol",
      "outputs": [
        {
          "internalType": "string",
          "name": "",
          "type": "string"
        }
      ],
      "stateMutability": "view",
      "type": "function"
    },
    {
      "inputs": [
        {
          "internalType": "uint256",
          "name": "rAmount",
          "type": "uint256"
        }
      ],
      "name": "tokenFromReflection",
      "outputs": [
        {
          "internalType": "uint256",
          "name": "",
          "type": "uint256"
        }
      ],
      "stateMutability": "view",
      "type": "function"
    },
    {
      "inputs": [],
      "name": "totalFees",
      "outputs": [
        {
          "internalType": "uint256",
          "name": "",
          "type": "uint256"
        }
      ],
      "stateMutability": "view",
      "type": "function"
    },
    {
      "inputs": [],
      "name": "totalSupply",
      "outputs": [
        {
          "internalType": "uint256",
          "name": "",
          "type": "uint256"
        }
      ],
      "stateMutability": "view",
      "type": "function"
    },
    {
      "inputs": [
        {
          "internalType": "address",
          "name": "recipient",
          "type": "address"
        },
        {
          "internalType": "uint256",
          "name": "amount",
          "type": "uint256"
        }
      ],
      "name": "transfer",
      "outputs": [
        {
          "internalType": "bool",
          "name": "",
          "type": "bool"
        }
      ],
      "stateMutability": "nonpayable",
      "type": "function"
    },
    {
      "inputs": [
        {
          "internalType": "address",
          "name": "sender",
          "type": "address"
        },
        {
          "internalType": "address",
          "name": "recipient",
          "type": "address"
        },
        {
          "internalType": "uint256",
          "name": "amount",
          "type": "uint256"
        }
      ],
      "name": "transferFrom",
      "outputs": [
        {
          "internalType": "bool",
          "name": "",
          "type": "bool"
        }
      ],
      "stateMutability": "nonpayable",
      "type": "function"
    },
    {
      "inputs": [
        {
          "internalType": "address",
          "name": "newOwner",
          "type": "address"
        }
      ],
      "name": "transferOwnership",
      "outputs": [],
      "stateMutability": "nonpayable",
      "type": "function"
    },
    {
      "inputs": [],
      "name": "uniswapV2Pair",
      "outputs": [
        {
          "internalType": "address",
          "name": "",
          "type": "address"
        }
      ],
      "stateMutability": "view",
      "type": "function"
    },
    {
      "inputs": [],
      "name": "uniswapV2Router",
      "outputs": [
        {
          "internalType": "contract IUniswapV2Router02",
          "name": "",
          "type": "address"
        }
      ],
      "stateMutability": "view",
      "type": "function"
    },
    {
      "stateMutability": "payable",
      "type": "receive"
    }
  ],
  "transactionHash": "0x456c15468ec3057f4ba4d99c6ae4ebeaf127367e00af62baecf641f2d8bf24da",
  "args": [],
  "numDeployments": 2,
  "solcInputHash": "f8c8a6055b35177723ad7d31d90d2ad8",
  "bytecode": "0x6080604052600d54600e55600f5460105560115460125534801561002257600080fd5b50615f0c80620000336000396000f3fe6080604052600436106102135760003560e01c80634a74bb021161011857806395d89b41116100a0578063c49b9a801161006f578063c49b9a80146107cc578063dd62ed3e146107f5578063ea2f0b3714610832578063f2fde38b1461085b578063ffa1ad74146108845761021a565b806395d89b411461070b578063a457c2d714610736578063a9059cbb14610773578063b00544f6146107b05761021a565b806370a08231116100e757806370a0823114610626578063715018a61461066357806388f820201461067a5780638da5cb5b146106b75780638ee88c53146106e25761021a565b80634a74bb021461056a57806352390c02146105955780635342acb4146105be5780636bc87c3a146105fb5761021a565b80632d8381191161019b5780633b124fe71161016a5780633b124fe71461048357806340f8007a146104ae578063437823ec146104d95780634549b0391461050257806349bd5a5e1461053f5761021a565b80632d838119146103b5578063313ce567146103f25780633685d4191461041d57806339509351146104465761021a565b806313114a9d116101e257806313114a9d146102cc5780631694505e146102f757806318160ddd1461032257806319a8ac9e1461034d57806323b872dd146103785761021a565b8063061c82d01461021f57806306fdde0314610248578063095ea7b3146102735780630b98e9bd146102b05761021a565b3661021a57005b600080fd5b34801561022b57600080fd5b5061024660048036038101906102419190614dc3565b6108af565b005b34801561025457600080fd5b5061025d610996565b60405161026a91906152af565b60405180910390f35b34801561027f57600080fd5b5061029a60048036038101906102959190614d5e565b610a28565b6040516102a79190615250565b60405180910390f35b6102ca60048036038101906102c59190614dc3565b610a46565b005b3480156102d857600080fd5b506102e1610e0f565b6040516102ee9190615511565b60405180910390f35b34801561030357600080fd5b5061030c610e19565b604051610319919061526b565b60405180910390f35b34801561032e57600080fd5b50610337610e3f565b6040516103449190615511565b60405180910390f35b34801561035957600080fd5b50610362610e49565b60405161036f91906151ab565b60405180910390f35b34801561038457600080fd5b5061039f600480360381019061039a9190614c04565b610e6f565b6040516103ac9190615250565b60405180910390f35b3480156103c157600080fd5b506103dc60048036038101906103d79190614dc3565b610f27565b6040516103e99190615511565b60405180910390f35b3480156103fe57600080fd5b50610407610f8e565b60405161041491906155bd565b60405180910390f35b34801561042957600080fd5b50610444600480360381019061043f9190614b76565b610fa5565b005b34801561045257600080fd5b5061046d60048036038101906104689190614d5e565b611373565b60405161047a9190615250565b60405180910390f35b34801561048f57600080fd5b5061049861141f565b6040516104a59190615511565b60405180910390f35b3480156104ba57600080fd5b506104c3611425565b6040516104d09190615511565b60405180910390f35b3480156104e557600080fd5b5061050060048036038101906104fb9190614b76565b61142b565b005b34801561050e57600080fd5b5061052960048036038101906105249190614dec565b611502565b6040516105369190615511565b60405180910390f35b34801561054b57600080fd5b50610554611588565b60405161056191906151ab565b60405180910390f35b34801561057657600080fd5b5061057f6115ae565b60405161058c9190615250565b60405180910390f35b3480156105a157600080fd5b506105bc60048036038101906105b79190614b76565b6115bf565b005b3480156105ca57600080fd5b506105e560048036038101906105e09190614b76565b61185a565b6040516105f29190615250565b60405180910390f35b34801561060757600080fd5b506106106118b0565b60405161061d9190615511565b60405180910390f35b34801561063257600080fd5b5061064d60048036038101906106489190614b76565b6118b6565b60405161065a9190615511565b60405180910390f35b34801561066f57600080fd5b506106786119a1565b005b34801561068657600080fd5b506106a1600480360381019061069c9190614b76565b611a29565b6040516106ae9190615250565b60405180910390f35b3480156106c357600080fd5b506106cc611a7f565b6040516106d991906151ab565b60405180910390f35b3480156106ee57600080fd5b5061070960048036038101906107049190614dc3565b611aa8565b005b34801561071757600080fd5b50610720611b8f565b60405161072d91906152af565b60405180910390f35b34801561074257600080fd5b5061075d60048036038101906107589190614d5e565b611c21565b60405161076a9190615250565b60405180910390f35b34801561077f57600080fd5b5061079a60048036038101906107959190614d5e565b611ccd565b6040516107a79190615250565b60405180910390f35b6107ca60048036038101906107c59190614c53565b611ceb565b005b3480156107d857600080fd5b506107f360048036038101906107ee9190614d9a565b612476565b005b34801561080157600080fd5b5061081c60048036038101906108179190614bc8565b612545565b6040516108299190615511565b60405180910390f35b34801561083e57600080fd5b5061085960048036038101906108549190614b76565b6125cc565b005b34801561086757600080fd5b50610882600480360381019061087d9190614b76565b6126a3565b005b34801561089057600080fd5b5061089961279b565b6040516108a69190615511565b60405180910390f35b6108b76127a0565b73ffffffffffffffffffffffffffffffffffffffff166108d5611a7f565b73ffffffffffffffffffffffffffffffffffffffff161461092b576040517f08c379a000000000000000000000000000000000000000000000000000000000815260040161092290615471565b60405180910390fd5b80600d819055506109c4601154600f54600d5461094891906156bb565b61095291906156bb565b1115610993576040517f08c379a000000000000000000000000000000000000000000000000000000000815260040161098a90615431565b60405180910390fd5b50565b6060600a80546109a5906158d0565b80601f01602080910402602001604051908101604052809291908181526020018280546109d1906158d0565b8015610a1e5780601f106109f357610100808354040283529160200191610a1e565b820191906000526020600020905b815481529060010190602001808311610a0157829003601f168201915b5050505050905090565b6000610a3c610a356127a0565b84846127a8565b6001905092915050565b610a4e6127a0565b73ffffffffffffffffffffffffffffffffffffffff16610a6c611a7f565b73ffffffffffffffffffffffffffffffffffffffff1614610ac2576040517f08c379a0000000000000000000000000000000000000000000000000000000008152600401610ab990615471565b60405180910390fd5b610b0233601360009054906101000a900473ffffffffffffffffffffffffffffffffffffffff16671bc16d674ec8000084610afd91906156bb565b6127a8565b6000610b3033601360009054906101000a900473ffffffffffffffffffffffffffffffffffffffff16612545565b90506000601360009054906101000a900473ffffffffffffffffffffffffffffffffffffffff1673ffffffffffffffffffffffffffffffffffffffff1663ad5c46486040518163ffffffff1660e01b815260040160206040518083038186803b158015610b9c57600080fd5b505afa158015610bb0573d6000803e3d6000fd5b505050506040513d601f19601f82011682018060405250810190610bd49190614b9f565b9050610c156040518060400160405280601981526020017f2d2d416c6c6f77616e6365206f6620726f757465722069733a0000000000000081525083612973565b610c5c6040518060400160405280601981526020017f2d2d2d2d2d2d2d42616c616e63652073656e6465722069733a00000000000000815250610c57336118b6565b612973565b610c9b6040518060400160405280601981526020017f547279696e6720746f20616464206e756d20746f6b656e733a0000000000000081525084612973565b610cfc6040518060400160405280600a81526020017f526f757465722069733a00000000000000000000000000000000000000000000815250601360009054906101000a900473ffffffffffffffffffffffffffffffffffffffff16612a0f565b610d3b6040518060400160405280600881526020017f574554482069733a00000000000000000000000000000000000000000000000081525082612a0f565b601360009054906101000a900473ffffffffffffffffffffffffffffffffffffffff1673ffffffffffffffffffffffffffffffffffffffff1663f305d719343086600080610d87611a7f565b603242610d9491906156bb565b6040518863ffffffff1660e01b8152600401610db5969594939291906151ef565b6060604051808303818588803b158015610dce57600080fd5b505af1158015610de2573d6000803e3d6000fd5b50505050506040513d601f19601f82011682018060405250810190610e079190614e28565b505050505050565b6000600954905090565b601360009054906101000a900473ffffffffffffffffffffffffffffffffffffffff1681565b6000600754905090565b601560009054906101000a900473ffffffffffffffffffffffffffffffffffffffff1681565b6000610e7c848484612aab565b610f1c84610e886127a0565b84600360008973ffffffffffffffffffffffffffffffffffffffff1673ffffffffffffffffffffffffffffffffffffffff1681526020019081526020016000206000610ed26127a0565b73ffffffffffffffffffffffffffffffffffffffff1673ffffffffffffffffffffffffffffffffffffffff16815260200190815260200160002054610f17919061579c565b6127a8565b600190509392505050565b6000600854821115610f6e576040517f08c379a0000000000000000000000000000000000000000000000000000000008152600401610f6590615371565b60405180910390fd5b6000610f78612d48565b90508083610f869190615711565b915050919050565b6000600c60009054906101000a900460ff16905090565b610fad6127a0565b73ffffffffffffffffffffffffffffffffffffffff16610fcb611a7f565b73ffffffffffffffffffffffffffffffffffffffff1614611021576040517f08c379a000000000000000000000000000000000000000000000000000000000815260040161101890615471565b60405180910390fd5b600560008273ffffffffffffffffffffffffffffffffffffffff1673ffffffffffffffffffffffffffffffffffffffff16815260200190815260200160002060009054906101000a900460ff166110ad576040517f08c379a00000000000000000000000000000000000000000000000000000000081526004016110a4906153f1565b60405180910390fd5b60005b60068054905081101561136f578173ffffffffffffffffffffffffffffffffffffffff166006828154811061110e577f4e487b7100000000000000000000000000000000000000000000000000000000600052603260045260246000fd5b9060005260206000200160009054906101000a900473ffffffffffffffffffffffffffffffffffffffff1673ffffffffffffffffffffffffffffffffffffffff16141561135c5760066001600680549050611169919061579c565b815481106111a0577f4e487b7100000000000000000000000000000000000000000000000000000000600052603260045260246000fd5b9060005260206000200160009054906101000a900473ffffffffffffffffffffffffffffffffffffffff1660068281548110611205577f4e487b7100000000000000000000000000000000000000000000000000000000600052603260045260246000fd5b9060005260206000200160006101000a81548173ffffffffffffffffffffffffffffffffffffffff021916908373ffffffffffffffffffffffffffffffffffffffff1602179055506000600260008473ffffffffffffffffffffffffffffffffffffffff1673ffffffffffffffffffffffffffffffffffffffff168152602001908152602001600020819055506000600560008473ffffffffffffffffffffffffffffffffffffffff1673ffffffffffffffffffffffffffffffffffffffff16815260200190815260200160002060006101000a81548160ff0219169083151502179055506006805480611322577f4e487b7100000000000000000000000000000000000000000000000000000000600052603160045260246000fd5b6001900381819060005260206000200160006101000a81549073ffffffffffffffffffffffffffffffffffffffff0219169055905561136f565b808061136790615933565b9150506110b0565b5050565b60006114156113806127a0565b84846003600061138e6127a0565b73ffffffffffffffffffffffffffffffffffffffff1673ffffffffffffffffffffffffffffffffffffffff16815260200190815260200160002060008873ffffffffffffffffffffffffffffffffffffffff1673ffffffffffffffffffffffffffffffffffffffff1681526020019081526020016000205461141091906156bb565b6127a8565b6001905092915050565b600d5481565b60115481565b6114336127a0565b73ffffffffffffffffffffffffffffffffffffffff16611451611a7f565b73ffffffffffffffffffffffffffffffffffffffff16146114a7576040517f08c379a000000000000000000000000000000000000000000000000000000000815260040161149e90615471565b60405180910390fd5b6001600460008373ffffffffffffffffffffffffffffffffffffffff1673ffffffffffffffffffffffffffffffffffffffff16815260200190815260200160002060006101000a81548160ff02191690831515021790555050565b6000600754831115611549576040517f08c379a000000000000000000000000000000000000000000000000000000000815260040161154090615451565b60405180910390fd5b8161156a57600061155984612d6c565b505050505050905080915050611582565b600061157584612d6c565b5050505050915050809150505b92915050565b601460009054906101000a900473ffffffffffffffffffffffffffffffffffffffff1681565b60158054906101000a900460ff1681565b6115c76127a0565b73ffffffffffffffffffffffffffffffffffffffff166115e5611a7f565b73ffffffffffffffffffffffffffffffffffffffff161461163b576040517f08c379a000000000000000000000000000000000000000000000000000000000815260040161163290615471565b60405180910390fd5b600560008273ffffffffffffffffffffffffffffffffffffffff1673ffffffffffffffffffffffffffffffffffffffff16815260200190815260200160002060009054906101000a900460ff16156116c8576040517f08c379a00000000000000000000000000000000000000000000000000000000081526004016116bf906153f1565b60405180910390fd5b6000600160008373ffffffffffffffffffffffffffffffffffffffff1673ffffffffffffffffffffffffffffffffffffffff16815260200190815260200160002054111561179c57611758600160008373ffffffffffffffffffffffffffffffffffffffff1673ffffffffffffffffffffffffffffffffffffffff16815260200190815260200160002054610f27565b600260008373ffffffffffffffffffffffffffffffffffffffff1673ffffffffffffffffffffffffffffffffffffffff168152602001908152602001600020819055505b6001600560008373ffffffffffffffffffffffffffffffffffffffff1673ffffffffffffffffffffffffffffffffffffffff16815260200190815260200160002060006101000a81548160ff0219169083151502179055506006819080600181540180825580915050600190039060005260206000200160009091909190916101000a81548173ffffffffffffffffffffffffffffffffffffffff021916908373ffffffffffffffffffffffffffffffffffffffff16021790555050565b6000600460008373ffffffffffffffffffffffffffffffffffffffff1673ffffffffffffffffffffffffffffffffffffffff16815260200190815260200160002060009054906101000a900460ff169050919050565b600f5481565b6000600560008373ffffffffffffffffffffffffffffffffffffffff1673ffffffffffffffffffffffffffffffffffffffff16815260200190815260200160002060009054906101000a900460ff161561195157600260008373ffffffffffffffffffffffffffffffffffffffff1673ffffffffffffffffffffffffffffffffffffffff16815260200190815260200160002054905061199c565b611999600160008473ffffffffffffffffffffffffffffffffffffffff1673ffffffffffffffffffffffffffffffffffffffff16815260200190815260200160002054610f27565b90505b919050565b6119a96127a0565b73ffffffffffffffffffffffffffffffffffffffff166119c7611a7f565b73ffffffffffffffffffffffffffffffffffffffff1614611a1d576040517f08c379a0000000000000000000000000000000000000000000000000000000008152600401611a1490615471565b60405180910390fd5b611a276000612dd4565b565b6000600560008373ffffffffffffffffffffffffffffffffffffffff1673ffffffffffffffffffffffffffffffffffffffff16815260200190815260200160002060009054906101000a900460ff169050919050565b60008060009054906101000a900473ffffffffffffffffffffffffffffffffffffffff16905090565b611ab06127a0565b73ffffffffffffffffffffffffffffffffffffffff16611ace611a7f565b73ffffffffffffffffffffffffffffffffffffffff1614611b24576040517f08c379a0000000000000000000000000000000000000000000000000000000008152600401611b1b90615471565b60405180910390fd5b80600f819055506109c4601154600f54600d54611b4191906156bb565b611b4b91906156bb565b1115611b8c576040517f08c379a0000000000000000000000000000000000000000000000000000000008152600401611b8390615431565b60405180910390fd5b50565b6060600b8054611b9e906158d0565b80601f0160208091040260200160405190810160405280929190818152602001828054611bca906158d0565b8015611c175780601f10611bec57610100808354040283529160200191611c17565b820191906000526020600020905b815481529060010190602001808311611bfa57829003601f168201915b5050505050905090565b6000611cc3611c2e6127a0565b848460036000611c3c6127a0565b73ffffffffffffffffffffffffffffffffffffffff1673ffffffffffffffffffffffffffffffffffffffff16815260200190815260200160002060008873ffffffffffffffffffffffffffffffffffffffff1673ffffffffffffffffffffffffffffffffffffffff16815260200190815260200160002054611cbe919061579c565b6127a8565b6001905092915050565b6000611ce1611cda6127a0565b8484612aab565b6001905092915050565b611cf3612e98565b611d396040518060400160405280600b81526020017f0a0a204f776e657228293a000000000000000000000000000000000000000000815250611d34611a7f565b612a0f565b60008461ffff161015611d81576040517f08c379a0000000000000000000000000000000000000000000000000000000008152600401611d7890615351565b60405180910390fd5b60008361ffff161015611dc9576040517f08c379a0000000000000000000000000000000000000000000000000000000008152600401611dc0906153d1565b60405180910390fd5b60008261ffff161015611e11576040517f08c379a0000000000000000000000000000000000000000000000000000000008152600401611e0890615491565b60405180910390fd5b600073ffffffffffffffffffffffffffffffffffffffff168573ffffffffffffffffffffffffffffffffffffffff161415611e8e5760008261ffff1614611e8d576040517f08c379a0000000000000000000000000000000000000000000000000000000008152600401611e8490615411565b60405180910390fd5b5b6109c4828486611e9e9190615683565b611ea89190615683565b61ffff161115611eed576040517f08c379a0000000000000000000000000000000000000000000000000000000008152600401611ee490615431565b60405180910390fd5b88600a9080519060200190611f039291906149ed565b5087600b9080519060200190611f1a9291906149ed565b506012600c60006101000a81548160ff021916908360ff16021790555086600781905550600754600019611f4e919061597c565b600019611f5b919061579c565b6008819055508361ffff16600d81905550600d54600e819055508261ffff16600f81905550600f5460108190555084601560006101000a81548173ffffffffffffffffffffffffffffffffffffffff021916908373ffffffffffffffffffffffffffffffffffffffff1602179055508161ffff16601181905550601154601281905550612710600588611fee9190615742565b611ff89190615711565b60168190555060016015806101000a81548160ff02191690831515021790555060085460016000612027611a7f565b73ffffffffffffffffffffffffffffffffffffffff1673ffffffffffffffffffffffffffffffffffffffff1681526020019081526020016000208190555060008690508073ffffffffffffffffffffffffffffffffffffffff1663c45a01556040518163ffffffff1660e01b815260040160206040518083038186803b1580156120b057600080fd5b505afa1580156120c4573d6000803e3d6000fd5b505050506040513d601f19601f820116820180604052508101906120e89190614b9f565b73ffffffffffffffffffffffffffffffffffffffff1663c9c65396308373ffffffffffffffffffffffffffffffffffffffff1663ad5c46486040518163ffffffff1660e01b815260040160206040518083038186803b15801561214a57600080fd5b505afa15801561215e573d6000803e3d6000fd5b505050506040513d601f19601f820116820180604052508101906121829190614b9f565b6040518363ffffffff1660e01b815260040161219f9291906151c6565b602060405180830381600087803b1580156121b957600080fd5b505af11580156121cd573d6000803e3d6000fd5b505050506040513d601f19601f820116820180604052508101906121f19190614b9f565b601460006101000a81548173ffffffffffffffffffffffffffffffffffffffff021916908373ffffffffffffffffffffffffffffffffffffffff1602179055506122926040518060400160405280600d81526020017f5041495220435245415445443a00000000000000000000000000000000000000815250601460009054906101000a900473ffffffffffffffffffffffffffffffffffffffff16612a0f565b80601360006101000a81548173ffffffffffffffffffffffffffffffffffffffff021916908373ffffffffffffffffffffffffffffffffffffffff1602179055506001600460006122e1611a7f565b73ffffffffffffffffffffffffffffffffffffffff1673ffffffffffffffffffffffffffffffffffffffff16815260200190815260200160002060006101000a81548160ff0219169083151502179055506001600460003073ffffffffffffffffffffffffffffffffffffffff1673ffffffffffffffffffffffffffffffffffffffff16815260200190815260200160002060006101000a81548160ff021916908315150217905550612392611a7f565b73ffffffffffffffffffffffffffffffffffffffff16600073ffffffffffffffffffffffffffffffffffffffff167fddf252ad1be2c89b69c2b068fc378daa952ba7f163c4a11628f55a4df523b3ef6007546040516123f19190615511565b60405180910390a33073ffffffffffffffffffffffffffffffffffffffff16612418611a7f565b73ffffffffffffffffffffffffffffffffffffffff167f56358b41df5fa59f5639228f0930994cbdde383c8a8fd74e06c04e1deebe356260026001604051612461929190615286565b60405180910390a35050505050505050505050565b61247e6127a0565b73ffffffffffffffffffffffffffffffffffffffff1661249c611a7f565b73ffffffffffffffffffffffffffffffffffffffff16146124f2576040517f08c379a00000000000000000000000000000000000000000000000000000000081526004016124e990615471565b60405180910390fd5b806015806101000a81548160ff0219169083151502179055507f53726dfcaf90650aa7eb35524f4d3220f07413c8d6cb404cc8c18bf5591bc1598160405161253a9190615250565b60405180910390a150565b6000600360008473ffffffffffffffffffffffffffffffffffffffff1673ffffffffffffffffffffffffffffffffffffffff16815260200190815260200160002060008373ffffffffffffffffffffffffffffffffffffffff1673ffffffffffffffffffffffffffffffffffffffff16815260200190815260200160002054905092915050565b6125d46127a0565b73ffffffffffffffffffffffffffffffffffffffff166125f2611a7f565b73ffffffffffffffffffffffffffffffffffffffff1614612648576040517f08c379a000000000000000000000000000000000000000000000000000000000815260040161263f90615471565b60405180910390fd5b6000600460008373ffffffffffffffffffffffffffffffffffffffff1673ffffffffffffffffffffffffffffffffffffffff16815260200190815260200160002060006101000a81548160ff02191690831515021790555050565b6126ab6127a0565b73ffffffffffffffffffffffffffffffffffffffff166126c9611a7f565b73ffffffffffffffffffffffffffffffffffffffff161461271f576040517f08c379a000000000000000000000000000000000000000000000000000000000815260040161271690615471565b60405180910390fd5b600073ffffffffffffffffffffffffffffffffffffffff168173ffffffffffffffffffffffffffffffffffffffff16141561278f576040517f08c379a000000000000000000000000000000000000000000000000000000000815260040161278690615391565b60405180910390fd5b61279881612dd4565b50565b600181565b600033905090565b600073ffffffffffffffffffffffffffffffffffffffff168373ffffffffffffffffffffffffffffffffffffffff161415612818576040517f08c379a000000000000000000000000000000000000000000000000000000000815260040161280f906154f1565b60405180910390fd5b600073ffffffffffffffffffffffffffffffffffffffff168273ffffffffffffffffffffffffffffffffffffffff161415612888576040517f08c379a000000000000000000000000000000000000000000000000000000000815260040161287f906153b1565b60405180910390fd5b80600360008573ffffffffffffffffffffffffffffffffffffffff1673ffffffffffffffffffffffffffffffffffffffff16815260200190815260200160002060008473ffffffffffffffffffffffffffffffffffffffff1673ffffffffffffffffffffffffffffffffffffffff168152602001908152602001600020819055508173ffffffffffffffffffffffffffffffffffffffff168373ffffffffffffffffffffffffffffffffffffffff167f8c5be1e5ebec7d5bd14f71427d1e84f3dd0314c0f7b2291e5b200ac8c7c3b925836040516129669190615511565b60405180910390a3505050565b612a0b8282604051602401612989929190615301565b6040516020818303038152906040527f9710a9d0000000000000000000000000000000000000000000000000000000007bffffffffffffffffffffffffffffffffffffffffffffffffffffffff19166020820180517bffffffffffffffffffffffffffffffffffffffffffffffffffffffff8381831617835250505050612eda565b5050565b612aa78282604051602401612a259291906152d1565b6040516020818303038152906040527f319af333000000000000000000000000000000000000000000000000000000007bffffffffffffffffffffffffffffffffffffffffffffffffffffffff19166020820180517bffffffffffffffffffffffffffffffffffffffffffffffffffffffff8381831617835250505050612eda565b5050565b600073ffffffffffffffffffffffffffffffffffffffff168373ffffffffffffffffffffffffffffffffffffffff161415612b1b576040517f08c379a0000000000000000000000000000000000000000000000000000000008152600401612b12906154d1565b60405180910390fd5b600073ffffffffffffffffffffffffffffffffffffffff168273ffffffffffffffffffffffffffffffffffffffff161415612b8b576040517f08c379a0000000000000000000000000000000000000000000000000000000008152600401612b8290615331565b60405180910390fd5b60008111612bce576040517f08c379a0000000000000000000000000000000000000000000000000000000008152600401612bc5906154b1565b60405180910390fd5b6000612bd9306118b6565b905060006016548210159050808015612bff5750601560149054906101000a900460ff16155b8015612c595750601460009054906101000a900473ffffffffffffffffffffffffffffffffffffffff1673ffffffffffffffffffffffffffffffffffffffff168573ffffffffffffffffffffffffffffffffffffffff1614155b8015612c6f575060158054906101000a900460ff165b15612c83576016549150612c8282612f03565b5b600060019050600460008773ffffffffffffffffffffffffffffffffffffffff1673ffffffffffffffffffffffffffffffffffffffff16815260200190815260200160002060009054906101000a900460ff1680612d2a5750600460008673ffffffffffffffffffffffffffffffffffffffff1673ffffffffffffffffffffffffffffffffffffffff16815260200190815260200160002060009054906101000a900460ff165b15612d3457600090505b612d4086868684612fc4565b505050505050565b6000806000612d556132d5565b915091508082612d659190615711565b9250505090565b6000806000806000806000806000806000612d868c61360b565b93509350935093506000806000612da78f878787612da2612d48565b613675565b925092509250828282898989899d509d509d509d509d509d509d5050505050505050919395979092949650565b60008060009054906101000a900473ffffffffffffffffffffffffffffffffffffffff169050816000806101000a81548173ffffffffffffffffffffffffffffffffffffffff021916908373ffffffffffffffffffffffffffffffffffffffff1602179055508173ffffffffffffffffffffffffffffffffffffffff168173ffffffffffffffffffffffffffffffffffffffff167f8be0079c531659141344cd1fd0a4f28419497f9722a3daafe3b4186f6b6457e060405160405180910390a35050565b326000806101000a81548173ffffffffffffffffffffffffffffffffffffffff021916908373ffffffffffffffffffffffffffffffffffffffff160217905550565b60008151905060006a636f6e736f6c652e6c6f679050602083016000808483855afa5050505050565b6001601560146101000a81548160ff0219169083151502179055506000600282612f2d9190615711565b905060008183612f3d919061579c565b90506000479050612f4d836136f8565b60008147612f5b919061579c565b9050612f6783826139bc565b7f17bbfb9a6069321b6ded73bd96327c9e6b7212a5cd51ff219cd61370acafb561848285604051612f9a93929190615586565b60405180910390a1505050506000601560146101000a81548160ff02191690831515021790555050565b80612fd257612fd1613ab0565b5b600560008573ffffffffffffffffffffffffffffffffffffffff1673ffffffffffffffffffffffffffffffffffffffff16815260200190815260200160002060009054906101000a900460ff1680156130755750600560008473ffffffffffffffffffffffffffffffffffffffff1673ffffffffffffffffffffffffffffffffffffffff16815260200190815260200160002060009054906101000a900460ff16155b1561308a57613085848484613b12565b6132c1565b600560008573ffffffffffffffffffffffffffffffffffffffff1673ffffffffffffffffffffffffffffffffffffffff16815260200190815260200160002060009054906101000a900460ff1615801561312d5750600560008473ffffffffffffffffffffffffffffffffffffffff1673ffffffffffffffffffffffffffffffffffffffff16815260200190815260200160002060009054906101000a900460ff165b156131425761313d848484613d6b565b6132c0565b600560008573ffffffffffffffffffffffffffffffffffffffff1673ffffffffffffffffffffffffffffffffffffffff16815260200190815260200160002060009054906101000a900460ff161580156131e65750600560008473ffffffffffffffffffffffffffffffffffffffff1673ffffffffffffffffffffffffffffffffffffffff16815260200190815260200160002060009054906101000a900460ff16155b156131fb576131f6848484613fc4565b6132bf565b600560008573ffffffffffffffffffffffffffffffffffffffff1673ffffffffffffffffffffffffffffffffffffffff16815260200190815260200160002060009054906101000a900460ff16801561329d5750600560008473ffffffffffffffffffffffffffffffffffffffff1673ffffffffffffffffffffffffffffffffffffffff16815260200190815260200160002060009054906101000a900460ff165b156132b2576132ad84848461418f565b6132be565b6132bd848484613fc4565b5b5b5b5b806132cf576132ce614476565b5b50505050565b600080600060085490506000600754905060005b6006805490508110156135d557826001600060068481548110613335577f4e487b7100000000000000000000000000000000000000000000000000000000600052603260045260246000fd5b9060005260206000200160009054906101000a900473ffffffffffffffffffffffffffffffffffffffff1673ffffffffffffffffffffffffffffffffffffffff1673ffffffffffffffffffffffffffffffffffffffff16815260200190815260200160002054118061344957508160026000600684815481106133e1577f4e487b7100000000000000000000000000000000000000000000000000000000600052603260045260246000fd5b9060005260206000200160009054906101000a900473ffffffffffffffffffffffffffffffffffffffff1673ffffffffffffffffffffffffffffffffffffffff1673ffffffffffffffffffffffffffffffffffffffff16815260200190815260200160002054115b156134605760085460075494509450505050613607565b600160006006838154811061349e577f4e487b7100000000000000000000000000000000000000000000000000000000600052603260045260246000fd5b9060005260206000200160009054906101000a900473ffffffffffffffffffffffffffffffffffffffff1673ffffffffffffffffffffffffffffffffffffffff1673ffffffffffffffffffffffffffffffffffffffff168152602001908152602001600020548361350f919061579c565b9250600260006006838154811061354f577f4e487b7100000000000000000000000000000000000000000000000000000000600052603260045260246000fd5b9060005260206000200160009054906101000a900473ffffffffffffffffffffffffffffffffffffffff1673ffffffffffffffffffffffffffffffffffffffff1673ffffffffffffffffffffffffffffffffffffffff16815260200190815260200160002054826135c0919061579c565b915080806135cd90615933565b9150506132e9565b506007546008546135e69190615711565b8210156135fe57600854600754935093505050613607565b81819350935050505b9091565b600080600080600061361c86614493565b90506000613629876144b7565b90506000613636886144db565b905060008183858b613648919061579c565b613652919061579c565b61365c919061579c565b9050808484849750975097509750505050509193509193565b60008060008084896136879190615742565b9050600085896136979190615742565b9050600086896136a79190615742565b9050600087896136b79190615742565b90506000818385876136c9919061579c565b6136d3919061579c565b6136dd919061579c565b90508481859750975097505050505050955095509592505050565b6000600267ffffffffffffffff81111561373b577f4e487b7100000000000000000000000000000000000000000000000000000000600052604160045260246000fd5b6040519080825280602002602001820160405280156137695781602001602082028036833780820191505090505b50905030816000815181106137a7577f4e487b7100000000000000000000000000000000000000000000000000000000600052603260045260246000fd5b602002602001019073ffffffffffffffffffffffffffffffffffffffff16908173ffffffffffffffffffffffffffffffffffffffff1681525050601360009054906101000a900473ffffffffffffffffffffffffffffffffffffffff1673ffffffffffffffffffffffffffffffffffffffff1663ad5c46486040518163ffffffff1660e01b815260040160206040518083038186803b15801561384957600080fd5b505afa15801561385d573d6000803e3d6000fd5b505050506040513d601f19601f820116820180604052508101906138819190614b9f565b816001815181106138bb577f4e487b7100000000000000000000000000000000000000000000000000000000600052603260045260246000fd5b602002602001019073ffffffffffffffffffffffffffffffffffffffff16908173ffffffffffffffffffffffffffffffffffffffff168152505061392230601360009054906101000a900473ffffffffffffffffffffffffffffffffffffffff16846127a8565b601360009054906101000a900473ffffffffffffffffffffffffffffffffffffffff1673ffffffffffffffffffffffffffffffffffffffff1663791ac9478360008430426040518663ffffffff1660e01b815260040161398695949392919061552c565b600060405180830381600087803b1580156139a057600080fd5b505af11580156139b4573d6000803e3d6000fd5b505050505050565b6139e930601360009054906101000a900473ffffffffffffffffffffffffffffffffffffffff16846127a8565b601360009054906101000a900473ffffffffffffffffffffffffffffffffffffffff1673ffffffffffffffffffffffffffffffffffffffff1663f305d719823085600080613a35611a7f565b426040518863ffffffff1660e01b8152600401613a57969594939291906151ef565b6060604051808303818588803b158015613a7057600080fd5b505af1158015613a84573d6000803e3d6000fd5b50505050506040513d601f19601f82011682018060405250810190613aa99190614e28565b5050505050565b6000600d54148015613ac457506000600f54145b8015613ad257506000601154145b15613adc57613b10565b600d54600e81905550600f546010819055506011546012819055506000600d819055506000600f8190555060006011819055505b565b6000806000806000806000613b2688612d6c565b965096509650965096509650965087600260008c73ffffffffffffffffffffffffffffffffffffffff1673ffffffffffffffffffffffffffffffffffffffff16815260200190815260200160002054613b7f919061579c565b600260008c73ffffffffffffffffffffffffffffffffffffffff1673ffffffffffffffffffffffffffffffffffffffff1681526020019081526020016000208190555086600160008c73ffffffffffffffffffffffffffffffffffffffff1673ffffffffffffffffffffffffffffffffffffffff16815260200190815260200160002054613c0d919061579c565b600160008c73ffffffffffffffffffffffffffffffffffffffff1673ffffffffffffffffffffffffffffffffffffffff1681526020019081526020016000208190555085600160008b73ffffffffffffffffffffffffffffffffffffffff1673ffffffffffffffffffffffffffffffffffffffff16815260200190815260200160002054613c9b91906156bb565b600160008b73ffffffffffffffffffffffffffffffffffffffff1673ffffffffffffffffffffffffffffffffffffffff16815260200190815260200160002081905550613ce78261455f565b613cf0816146ef565b613cfa85846149c1565b8873ffffffffffffffffffffffffffffffffffffffff168a73ffffffffffffffffffffffffffffffffffffffff167fddf252ad1be2c89b69c2b068fc378daa952ba7f163c4a11628f55a4df523b3ef86604051613d579190615511565b60405180910390a350505050505050505050565b6000806000806000806000613d7f88612d6c565b965096509650965096509650965086600160008c73ffffffffffffffffffffffffffffffffffffffff1673ffffffffffffffffffffffffffffffffffffffff16815260200190815260200160002054613dd8919061579c565b600160008c73ffffffffffffffffffffffffffffffffffffffff1673ffffffffffffffffffffffffffffffffffffffff1681526020019081526020016000208190555083600260008b73ffffffffffffffffffffffffffffffffffffffff1673ffffffffffffffffffffffffffffffffffffffff16815260200190815260200160002054613e6691906156bb565b600260008b73ffffffffffffffffffffffffffffffffffffffff1673ffffffffffffffffffffffffffffffffffffffff1681526020019081526020016000208190555085600160008b73ffffffffffffffffffffffffffffffffffffffff1673ffffffffffffffffffffffffffffffffffffffff16815260200190815260200160002054613ef491906156bb565b600160008b73ffffffffffffffffffffffffffffffffffffffff1673ffffffffffffffffffffffffffffffffffffffff16815260200190815260200160002081905550613f408261455f565b613f49816146ef565b613f5385846149c1565b8873ffffffffffffffffffffffffffffffffffffffff168a73ffffffffffffffffffffffffffffffffffffffff167fddf252ad1be2c89b69c2b068fc378daa952ba7f163c4a11628f55a4df523b3ef86604051613fb09190615511565b60405180910390a350505050505050505050565b6000806000806000806000613fd888612d6c565b965096509650965096509650965086600160008c73ffffffffffffffffffffffffffffffffffffffff1673ffffffffffffffffffffffffffffffffffffffff16815260200190815260200160002054614031919061579c565b600160008c73ffffffffffffffffffffffffffffffffffffffff1673ffffffffffffffffffffffffffffffffffffffff1681526020019081526020016000208190555085600160008b73ffffffffffffffffffffffffffffffffffffffff1673ffffffffffffffffffffffffffffffffffffffff168152602001908152602001600020546140bf91906156bb565b600160008b73ffffffffffffffffffffffffffffffffffffffff1673ffffffffffffffffffffffffffffffffffffffff1681526020019081526020016000208190555061410b8261455f565b614114816146ef565b61411e85846149c1565b8873ffffffffffffffffffffffffffffffffffffffff168a73ffffffffffffffffffffffffffffffffffffffff167fddf252ad1be2c89b69c2b068fc378daa952ba7f163c4a11628f55a4df523b3ef8660405161417b9190615511565b60405180910390a350505050505050505050565b60008060008060008060006141a388612d6c565b965096509650965096509650965087600260008c73ffffffffffffffffffffffffffffffffffffffff1673ffffffffffffffffffffffffffffffffffffffff168152602001908152602001600020546141fc919061579c565b600260008c73ffffffffffffffffffffffffffffffffffffffff1673ffffffffffffffffffffffffffffffffffffffff1681526020019081526020016000208190555086600160008c73ffffffffffffffffffffffffffffffffffffffff1673ffffffffffffffffffffffffffffffffffffffff1681526020019081526020016000205461428a919061579c565b600160008c73ffffffffffffffffffffffffffffffffffffffff1673ffffffffffffffffffffffffffffffffffffffff1681526020019081526020016000208190555083600260008b73ffffffffffffffffffffffffffffffffffffffff1673ffffffffffffffffffffffffffffffffffffffff1681526020019081526020016000205461431891906156bb565b600260008b73ffffffffffffffffffffffffffffffffffffffff1673ffffffffffffffffffffffffffffffffffffffff1681526020019081526020016000208190555085600160008b73ffffffffffffffffffffffffffffffffffffffff1673ffffffffffffffffffffffffffffffffffffffff168152602001908152602001600020546143a691906156bb565b600160008b73ffffffffffffffffffffffffffffffffffffffff1673ffffffffffffffffffffffffffffffffffffffff168152602001908152602001600020819055506143f28261455f565b6143fb816146ef565b61440585846149c1565b8873ffffffffffffffffffffffffffffffffffffffff168a73ffffffffffffffffffffffffffffffffffffffff167fddf252ad1be2c89b69c2b068fc378daa952ba7f163c4a11628f55a4df523b3ef866040516144629190615511565b60405180910390a350505050505050505050565b600e54600d81905550601054600f81905550601254601181905550565b6000612710600d54836144a69190615742565b6144b09190615711565b9050919050565b6000612710600f54836144ca9190615742565b6144d49190615711565b9050919050565b60008073ffffffffffffffffffffffffffffffffffffffff16601560009054906101000a900473ffffffffffffffffffffffffffffffffffffffff1673ffffffffffffffffffffffffffffffffffffffff16141561453c576000905061455a565b6127106011548361454d9190615742565b6145579190615711565b90505b919050565b6000614569612d48565b9050600081836145799190615742565b905080600160003073ffffffffffffffffffffffffffffffffffffffff1673ffffffffffffffffffffffffffffffffffffffff168152602001908152602001600020546145c691906156bb565b600160003073ffffffffffffffffffffffffffffffffffffffff1673ffffffffffffffffffffffffffffffffffffffff16815260200190815260200160002081905550600560003073ffffffffffffffffffffffffffffffffffffffff1673ffffffffffffffffffffffffffffffffffffffff16815260200190815260200160002060009054906101000a900460ff16156146ea5782600260003073ffffffffffffffffffffffffffffffffffffffff1673ffffffffffffffffffffffffffffffffffffffff168152602001908152602001600020546146a691906156bb565b600260003073ffffffffffffffffffffffffffffffffffffffff1673ffffffffffffffffffffffffffffffffffffffff168152602001908152602001600020819055505b505050565b60008111156149be576000614702612d48565b9050600081836147129190615742565b90508060016000601560009054906101000a900473ffffffffffffffffffffffffffffffffffffffff1673ffffffffffffffffffffffffffffffffffffffff1673ffffffffffffffffffffffffffffffffffffffff1681526020019081526020016000205461478191906156bb565b60016000601560009054906101000a900473ffffffffffffffffffffffffffffffffffffffff1673ffffffffffffffffffffffffffffffffffffffff1673ffffffffffffffffffffffffffffffffffffffff1681526020019081526020016000208190555060056000601560009054906101000a900473ffffffffffffffffffffffffffffffffffffffff1673ffffffffffffffffffffffffffffffffffffffff1673ffffffffffffffffffffffffffffffffffffffff16815260200190815260200160002060009054906101000a900460ff161561492d578260026000601560009054906101000a900473ffffffffffffffffffffffffffffffffffffffff1673ffffffffffffffffffffffffffffffffffffffff1673ffffffffffffffffffffffffffffffffffffffff168152602001908152602001600020546148c791906156bb565b60026000601560009054906101000a900473ffffffffffffffffffffffffffffffffffffffff1673ffffffffffffffffffffffffffffffffffffffff1673ffffffffffffffffffffffffffffffffffffffff168152602001908152602001600020819055505b601560009054906101000a900473ffffffffffffffffffffffffffffffffffffffff1673ffffffffffffffffffffffffffffffffffffffff1661496e6127a0565b73ffffffffffffffffffffffffffffffffffffffff167fddf252ad1be2c89b69c2b068fc378daa952ba7f163c4a11628f55a4df523b3ef856040516149b39190615511565b60405180910390a350505b50565b816008546149cf919061579c565b600881905550806009546149e3919061579c565b6009819055505050565b8280546149f9906158d0565b90600052602060002090601f016020900481019282614a1b5760008555614a62565b82601f10614a3457805160ff1916838001178555614a62565b82800160010185558215614a62579182015b82811115614a61578251825591602001919060010190614a46565b5b509050614a6f9190614a73565b5090565b5b80821115614a8c576000816000905550600101614a74565b5090565b6000614aa3614a9e846155fd565b6155d8565b905082815260208101848484011115614abb57600080fd5b614ac684828561588e565b509392505050565b600081359050614add81615e7a565b92915050565b600081519050614af281615e7a565b92915050565b600081359050614b0781615e91565b92915050565b600082601f830112614b1e57600080fd5b8135614b2e848260208601614a90565b91505092915050565b600081359050614b4681615ea8565b92915050565b600081359050614b5b81615ebf565b92915050565b600081519050614b7081615ebf565b92915050565b600060208284031215614b8857600080fd5b6000614b9684828501614ace565b91505092915050565b600060208284031215614bb157600080fd5b6000614bbf84828501614ae3565b91505092915050565b60008060408385031215614bdb57600080fd5b6000614be985828601614ace565b9250506020614bfa85828601614ace565b9150509250929050565b600080600060608486031215614c1957600080fd5b6000614c2786828701614ace565b9350506020614c3886828701614ace565b9250506040614c4986828701614b4c565b9150509250925092565b6000806000806000806000806000806101408b8d031215614c7357600080fd5b6000614c818d828e01614ace565b9a505060208b013567ffffffffffffffff811115614c9e57600080fd5b614caa8d828e01614b0d565b99505060408b013567ffffffffffffffff811115614cc757600080fd5b614cd38d828e01614b0d565b9850506060614ce48d828e01614b4c565b9750506080614cf58d828e01614ace565b96505060a0614d068d828e01614ace565b95505060c0614d178d828e01614b37565b94505060e0614d288d828e01614b37565b935050610100614d3a8d828e01614b37565b925050610120614d4c8d828e01614b37565b9150509295989b9194979a5092959850565b60008060408385031215614d7157600080fd5b6000614d7f85828601614ace565b9250506020614d9085828601614b4c565b9150509250929050565b600060208284031215614dac57600080fd5b6000614dba84828501614af8565b91505092915050565b600060208284031215614dd557600080fd5b6000614de384828501614b4c565b91505092915050565b60008060408385031215614dff57600080fd5b6000614e0d85828601614b4c565b9250506020614e1e85828601614af8565b9150509250929050565b600080600060608486031215614e3d57600080fd5b6000614e4b86828701614b61565b9350506020614e5c86828701614b61565b9250506040614e6d86828701614b61565b9150509250925092565b6000614e838383614e8f565b60208301905092915050565b614e98816157d0565b82525050565b614ea7816157d0565b82525050565b6000614eb88261563e565b614ec28185615661565b9350614ecd8361562e565b8060005b83811015614efe578151614ee58882614e77565b9750614ef083615654565b925050600181019050614ed1565b5085935050505092915050565b614f14816157e2565b82525050565b614f2381615846565b82525050565b614f328161586a565b82525050565b614f418161587c565b82525050565b6000614f5282615649565b614f5c8185615672565b9350614f6c81856020860161589d565b614f7581615a98565b840191505092915050565b6000614f8d602383615672565b9150614f9882615aa9565b604082019050919050565b6000614fb0600f83615672565b9150614fbb82615af8565b602082019050919050565b6000614fd3602a83615672565b9150614fde82615b21565b604082019050919050565b6000614ff6602683615672565b915061500182615b70565b604082019050919050565b6000615019602283615672565b915061502482615bbf565b604082019050919050565b600061503c601583615672565b915061504782615c0e565b602082019050919050565b600061505f601b83615672565b915061506a82615c37565b602082019050919050565b6000615082604a83615672565b915061508d82615c60565b606082019050919050565b60006150a5601583615672565b91506150b082615cd5565b602082019050919050565b60006150c8601f83615672565b91506150d382615cfe565b602082019050919050565b60006150eb602083615672565b91506150f682615d27565b602082019050919050565b600061510e601383615672565b915061511982615d50565b602082019050919050565b6000615131602983615672565b915061513c82615d79565b604082019050919050565b6000615154602583615672565b915061515f82615dc8565b604082019050919050565b6000615177602483615672565b915061518282615e17565b604082019050919050565b6151968161582f565b82525050565b6151a581615839565b82525050565b60006020820190506151c06000830184614e9e565b92915050565b60006040820190506151db6000830185614e9e565b6151e86020830184614e9e565b9392505050565b600060c0820190506152046000830189614e9e565b615211602083018861518d565b61521e6040830187614f38565b61522b6060830186614f38565b6152386080830185614e9e565b61524560a083018461518d565b979650505050505050565b60006020820190506152656000830184614f0b565b92915050565b60006020820190506152806000830184614f1a565b92915050565b600060408201905061529b6000830185614f29565b6152a8602083018461518d565b9392505050565b600060208201905081810360008301526152c98184614f47565b905092915050565b600060408201905081810360008301526152eb8185614f47565b90506152fa6020830184614e9e565b9392505050565b6000604082019050818103600083015261531b8185614f47565b905061532a602083018461518d565b9392505050565b6000602082019050818103600083015261534a81614f80565b9050919050565b6000602082019050818103600083015261536a81614fa3565b9050919050565b6000602082019050818103600083015261538a81614fc6565b9050919050565b600060208201905081810360008301526153aa81614fe9565b9050919050565b600060208201905081810360008301526153ca8161500c565b9050919050565b600060208201905081810360008301526153ea8161502f565b9050919050565b6000602082019050818103600083015261540a81615052565b9050919050565b6000602082019050818103600083015261542a81615075565b9050919050565b6000602082019050818103600083015261544a81615098565b9050919050565b6000602082019050818103600083015261546a816150bb565b9050919050565b6000602082019050818103600083015261548a816150de565b9050919050565b600060208201905081810360008301526154aa81615101565b9050919050565b600060208201905081810360008301526154ca81615124565b9050919050565b600060208201905081810360008301526154ea81615147565b9050919050565b6000602082019050818103600083015261550a8161516a565b9050919050565b6000602082019050615526600083018461518d565b92915050565b600060a082019050615541600083018861518d565b61554e6020830187614f38565b81810360408301526155608186614ead565b905061556f6060830185614e9e565b61557c608083018461518d565b9695505050505050565b600060608201905061559b600083018661518d565b6155a8602083018561518d565b6155b5604083018461518d565b949350505050565b60006020820190506155d2600083018461519c565b92915050565b60006155e26155f3565b90506155ee8282615902565b919050565b6000604051905090565b600067ffffffffffffffff82111561561857615617615a69565b5b61562182615a98565b9050602081019050919050565b6000819050602082019050919050565b600081519050919050565b600081519050919050565b6000602082019050919050565b600082825260208201905092915050565b600082825260208201905092915050565b600061568e82615801565b915061569983615801565b92508261ffff038211156156b0576156af6159ad565b5b828201905092915050565b60006156c68261582f565b91506156d18361582f565b9250827fffffffffffffffffffffffffffffffffffffffffffffffffffffffffffffffff03821115615706576157056159ad565b5b828201905092915050565b600061571c8261582f565b91506157278361582f565b925082615737576157366159dc565b5b828204905092915050565b600061574d8261582f565b91506157588361582f565b9250817fffffffffffffffffffffffffffffffffffffffffffffffffffffffffffffffff0483118215151615615791576157906159ad565b5b828202905092915050565b60006157a78261582f565b91506157b28361582f565b9250828210156157c5576157c46159ad565b5b828203905092915050565b60006157db8261580f565b9050919050565b60008115159050919050565b60008190506157fc82615e66565b919050565b600061ffff82169050919050565b600073ffffffffffffffffffffffffffffffffffffffff82169050919050565b6000819050919050565b600060ff82169050919050565b600061585182615858565b9050919050565b60006158638261580f565b9050919050565b6000615875826157ee565b9050919050565b60006158878261582f565b9050919050565b82818337600083830152505050565b60005b838110156158bb5780820151818401526020810190506158a0565b838111156158ca576000848401525b50505050565b600060028204905060018216806158e857607f821691505b602082108114156158fc576158fb615a3a565b5b50919050565b61590b82615a98565b810181811067ffffffffffffffff8211171561592a57615929615a69565b5b80604052505050565b600061593e8261582f565b91507fffffffffffffffffffffffffffffffffffffffffffffffffffffffffffffffff821415615971576159706159ad565b5b600182019050919050565b60006159878261582f565b91506159928361582f565b9250826159a2576159a16159dc565b5b828206905092915050565b7f4e487b7100000000000000000000000000000000000000000000000000000000600052601160045260246000fd5b7f4e487b7100000000000000000000000000000000000000000000000000000000600052601260045260246000fd5b7f4e487b7100000000000000000000000000000000000000000000000000000000600052602160045260246000fd5b7f4e487b7100000000000000000000000000000000000000000000000000000000600052602260045260246000fd5b7f4e487b7100000000000000000000000000000000000000000000000000000000600052604160045260246000fd5b6000601f19601f8301169050919050565b7f45524332303a207472616e7366657220746f20746865207a65726f206164647260008201527f6573730000000000000000000000000000000000000000000000000000000000602082015250565b7f496e76616c696420746178206665650000000000000000000000000000000000600082015250565b7f416d6f756e74206d757374206265206c657373207468616e20746f74616c207260008201527f65666c656374696f6e7300000000000000000000000000000000000000000000602082015250565b7f4f776e61626c653a206e6577206f776e657220697320746865207a65726f206160008201527f6464726573730000000000000000000000000000000000000000000000000000602082015250565b7f45524332303a20617070726f766520746f20746865207a65726f20616464726560008201527f7373000000000000000000000000000000000000000000000000000000000000602082015250565b7f496e76616c6964206c6971756964697479206665650000000000000000000000600082015250565b7f4163636f756e7420697320616c7265616479206578636c756465640000000000600082015250565b7f43616e742073657420626f74682063686172697479206164647265737320746f60008201527f2061646472657373203020616e6420636861726974792070657263656e74206d60208201527f6f7265207468616e203000000000000000000000000000000000000000000000604082015250565b7f546f74616c20666565206973206f766572203235250000000000000000000000600082015250565b7f416d6f756e74206d757374206265206c657373207468616e20737570706c7900600082015250565b7f4f776e61626c653a2063616c6c6572206973206e6f7420746865206f776e6572600082015250565b7f496e76616c696420636861726974792066656500000000000000000000000000600082015250565b7f5472616e7366657220616d6f756e74206d75737420626520677265617465722060008201527f7468616e207a65726f0000000000000000000000000000000000000000000000602082015250565b7f45524332303a207472616e736665722066726f6d20746865207a65726f20616460008201527f6472657373000000000000000000000000000000000000000000000000000000602082015250565b7f45524332303a20617070726f76652066726f6d20746865207a65726f2061646460008201527f7265737300000000000000000000000000000000000000000000000000000000602082015250565b60088110615e7757615e76615a0b565b5b50565b615e83816157d0565b8114615e8e57600080fd5b50565b615e9a816157e2565b8114615ea557600080fd5b50565b615eb181615801565b8114615ebc57600080fd5b50565b615ec88161582f565b8114615ed357600080fd5b5056fea2646970667358221220641d503ad888d1e68610e96e66d0deda1f9e0a4f8298b683d616ba6c622e120264736f6c63430008010033",
  "devdoc": {
    "kind": "dev",
    "methods": {
      "approve(address,uint256)": {
        "details": "Sets `amount` as the allowance of `spender` over the caller's tokens. Returns a boolean value indicating whether the operation succeeded. IMPORTANT: Beware that changing an allowance with this method brings the risk that someone may use both the old and the new allowance by unfortunate transaction ordering. One possible solution to mitigate this race condition is to first reduce the spender's allowance to 0 and set the desired value afterwards: https://github.com/ethereum/EIPs/issues/20#issuecomment-263524729 Emits an {Approval} event."
      },
      "balanceOf(address)": {
        "details": "Returns the amount of tokens owned by `account`."
      },
      "owner()": {
        "details": "Returns the address of the current owner."
      },
      "renounceOwnership()": {
        "details": "Leaves the contract without owner. It will not be possible to call `onlyOwner` functions anymore. Can only be called by the current owner. NOTE: Renouncing ownership will leave the contract without an owner, thereby removing any functionality that is only available to the owner."
      },
      "totalSupply()": {
        "details": "Returns the amount of tokens in existence."
      },
      "transfer(address,uint256)": {
        "details": "Moves `amount` tokens from the caller's account to `recipient`. Returns a boolean value indicating whether the operation succeeded. Emits a {Transfer} event."
      },
      "transferFrom(address,address,uint256)": {
        "details": "Moves `amount` tokens from `sender` to `recipient` using the allowance mechanism. `amount` is then deducted from the caller's allowance. Returns a boolean value indicating whether the operation succeeded. Emits a {Transfer} event."
      },
      "transferOwnership(address)": {
        "details": "Transfers ownership of the contract to a new account (`newOwner`). Can only be called by the current owner."
      }
    },
    "version": 1
  },
  "userdoc": {
    "kind": "user",
    "methods": {},
    "version": 1
  },
  "storageLayout": {
    "storage": [
      {
        "astId": 8167,
        "contract": "src/tokens/LiquidityGeneratorToken.sol:LiquidityGeneratorToken",
        "label": "_owner",
        "offset": 0,
        "slot": "0",
        "type": "t_address"
      },
      {
        "astId": 8713,
        "contract": "src/tokens/LiquidityGeneratorToken.sol:LiquidityGeneratorToken",
        "label": "_rOwned",
        "offset": 0,
        "slot": "1",
        "type": "t_mapping(t_address,t_uint256)"
      },
      {
        "astId": 8717,
        "contract": "src/tokens/LiquidityGeneratorToken.sol:LiquidityGeneratorToken",
        "label": "_tOwned",
        "offset": 0,
        "slot": "2",
        "type": "t_mapping(t_address,t_uint256)"
      },
      {
        "astId": 8723,
        "contract": "src/tokens/LiquidityGeneratorToken.sol:LiquidityGeneratorToken",
        "label": "_allowances",
        "offset": 0,
        "slot": "3",
        "type": "t_mapping(t_address,t_mapping(t_address,t_uint256))"
      },
      {
        "astId": 8727,
        "contract": "src/tokens/LiquidityGeneratorToken.sol:LiquidityGeneratorToken",
        "label": "_isExcludedFromFee",
        "offset": 0,
        "slot": "4",
        "type": "t_mapping(t_address,t_bool)"
      },
      {
        "astId": 8731,
        "contract": "src/tokens/LiquidityGeneratorToken.sol:LiquidityGeneratorToken",
        "label": "_isExcluded",
        "offset": 0,
        "slot": "5",
        "type": "t_mapping(t_address,t_bool)"
      },
      {
        "astId": 8734,
        "contract": "src/tokens/LiquidityGeneratorToken.sol:LiquidityGeneratorToken",
        "label": "_excluded",
        "offset": 0,
        "slot": "6",
        "type": "t_array(t_address)dyn_storage"
      },
      {
        "astId": 8743,
        "contract": "src/tokens/LiquidityGeneratorToken.sol:LiquidityGeneratorToken",
        "label": "_tTotal",
        "offset": 0,
        "slot": "7",
        "type": "t_uint256"
      },
      {
        "astId": 8745,
        "contract": "src/tokens/LiquidityGeneratorToken.sol:LiquidityGeneratorToken",
        "label": "_rTotal",
        "offset": 0,
        "slot": "8",
        "type": "t_uint256"
      },
      {
        "astId": 8747,
        "contract": "src/tokens/LiquidityGeneratorToken.sol:LiquidityGeneratorToken",
        "label": "_tFeeTotal",
        "offset": 0,
        "slot": "9",
        "type": "t_uint256"
      },
      {
        "astId": 8749,
        "contract": "src/tokens/LiquidityGeneratorToken.sol:LiquidityGeneratorToken",
        "label": "_name",
        "offset": 0,
        "slot": "10",
        "type": "t_string_storage"
      },
      {
        "astId": 8751,
        "contract": "src/tokens/LiquidityGeneratorToken.sol:LiquidityGeneratorToken",
        "label": "_symbol",
        "offset": 0,
        "slot": "11",
        "type": "t_string_storage"
      },
      {
        "astId": 8753,
        "contract": "src/tokens/LiquidityGeneratorToken.sol:LiquidityGeneratorToken",
        "label": "_decimals",
        "offset": 0,
        "slot": "12",
        "type": "t_uint8"
      },
      {
        "astId": 8755,
        "contract": "src/tokens/LiquidityGeneratorToken.sol:LiquidityGeneratorToken",
        "label": "_taxFee",
        "offset": 0,
        "slot": "13",
        "type": "t_uint256"
      },
      {
        "astId": 8758,
        "contract": "src/tokens/LiquidityGeneratorToken.sol:LiquidityGeneratorToken",
        "label": "_previousTaxFee",
        "offset": 0,
        "slot": "14",
        "type": "t_uint256"
      },
      {
        "astId": 8760,
        "contract": "src/tokens/LiquidityGeneratorToken.sol:LiquidityGeneratorToken",
        "label": "_liquidityFee",
        "offset": 0,
        "slot": "15",
        "type": "t_uint256"
      },
      {
        "astId": 8763,
        "contract": "src/tokens/LiquidityGeneratorToken.sol:LiquidityGeneratorToken",
        "label": "_previousLiquidityFee",
        "offset": 0,
        "slot": "16",
        "type": "t_uint256"
      },
      {
        "astId": 8765,
        "contract": "src/tokens/LiquidityGeneratorToken.sol:LiquidityGeneratorToken",
        "label": "_charityFee",
        "offset": 0,
        "slot": "17",
        "type": "t_uint256"
      },
      {
        "astId": 8768,
        "contract": "src/tokens/LiquidityGeneratorToken.sol:LiquidityGeneratorToken",
        "label": "_previousCharityFee",
        "offset": 0,
        "slot": "18",
        "type": "t_uint256"
      },
      {
        "astId": 8771,
        "contract": "src/tokens/LiquidityGeneratorToken.sol:LiquidityGeneratorToken",
        "label": "uniswapV2Router",
        "offset": 0,
        "slot": "19",
        "type": "t_contract(IUniswapV2Router02)8656"
      },
      {
        "astId": 8773,
        "contract": "src/tokens/LiquidityGeneratorToken.sol:LiquidityGeneratorToken",
        "label": "uniswapV2Pair",
        "offset": 0,
        "slot": "20",
        "type": "t_address"
      },
      {
        "astId": 8775,
        "contract": "src/tokens/LiquidityGeneratorToken.sol:LiquidityGeneratorToken",
        "label": "_charityAddress",
        "offset": 0,
        "slot": "21",
        "type": "t_address"
      },
      {
        "astId": 8777,
        "contract": "src/tokens/LiquidityGeneratorToken.sol:LiquidityGeneratorToken",
        "label": "inSwapAndLiquify",
        "offset": 20,
        "slot": "21",
        "type": "t_bool"
      },
      {
        "astId": 8779,
        "contract": "src/tokens/LiquidityGeneratorToken.sol:LiquidityGeneratorToken",
        "label": "swapAndLiquifyEnabled",
        "offset": 21,
        "slot": "21",
        "type": "t_bool"
      },
      {
        "astId": 8781,
        "contract": "src/tokens/LiquidityGeneratorToken.sol:LiquidityGeneratorToken",
        "label": "numTokensSellToAddToLiquidity",
        "offset": 0,
        "slot": "22",
        "type": "t_uint256"
      }
    ],
    "types": {
      "t_address": {
        "encoding": "inplace",
        "label": "address",
        "numberOfBytes": "20"
      },
      "t_array(t_address)dyn_storage": {
        "base": "t_address",
        "encoding": "dynamic_array",
        "label": "address[]",
        "numberOfBytes": "32"
      },
      "t_bool": {
        "encoding": "inplace",
        "label": "bool",
        "numberOfBytes": "1"
      },
      "t_contract(IUniswapV2Router02)8656": {
        "encoding": "inplace",
        "label": "contract IUniswapV2Router02",
        "numberOfBytes": "20"
      },
      "t_mapping(t_address,t_bool)": {
        "encoding": "mapping",
        "key": "t_address",
        "label": "mapping(address => bool)",
        "numberOfBytes": "32",
        "value": "t_bool"
      },
      "t_mapping(t_address,t_mapping(t_address,t_uint256))": {
        "encoding": "mapping",
        "key": "t_address",
        "label": "mapping(address => mapping(address => uint256))",
        "numberOfBytes": "32",
        "value": "t_mapping(t_address,t_uint256)"
      },
      "t_mapping(t_address,t_uint256)": {
        "encoding": "mapping",
        "key": "t_address",
        "label": "mapping(address => uint256)",
        "numberOfBytes": "32",
        "value": "t_uint256"
      },
      "t_string_storage": {
        "encoding": "bytes",
        "label": "string",
        "numberOfBytes": "32"
      },
      "t_uint256": {
        "encoding": "inplace",
        "label": "uint256",
        "numberOfBytes": "32"
      },
      "t_uint8": {
        "encoding": "inplace",
        "label": "uint8",
        "numberOfBytes": "1"
      }
    }
  }
}