{
  "address": "0x2714EC8188F1D5949000F21C2548193724B8348F",
  "abi": [
    {
      "inputs": [
        {
          "internalType": "string",
          "name": "_purpose",
          "type": "string"
        }
      ],
      "stateMutability": "nonpayable",
      "type": "constructor"
    },
    {
      "anonymous": false,
      "inputs": [
        {
          "indexed": false,
          "internalType": "address",
          "name": "user",
          "type": "address"
        },
        {
          "indexed": false,
          "internalType": "uint256",
          "name": "value",
          "type": "uint256"
        }
      ],
      "name": "Deposit",
      "type": "event"
    },
    {
      "anonymous": false,
      "inputs": [
        {
          "indexed": true,
          "internalType": "address",
          "name": "previousOwner",
          "type": "address"
        },
        {
          "indexed": true,
          "internalType": "address",
          "name": "newOwner",
          "type": "address"
        }
      ],
      "name": "OwnershipTransferred",
      "type": "event"
    },
    {
      "anonymous": false,
      "inputs": [
        {
          "indexed": false,
          "internalType": "address",
          "name": "sender",
          "type": "address"
        },
        {
          "indexed": false,
          "internalType": "string",
          "name": "purpose",
          "type": "string"
        }
      ],
      "name": "SetPurpose",
      "type": "event"
    },
    {
      "anonymous": false,
      "inputs": [
        {
          "indexed": false,
          "internalType": "address",
          "name": "user",
          "type": "address"
        },
        {
          "indexed": false,
          "internalType": "uint256",
          "name": "value",
          "type": "uint256"
        }
      ],
      "name": "Withdraw",
      "type": "event"
    },
    {
      "inputs": [],
      "name": "deposit",
      "outputs": [],
      "stateMutability": "payable",
      "type": "function"
    },
    {
      "inputs": [
        {
          "internalType": "address",
          "name": "_user",
          "type": "address"
        }
      ],
      "name": "depositBalance",
      "outputs": [
        {
          "internalType": "uint256",
          "name": "",
          "type": "uint256"
        }
      ],
      "stateMutability": "view",
      "type": "function"
    },
    {
      "inputs": [
        {
          "internalType": "address",
          "name": "",
          "type": "address"
        }
      ],
      "name": "deposited",
      "outputs": [
        {
          "internalType": "uint256",
          "name": "",
          "type": "uint256"
        }
      ],
      "stateMutability": "view",
      "type": "function"
    },
    {
      "inputs": [],
      "name": "owner",
      "outputs": [
        {
          "internalType": "address",
          "name": "",
          "type": "address"
        }
      ],
      "stateMutability": "view",
      "type": "function"
    },
    {
      "inputs": [],
      "name": "purpose",
      "outputs": [
        {
          "internalType": "string",
          "name": "",
          "type": "string"
        }
      ],
      "stateMutability": "view",
      "type": "function"
    },
    {
      "inputs": [],
      "name": "renounceOwnership",
      "outputs": [],
      "stateMutability": "nonpayable",
      "type": "function"
    },
    {
      "inputs": [
        {
          "internalType": "string",
          "name": "_purpose",
          "type": "string"
        }
      ],
      "name": "setPurpose",
      "outputs": [],
      "stateMutability": "nonpayable",
      "type": "function"
    },
    {
      "inputs": [
        {
          "internalType": "address",
          "name": "newOwner",
          "type": "address"
        }
      ],
      "name": "transferOwnership",
      "outputs": [],
      "stateMutability": "nonpayable",
      "type": "function"
    },
    {
      "inputs": [
        {
          "internalType": "address payable",
          "name": "_user",
          "type": "address"
        },
        {
          "internalType": "uint256",
          "name": "_amount",
          "type": "uint256"
        }
      ],
      "name": "withdraw",
      "outputs": [],
      "stateMutability": "nonpayable",
      "type": "function"
    }
  ],
  "transactionHash": "0x5ab4a12414b488bbaefb11ea19085bcfc4be6a8936a43baf0b01e66b92bf0206",
  "args": [
    "Hello, world!"
  ],
  "numDeployments": 2,
  "solcInputHash": "95fbf2142802c5f42f274214d88c28f2",
  "bytecode": "0x60806040523480156200001157600080fd5b5060405162001cec38038062001cec833981810160405281019062000037919062000364565b620000576200004b620000a760201b60201c565b620000af60201b60201c565b6200008760405180606001604052806022815260200162001cca60229139826200017360201b620009141760201c565b80600190805190602001906200009f92919062000242565b5050620005b1565b600033905090565b60008060009054906101000a900473ffffffffffffffffffffffffffffffffffffffff169050816000806101000a81548173ffffffffffffffffffffffffffffffffffffffff021916908373ffffffffffffffffffffffffffffffffffffffff1602179055508173ffffffffffffffffffffffffffffffffffffffff168173ffffffffffffffffffffffffffffffffffffffff167f8be0079c531659141344cd1fd0a4f28419497f9722a3daafe3b4186f6b6457e060405160405180910390a35050565b6200021582826040516024016200018c929190620003ea565b6040516020818303038152906040527f4b5c4277000000000000000000000000000000000000000000000000000000007bffffffffffffffffffffffffffffffffffffffffffffffffffffffff19166020820180517bffffffffffffffffffffffffffffffffffffffffffffffffffffffff83818316178352505050506200021960201b60201c565b5050565b60008151905060006a636f6e736f6c652e6c6f679050602083016000808483855afa5050505050565b8280546200025090620004d6565b90600052602060002090601f016020900481019282620002745760008555620002c0565b82601f106200028f57805160ff1916838001178555620002c0565b82800160010185558215620002c0579182015b82811115620002bf578251825591602001919060010190620002a2565b5b509050620002cf9190620002d3565b5090565b5b80821115620002ee576000816000905550600101620002d4565b5090565b60006200030962000303846200044e565b62000425565b9050828152602081018484840111156200032257600080fd5b6200032f848285620004a0565b509392505050565b600082601f8301126200034957600080fd5b81516200035b848260208601620002f2565b91505092915050565b6000602082840312156200037757600080fd5b600082015167ffffffffffffffff8111156200039257600080fd5b620003a08482850162000337565b91505092915050565b6000620003b68262000484565b620003c281856200048f565b9350620003d4818560208601620004a0565b620003df81620005a0565b840191505092915050565b60006040820190508181036000830152620004068185620003a9565b905081810360208301526200041c8184620003a9565b90509392505050565b60006200043162000444565b90506200043f82826200050c565b919050565b6000604051905090565b600067ffffffffffffffff8211156200046c576200046b62000571565b5b6200047782620005a0565b9050602081019050919050565b600081519050919050565b600082825260208201905092915050565b60005b83811015620004c0578082015181840152602081019050620004a3565b83811115620004d0576000848401525b50505050565b60006002820490506001821680620004ef57607f821691505b6020821081141562000506576200050562000542565b5b50919050565b6200051782620005a0565b810181811067ffffffffffffffff8211171562000539576200053862000571565b5b80604052505050565b7f4e487b7100000000000000000000000000000000000000000000000000000000600052602260045260246000fd5b7f4e487b7100000000000000000000000000000000000000000000000000000000600052604160045260246000fd5b6000601f19601f8301169050919050565b61170980620005c16000396000f3fe6080604052600436106100865760003560e01c8063cb13cddb11610059578063cb13cddb14610135578063d0e30db014610172578063eb68757f1461017c578063f2fde38b146101a5578063f3fef3a3146101ce57610086565b806370740aab1461008b578063715018a6146100b65780638da5cb5b146100cd578063956501bb146100f8575b600080fd5b34801561009757600080fd5b506100a06101f7565b6040516100ad9190611060565b60405180910390f35b3480156100c257600080fd5b506100cb610285565b005b3480156100d957600080fd5b506100e261030d565b6040516100ef9190610fc3565b60405180910390f35b34801561010457600080fd5b5061011f600480360381019061011a9190610d2d565b610336565b60405161012c9190611203565b60405180910390f35b34801561014157600080fd5b5061015c60048036038101906101579190610d2d565b61037f565b6040516101699190611203565b60405180910390f35b61017a610397565b005b34801561018857600080fd5b506101a3600480360381019061019e9190610d92565b6104ab565b005b3480156101b157600080fd5b506101cc60048036038101906101c79190610d2d565b6105ac565b005b3480156101da57600080fd5b506101f560048036038101906101f09190610d56565b6106a4565b005b6001805461020490611400565b80601f016020809104026020016040519081016040528092919081815260200182805461023090611400565b801561027d5780601f106102525761010080835404028352916020019161027d565b820191906000526020600020905b81548152906001019060200180831161026057829003601f168201915b505050505081565b61028d6109b0565b73ffffffffffffffffffffffffffffffffffffffff166102ab61030d565b73ffffffffffffffffffffffffffffffffffffffff1614610301576040517f08c379a00000000000000000000000000000000000000000000000000000000081526004016102f8906111c3565b60405180910390fd5b61030b60006109b8565b565b60008060009054906101000a900473ffffffffffffffffffffffffffffffffffffffff16905090565b6000600260008373ffffffffffffffffffffffffffffffffffffffff1673ffffffffffffffffffffffffffffffffffffffff168152602001908152602001600020549050919050565b60026020528060005260406000206000915090505481565b600034116103da576040517f08c379a00000000000000000000000000000000000000000000000000000000081526004016103d1906111a3565b60405180910390fd5b61041a6040518060400160405280600f81526020017f272573206465706f7369747320257300000000000000000000000000000000008152503334610a7c565b34600260003373ffffffffffffffffffffffffffffffffffffffff1673ffffffffffffffffffffffffffffffffffffffff168152602001908152602001600020600082825461046991906112b0565b925050819055507fe1fffcc4923d04b559f4d29a8bfc6cda04eb5b0d3c460751c2402c5c5cc9109c33346040516104a1929190611037565b60405180910390a1565b6105586040518060600160405280602281526020016116b260229139600180546104d490611400565b80601f016020809104026020016040519081016040528092919081815260200182805461050090611400565b801561054d5780601f106105225761010080835404028352916020019161054d565b820191906000526020600020905b81548152906001019060200180831161053057829003601f168201915b505050505083610b1b565b806001908051906020019061056e929190610be3565b507f6ea5d6383a120235c7728a9a6751672a8ac068e4ed34dcca2ee444182c1812de3360016040516105a1929190611007565b60405180910390a150565b6105b46109b0565b73ffffffffffffffffffffffffffffffffffffffff166105d261030d565b73ffffffffffffffffffffffffffffffffffffffff1614610628576040517f08c379a000000000000000000000000000000000000000000000000000000000815260040161061f906111c3565b60405180910390fd5b600073ffffffffffffffffffffffffffffffffffffffff168173ffffffffffffffffffffffffffffffffffffffff161415610698576040517f08c379a000000000000000000000000000000000000000000000000000000000815260040161068f90611143565b60405180910390fd5b6106a1816109b8565b50565b8173ffffffffffffffffffffffffffffffffffffffff163373ffffffffffffffffffffffffffffffffffffffff1614610712576040517f08c379a000000000000000000000000000000000000000000000000000000000815260040161070990611163565b60405180910390fd5b80600260003373ffffffffffffffffffffffffffffffffffffffff1673ffffffffffffffffffffffffffffffffffffffff168152602001908152602001600020541015610794576040517f08c379a000000000000000000000000000000000000000000000000000000000815260040161078b906111e3565b60405180910390fd5b80600260008473ffffffffffffffffffffffffffffffffffffffff1673ffffffffffffffffffffffffffffffffffffffff16815260200190815260200160002060008282546107e39190611306565b9250508190555060008273ffffffffffffffffffffffffffffffffffffffff168260405161081090610fae565b60006040518083038185875af1925050503d806000811461084d576040519150601f19603f3d011682016040523d82523d6000602084013e610852565b606091505b5050905080610896576040517f08c379a000000000000000000000000000000000000000000000000000000000815260040161088d90611183565b60405180910390fd5b6108d66040518060400160405280601081526020017f27257320776974686472617773202573000000000000000000000000000000008152508484610a7c565b7f884edad9ce6fa2440d8a54cc123490eb96d2768479d49ff9c7366125a94243648383604051610907929190610fde565b60405180910390a1505050565b6109ac828260405160240161092a9291906110c0565b6040516020818303038152906040527f4b5c4277000000000000000000000000000000000000000000000000000000007bffffffffffffffffffffffffffffffffffffffffffffffffffffffff19166020820180517bffffffffffffffffffffffffffffffffffffffffffffffffffffffff8381831617835250505050610bba565b5050565b600033905090565b60008060009054906101000a900473ffffffffffffffffffffffffffffffffffffffff169050816000806101000a81548173ffffffffffffffffffffffffffffffffffffffff021916908373ffffffffffffffffffffffffffffffffffffffff1602179055508173ffffffffffffffffffffffffffffffffffffffff168173ffffffffffffffffffffffffffffffffffffffff167f8be0079c531659141344cd1fd0a4f28419497f9722a3daafe3b4186f6b6457e060405160405180910390a35050565b610b16838383604051602401610a9493929190611082565b6040516020818303038152906040527f07c81217000000000000000000000000000000000000000000000000000000007bffffffffffffffffffffffffffffffffffffffffffffffffffffffff19166020820180517bffffffffffffffffffffffffffffffffffffffffffffffffffffffff8381831617835250505050610bba565b505050565b610bb5838383604051602401610b33939291906110f7565b6040516020818303038152906040527f2ced7cef000000000000000000000000000000000000000000000000000000007bffffffffffffffffffffffffffffffffffffffffffffffffffffffff19166020820180517bffffffffffffffffffffffffffffffffffffffffffffffffffffffff8381831617835250505050610bba565b505050565b60008151905060006a636f6e736f6c652e6c6f679050602083016000808483855afa5050505050565b828054610bef90611400565b90600052602060002090601f016020900481019282610c115760008555610c58565b82601f10610c2a57805160ff1916838001178555610c58565b82800160010185558215610c58579182015b82811115610c57578251825591602001919060010190610c3c565b5b509050610c659190610c69565b5090565b5b80821115610c82576000816000905550600101610c6a565b5090565b6000610c99610c9484611243565b61121e565b905082815260208101848484011115610cb157600080fd5b610cbc8482856113be565b509392505050565b600081359050610cd38161166c565b92915050565b600081359050610ce881611683565b92915050565b600082601f830112610cff57600080fd5b8135610d0f848260208601610c86565b91505092915050565b600081359050610d278161169a565b92915050565b600060208284031215610d3f57600080fd5b6000610d4d84828501610cc4565b91505092915050565b60008060408385031215610d6957600080fd5b6000610d7785828601610cd9565b9250506020610d8885828601610d18565b9150509250929050565b600060208284031215610da457600080fd5b600082013567ffffffffffffffff811115610dbe57600080fd5b610dca84828501610cee565b91505092915050565b610ddc81611388565b82525050565b610deb8161133a565b82525050565b6000610dfc82611289565b610e06818561129f565b9350610e168185602086016113cd565b610e1f816114f0565b840191505092915050565b60008154610e3781611400565b610e41818661129f565b94506001821660008114610e5c5760018114610e6e57610ea1565b60ff1983168652602086019350610ea1565b610e7785611274565b60005b83811015610e9957815481890152600182019150602081019050610e7a565b808801955050505b50505092915050565b6000610eb760268361129f565b9150610ec282611501565b604082019050919050565b6000610eda601a8361129f565b9150610ee582611550565b602082019050919050565b6000610efd60318361129f565b9150610f0882611579565b604082019050919050565b6000610f2060108361129f565b9150610f2b826115c8565b602082019050919050565b6000610f4360208361129f565b9150610f4e826115f1565b602082019050919050565b6000610f6660278361129f565b9150610f718261161a565b604082019050919050565b6000610f89600083611294565b9150610f9482611669565b600082019050919050565b610fa88161137e565b82525050565b6000610fb982610f7c565b9150819050919050565b6000602082019050610fd86000830184610de2565b92915050565b6000604082019050610ff36000830185610dd3565b6110006020830184610f9f565b9392505050565b600060408201905061101c6000830185610de2565b818103602083015261102e8184610e2a565b90509392505050565b600060408201905061104c6000830185610de2565b6110596020830184610f9f565b9392505050565b6000602082019050818103600083015261107a8184610df1565b905092915050565b6000606082019050818103600083015261109c8186610df1565b90506110ab6020830185610de2565b6110b86040830184610f9f565b949350505050565b600060408201905081810360008301526110da8185610df1565b905081810360208301526110ee8184610df1565b90509392505050565b600060608201905081810360008301526111118186610df1565b905081810360208301526111258185610df1565b905081810360408301526111398184610df1565b9050949350505050565b6000602082019050818103600083015261115c81610eaa565b9050919050565b6000602082019050818103600083015261117c81610ecd565b9050919050565b6000602082019050818103600083015261119c81610ef0565b9050919050565b600060208201905081810360008301526111bc81610f13565b9050919050565b600060208201905081810360008301526111dc81610f36565b9050919050565b600060208201905081810360008301526111fc81610f59565b9050919050565b60006020820190506112186000830184610f9f565b92915050565b6000611228611239565b90506112348282611432565b919050565b6000604051905090565b600067ffffffffffffffff82111561125e5761125d6114c1565b5b611267826114f0565b9050602081019050919050565b60008190508160005260206000209050919050565b600081519050919050565b600081905092915050565b600082825260208201905092915050565b60006112bb8261137e565b91506112c68361137e565b9250827fffffffffffffffffffffffffffffffffffffffffffffffffffffffffffffffff038211156112fb576112fa611463565b5b828201905092915050565b60006113118261137e565b915061131c8361137e565b92508282101561132f5761132e611463565b5b828203905092915050565b60006113458261135e565b9050919050565b60006113578261135e565b9050919050565b600073ffffffffffffffffffffffffffffffffffffffff82169050919050565b6000819050919050565b60006113938261139a565b9050919050565b60006113a5826113ac565b9050919050565b60006113b78261135e565b9050919050565b82818337600083830152505050565b60005b838110156113eb5780820151818401526020810190506113d0565b838111156113fa576000848401525b50505050565b6000600282049050600182168061141857607f821691505b6020821081141561142c5761142b611492565b5b50919050565b61143b826114f0565b810181811067ffffffffffffffff8211171561145a576114596114c1565b5b80604052505050565b7f4e487b7100000000000000000000000000000000000000000000000000000000600052601160045260246000fd5b7f4e487b7100000000000000000000000000000000000000000000000000000000600052602260045260246000fd5b7f4e487b7100000000000000000000000000000000000000000000000000000000600052604160045260246000fd5b6000601f19601f8301169050919050565b7f4f776e61626c653a206e6577206f776e657220697320746865207a65726f206160008201527f6464726573730000000000000000000000000000000000000000000000000000602082015250565b7f63616e6e6f74207769746864726177206f746865727320455448000000000000600082015250565b7f756e61626c6520746f2073656e642076616c75652c20726563697069656e742060008201527f6d61792068617665207265766572746564000000000000000000000000000000602082015250565b7f63616e6e6f74206465706f736974203000000000000000000000000000000000600082015250565b7f4f776e61626c653a2063616c6c6572206973206e6f7420746865206f776e6572600082015250565b7f63616e6e6f74207769746864726177206d6f7265207468616e20796f7520646560008201527f706f736974656400000000000000000000000000000000000000000000000000602082015250565b50565b6116758161133a565b811461168057600080fd5b50565b61168c8161134c565b811461169757600080fd5b50565b6116a38161137e565b81146116ae57600080fd5b5056fe4368616e67696e6720707572706f73652066726f6d202725732720746f2027257327a26469706673582212205f1600c2a7eab61a110e31f27474673c33b24b553f4a6779d8e50fbc8c99546764736f6c634300080100334465706c6f79696e67204d79436f6e7472616374207769746820707572706f73653a",
  "devdoc": {
    "kind": "dev",
    "methods": {
      "owner()": {
        "details": "Returns the address of the current owner."
      },
      "renounceOwnership()": {
        "details": "Leaves the contract without owner. It will not be possible to call `onlyOwner` functions anymore. Can only be called by the current owner. NOTE: Renouncing ownership will leave the contract without an owner, thereby removing any functionality that is only available to the owner."
      },
      "transferOwnership(address)": {
        "details": "Transfers ownership of the contract to a new account (`newOwner`). Can only be called by the current owner."
      }
    },
    "version": 1
  },
  "userdoc": {
    "kind": "user",
    "methods": {},
    "version": 1
  },
  "storageLayout": {
    "storage": [
      {
        "astId": 7,
        "contract": "src/MyContract.sol:MyContract",
        "label": "_owner",
        "offset": 0,
        "slot": "0",
        "type": "t_address"
      },
      {
        "astId": 10076,
        "contract": "src/MyContract.sol:MyContract",
        "label": "purpose",
        "offset": 0,
        "slot": "1",
        "type": "t_string_storage"
      },
      {
        "astId": 10080,
        "contract": "src/MyContract.sol:MyContract",
        "label": "deposited",
        "offset": 0,
        "slot": "2",
        "type": "t_mapping(t_address,t_uint256)"
      }
    ],
    "types": {
      "t_address": {
        "encoding": "inplace",
        "label": "address",
        "numberOfBytes": "20"
      },
      "t_mapping(t_address,t_uint256)": {
        "encoding": "mapping",
        "key": "t_address",
        "label": "mapping(address => uint256)",
        "numberOfBytes": "32",
        "value": "t_uint256"
      },
      "t_string_storage": {
        "encoding": "bytes",
        "label": "string",
        "numberOfBytes": "32"
      },
      "t_uint256": {
        "encoding": "inplace",
        "label": "uint256",
        "numberOfBytes": "32"
      }
    }
  }
}