{
  "address": "0x80C323bd831770D0E9Ba15856Eeb7159A11bd02f",
  "abi": [
    {
      "inputs": [],
      "stateMutability": "nonpayable",
      "type": "constructor"
    },
    {
      "anonymous": false,
      "inputs": [
        {
          "indexed": true,
          "internalType": "address",
          "name": "owner",
          "type": "address"
        },
        {
          "indexed": true,
          "internalType": "address",
          "name": "approved",
          "type": "address"
        },
        {
          "indexed": true,
          "internalType": "uint256",
          "name": "tokenId",
          "type": "uint256"
        }
      ],
      "name": "Approval",
      "type": "event"
    },
    {
      "anonymous": false,
      "inputs": [
        {
          "indexed": true,
          "internalType": "address",
          "name": "owner",
          "type": "address"
        },
        {
          "indexed": true,
          "internalType": "address",
          "name": "operator",
          "type": "address"
        },
        {
          "indexed": false,
          "internalType": "bool",
          "name": "approved",
          "type": "bool"
        }
      ],
      "name": "ApprovalForAll",
      "type": "event"
    },
    {
      "anonymous": false,
      "inputs": [
        {
          "indexed": false,
          "internalType": "address",
          "name": "sender",
          "type": "address"
        },
        {
          "indexed": false,
          "internalType": "uint256",
          "name": "tokenId",
          "type": "uint256"
        }
      ],
      "name": "NewEpicNFTMinted",
      "type": "event"
    },
    {
      "anonymous": false,
      "inputs": [
        {
          "indexed": true,
          "internalType": "address",
          "name": "from",
          "type": "address"
        },
        {
          "indexed": true,
          "internalType": "address",
          "name": "to",
          "type": "address"
        },
        {
          "indexed": true,
          "internalType": "uint256",
          "name": "tokenId",
          "type": "uint256"
        }
      ],
      "name": "Transfer",
      "type": "event"
    },
    {
      "inputs": [
        {
          "internalType": "address",
          "name": "to",
          "type": "address"
        },
        {
          "internalType": "uint256",
          "name": "tokenId",
          "type": "uint256"
        }
      ],
      "name": "approve",
      "outputs": [],
      "stateMutability": "nonpayable",
      "type": "function"
    },
    {
      "inputs": [
        {
          "internalType": "address",
          "name": "owner",
          "type": "address"
        }
      ],
      "name": "balanceOf",
      "outputs": [
        {
          "internalType": "uint256",
          "name": "",
          "type": "uint256"
        }
      ],
      "stateMutability": "view",
      "type": "function"
    },
    {
      "inputs": [
        {
          "internalType": "uint256",
          "name": "tokenId",
          "type": "uint256"
        }
      ],
      "name": "getApproved",
      "outputs": [
        {
          "internalType": "address",
          "name": "",
          "type": "address"
        }
      ],
      "stateMutability": "view",
      "type": "function"
    },
    {
      "inputs": [],
      "name": "getTotalNFTsMintedSoFar",
      "outputs": [
        {
          "internalType": "uint256",
          "name": "",
          "type": "uint256"
        }
      ],
      "stateMutability": "view",
      "type": "function"
    },
    {
      "inputs": [
        {
          "internalType": "address",
          "name": "owner",
          "type": "address"
        },
        {
          "internalType": "address",
          "name": "operator",
          "type": "address"
        }
      ],
      "name": "isApprovedForAll",
      "outputs": [
        {
          "internalType": "bool",
          "name": "",
          "type": "bool"
        }
      ],
      "stateMutability": "view",
      "type": "function"
    },
    {
      "inputs": [],
      "name": "makeAnEpicNFT",
      "outputs": [],
      "stateMutability": "nonpayable",
      "type": "function"
    },
    {
      "inputs": [],
      "name": "name",
      "outputs": [
        {
          "internalType": "string",
          "name": "",
          "type": "string"
        }
      ],
      "stateMutability": "view",
      "type": "function"
    },
    {
      "inputs": [
        {
          "internalType": "uint256",
          "name": "tokenId",
          "type": "uint256"
        }
      ],
      "name": "ownerOf",
      "outputs": [
        {
          "internalType": "address",
          "name": "",
          "type": "address"
        }
      ],
      "stateMutability": "view",
      "type": "function"
    },
    {
      "inputs": [
        {
          "internalType": "uint256",
          "name": "tokenId",
          "type": "uint256"
        }
      ],
      "name": "pickRandomColor",
      "outputs": [
        {
          "internalType": "string",
          "name": "",
          "type": "string"
        }
      ],
      "stateMutability": "view",
      "type": "function"
    },
    {
      "inputs": [
        {
          "internalType": "uint256",
          "name": "tokenId",
          "type": "uint256"
        }
      ],
      "name": "pickRandomFirstWord",
      "outputs": [
        {
          "internalType": "string",
          "name": "",
          "type": "string"
        }
      ],
      "stateMutability": "view",
      "type": "function"
    },
    {
      "inputs": [
        {
          "internalType": "uint256",
          "name": "tokenId",
          "type": "uint256"
        }
      ],
      "name": "pickRandomSecondWord",
      "outputs": [
        {
          "internalType": "string",
          "name": "",
          "type": "string"
        }
      ],
      "stateMutability": "view",
      "type": "function"
    },
    {
      "inputs": [
        {
          "internalType": "address",
          "name": "from",
          "type": "address"
        },
        {
          "internalType": "address",
          "name": "to",
          "type": "address"
        },
        {
          "internalType": "uint256",
          "name": "tokenId",
          "type": "uint256"
        }
      ],
      "name": "safeTransferFrom",
      "outputs": [],
      "stateMutability": "nonpayable",
      "type": "function"
    },
    {
      "inputs": [
        {
          "internalType": "address",
          "name": "from",
          "type": "address"
        },
        {
          "internalType": "address",
          "name": "to",
          "type": "address"
        },
        {
          "internalType": "uint256",
          "name": "tokenId",
          "type": "uint256"
        },
        {
          "internalType": "bytes",
          "name": "_data",
          "type": "bytes"
        }
      ],
      "name": "safeTransferFrom",
      "outputs": [],
      "stateMutability": "nonpayable",
      "type": "function"
    },
    {
      "inputs": [
        {
          "internalType": "address",
          "name": "operator",
          "type": "address"
        },
        {
          "internalType": "bool",
          "name": "approved",
          "type": "bool"
        }
      ],
      "name": "setApprovalForAll",
      "outputs": [],
      "stateMutability": "nonpayable",
      "type": "function"
    },
    {
      "inputs": [
        {
          "internalType": "bytes4",
          "name": "interfaceId",
          "type": "bytes4"
        }
      ],
      "name": "supportsInterface",
      "outputs": [
        {
          "internalType": "bool",
          "name": "",
          "type": "bool"
        }
      ],
      "stateMutability": "view",
      "type": "function"
    },
    {
      "inputs": [],
      "name": "symbol",
      "outputs": [
        {
          "internalType": "string",
          "name": "",
          "type": "string"
        }
      ],
      "stateMutability": "view",
      "type": "function"
    },
    {
      "inputs": [
        {
          "internalType": "uint256",
          "name": "tokenId",
          "type": "uint256"
        }
      ],
      "name": "tokenURI",
      "outputs": [
        {
          "internalType": "string",
          "name": "",
          "type": "string"
        }
      ],
      "stateMutability": "view",
      "type": "function"
    },
    {
      "inputs": [
        {
          "internalType": "address",
          "name": "from",
          "type": "address"
        },
        {
          "internalType": "address",
          "name": "to",
          "type": "address"
        },
        {
          "internalType": "uint256",
          "name": "tokenId",
          "type": "uint256"
        }
      ],
      "name": "transferFrom",
      "outputs": [],
      "stateMutability": "nonpayable",
      "type": "function"
    }
  ],
  "transactionHash": "0xfae5a32fea11cce64cf44b416da93087a2f79e27fb3e01be7f8e4b4396e8ff77",
  "args": [],
  "numDeployments": 1,
  "solcInputHash": "95fbf2142802c5f42f274214d88c28f2",
  "bytecode": "0x60806040526040518060e0016040528060ac81526020016200471660ac91396008908051906020019062000035929190620006eb565b506040518061022001604052806101fd8152602001620045196101fd9139600990805190602001906200006a929190620006eb565b506040518060c001604052806040518060400160405280600781526020017f506572666563740000000000000000000000000000000000000000000000000081525081526020016040518060400160405280600a81526020017f496e76656e6369626c650000000000000000000000000000000000000000000081525081526020016040518060400160405280600981526020017f4c696d69746c657373000000000000000000000000000000000000000000000081525081526020016040518060400160405280600681526020017f536163726564000000000000000000000000000000000000000000000000000081525081526020016040518060400160405280600781526020017f44656d6f6e69630000000000000000000000000000000000000000000000000081525081526020016040518060400160405280600681526020017f446976696e650000000000000000000000000000000000000000000000000000815250815250600a906006620001e89291906200077c565b506040518060c001604052806040518060400160405280600581526020017f4b696c6c7300000000000000000000000000000000000000000000000000000081525081526020016040518060400160405280600a81526020017f4e6563726f6d616e63790000000000000000000000000000000000000000000081525081526020016040518060400160405280600681526020017f53776f726473000000000000000000000000000000000000000000000000000081525081526020016040518060400160405280600681526020017f537065617273000000000000000000000000000000000000000000000000000081525081526020016040518060400160405280600481526020017f436173740000000000000000000000000000000000000000000000000000000081525081526020016040518060400160405280600881526020017f496e74656c656374000000000000000000000000000000000000000000000000815250815250600b906006620003669291906200077c565b506040518060e001604052806040518060400160405280600481526020017f6379616e0000000000000000000000000000000000000000000000000000000081525081526020016040518060400160405280600381526020017f726564000000000000000000000000000000000000000000000000000000000081525081526020016040518060400160405280600581526020017f776869746500000000000000000000000000000000000000000000000000000081525081526020016040518060400160405280600581526020017f677265656e00000000000000000000000000000000000000000000000000000081525081526020016040518060400160405280600681526020017f79656c6c6f77000000000000000000000000000000000000000000000000000081525081526020016040518060400160405280600481526020017f677261790000000000000000000000000000000000000000000000000000000081525081526020016040518060400160405280600681526020017f707572706c650000000000000000000000000000000000000000000000000000815250815250600c9060076200051f929190620007e3565b503480156200052d57600080fd5b506040518060400160405280600e81526020017f4f505f4d4d43535f56312e312e300000000000000000000000000000000000008152506040518060400160405280600681526020017f4f504d4d435300000000000000000000000000000000000000000000000000008152508160009080519060200190620005b2929190620006eb565b508060019080519060200190620005cb929190620006eb565b505050620006196040518060400160405280601e81526020017f54686973206973206d79204e465420636f6e74726163742e20576f61682100008152506200061f60201b6200118d1760201c565b62000a04565b620006bf8160405160240162000636919062000918565b6040516020818303038152906040527f41304fac000000000000000000000000000000000000000000000000000000007bffffffffffffffffffffffffffffffffffffffffffffffffffffffff19166020820180517bffffffffffffffffffffffffffffffffffffffffffffffffffffffff8381831617835250505050620006c260201b60201c565b50565b60008151905060006a636f6e736f6c652e6c6f679050602083016000808483855afa5050505050565b828054620006f9906200098e565b90600052602060002090601f0160209004810192826200071d576000855562000769565b82601f106200073857805160ff191683800117855562000769565b8280016001018555821562000769579182015b82811115620007685782518255916020019190600101906200074b565b5b5090506200077891906200084a565b5090565b828054828255906000526020600020908101928215620007d0579160200282015b82811115620007cf578251829080519060200190620007be929190620006eb565b50916020019190600101906200079d565b5b509050620007df919062000869565b5090565b82805482825590600052602060002090810192821562000837579160200282015b828111156200083657825182908051906020019062000825929190620006eb565b509160200191906001019062000804565b5b50905062000846919062000869565b5090565b5b80821115620008655760008160009055506001016200084b565b5090565b5b808211156200088d576000818162000883919062000891565b506001016200086a565b5090565b5080546200089f906200098e565b6000825580601f10620008b35750620008d4565b601f016020900490600052602060002090810190620008d391906200084a565b5b50565b6000620008e4826200093c565b620008f0818562000947565b93506200090281856020860162000958565b6200090d81620009f3565b840191505092915050565b60006020820190508181036000830152620009348184620008d7565b905092915050565b600081519050919050565b600082825260208201905092915050565b60005b83811015620009785780820151818401526020810190506200095b565b8381111562000988576000848401525b50505050565b60006002820490506001821680620009a757607f821691505b60208210811415620009be57620009bd620009c4565b5b50919050565b7f4e487b7100000000000000000000000000000000000000000000000000000000600052602260045260246000fd5b6000601f19601f8301169050919050565b613b058062000a146000396000f3fe608060405234801561001057600080fd5b50600436106101165760003560e01c80636352211e116100a2578063b187301f11610071578063b187301f14610305578063b88d4fde14610335578063c87b56dd14610351578063de9d132f14610381578063e985e9c51461038b57610116565b80636352211e1461026b57806370a082311461029b57806395d89b41146102cb578063a22cb465146102e957610116565b8063095ea7b3116100e9578063095ea7b3146101b757806323b872dd146101d35780632de38d68146101ef57806342842e0e1461021f578063514dc8c61461023b57610116565b806301ffc9a71461011b578063060475901461014b57806306fdde0314610169578063081812fc14610187575b600080fd5b6101356004803603810190610130919061259a565b6103bb565b6040516101429190612cd4565b60405180910390f35b61015361049d565b6040516101609190612f6f565b60405180910390f35b6101716104ae565b60405161017e9190612cef565b60405180910390f35b6101a1600480360381019061019c91906125ec565b610540565b6040516101ae9190612c44565b60405180910390f35b6101d160048036038101906101cc919061255e565b6105c5565b005b6101ed60048036038101906101e89190612458565b6106dd565b005b610209600480360381019061020491906125ec565b61073d565b6040516102169190612cef565b60405180910390f35b61023960048036038101906102349190612458565b61085b565b005b610255600480360381019061025091906125ec565b61087b565b6040516102629190612cef565b60405180910390f35b610285600480360381019061028091906125ec565b610999565b6040516102929190612c44565b60405180910390f35b6102b560048036038101906102b091906123f3565b610a4b565b6040516102c29190612f6f565b60405180910390f35b6102d3610b03565b6040516102e09190612cef565b60405180910390f35b61030360048036038101906102fe9190612522565b610b95565b005b61031f600480360381019061031a91906125ec565b610bab565b60405161032c9190612cef565b60405180910390f35b61034f600480360381019061034a91906124a7565b610cc9565b005b61036b600480360381019061036691906125ec565b610d2b565b6040516103789190612cef565b60405180910390f35b610389610e7d565b005b6103a560048036038101906103a0919061241c565b6110f9565b6040516103b29190612cd4565b60405180910390f35b60007f80ac58cd000000000000000000000000000000000000000000000000000000007bffffffffffffffffffffffffffffffffffffffffffffffffffffffff1916827bffffffffffffffffffffffffffffffffffffffffffffffffffffffff1916148061048657507f5b5e139f000000000000000000000000000000000000000000000000000000007bffffffffffffffffffffffffffffffffffffffffffffffffffffffff1916827bffffffffffffffffffffffffffffffffffffffffffffffffffffffff1916145b80610496575061049582611226565b5b9050919050565b60006104a96007611290565b905090565b6060600080546104bd90613203565b80601f01602080910402602001604051908101604052809291908181526020018280546104e990613203565b80156105365780601f1061050b57610100808354040283529160200191610536565b820191906000526020600020905b81548152906001019060200180831161051957829003601f168201915b5050505050905090565b600061054b8261129e565b61058a576040517f08c379a000000000000000000000000000000000000000000000000000000000815260040161058190612ecf565b60405180910390fd5b6004600083815260200190815260200160002060009054906101000a900473ffffffffffffffffffffffffffffffffffffffff169050919050565b60006105d082610999565b90508073ffffffffffffffffffffffffffffffffffffffff168373ffffffffffffffffffffffffffffffffffffffff161415610641576040517f08c379a000000000000000000000000000000000000000000000000000000000815260040161063890612f2f565b60405180910390fd5b8073ffffffffffffffffffffffffffffffffffffffff1661066061130a565b73ffffffffffffffffffffffffffffffffffffffff16148061068f575061068e8161068961130a565b6110f9565b5b6106ce576040517f08c379a00000000000000000000000000000000000000000000000000000000081526004016106c590612e0f565b60405180910390fd5b6106d88383611312565b505050565b6106ee6106e861130a565b826113cb565b61072d576040517f08c379a000000000000000000000000000000000000000000000000000000000815260040161072490612f4f565b60405180910390fd5b6107388383836114a9565b505050565b6060600061077161074d84611710565b60405160200161075d9190612c00565b6040516020818303038152906040526118bd565b9050600a805490508161078491906132af565b9050600a81815481106107c0577f4e487b7100000000000000000000000000000000000000000000000000000000600052603260045260246000fd5b9060005260206000200180546107d590613203565b80601f016020809104026020016040519081016040528092919081815260200182805461080190613203565b801561084e5780601f106108235761010080835404028352916020019161084e565b820191906000526020600020905b81548152906001019060200180831161083157829003601f168201915b5050505050915050919050565b61087683838360405180602001604052806000815250610cc9565b505050565b606060006108af61088b84611710565b60405160200161089b9190612b99565b6040516020818303038152906040526118bd565b9050600c80549050816108c291906132af565b9050600c81815481106108fe577f4e487b7100000000000000000000000000000000000000000000000000000000600052603260045260246000fd5b90600052602060002001805461091390613203565b80601f016020809104026020016040519081016040528092919081815260200182805461093f90613203565b801561098c5780601f106109615761010080835404028352916020019161098c565b820191906000526020600020905b81548152906001019060200180831161096f57829003601f168201915b5050505050915050919050565b6000806002600084815260200190815260200160002060009054906101000a900473ffffffffffffffffffffffffffffffffffffffff169050600073ffffffffffffffffffffffffffffffffffffffff168173ffffffffffffffffffffffffffffffffffffffff161415610a42576040517f08c379a0000000000000000000000000000000000000000000000000000000008152600401610a3990612e4f565b60405180910390fd5b80915050919050565b60008073ffffffffffffffffffffffffffffffffffffffff168273ffffffffffffffffffffffffffffffffffffffff161415610abc576040517f08c379a0000000000000000000000000000000000000000000000000000000008152600401610ab390612e2f565b60405180910390fd5b600360008373ffffffffffffffffffffffffffffffffffffffff1673ffffffffffffffffffffffffffffffffffffffff168152602001908152602001600020549050919050565b606060018054610b1290613203565b80601f0160208091040260200160405190810160405280929190818152602001828054610b3e90613203565b8015610b8b5780601f10610b6057610100808354040283529160200191610b8b565b820191906000526020600020905b815481529060010190602001808311610b6e57829003601f168201915b5050505050905090565b610ba7610ba061130a565b83836118f0565b5050565b60606000610bdf610bbb84611710565b604051602001610bcb9190612b99565b6040516020818303038152906040526118bd565b9050600b8054905081610bf291906132af565b9050600b8181548110610c2e577f4e487b7100000000000000000000000000000000000000000000000000000000600052603260045260246000fd5b906000526020600020018054610c4390613203565b80601f0160208091040260200160405190810160405280929190818152602001828054610c6f90613203565b8015610cbc5780601f10610c9157610100808354040283529160200191610cbc565b820191906000526020600020905b815481529060010190602001808311610c9f57829003601f168201915b5050505050915050919050565b610cda610cd461130a565b836113cb565b610d19576040517f08c379a0000000000000000000000000000000000000000000000000000000008152600401610d1090612f4f565b60405180910390fd5b610d2584848484611a5d565b50505050565b6060610d368261129e565b610d75576040517f08c379a0000000000000000000000000000000000000000000000000000000008152600401610d6c90612eaf565b60405180910390fd5b6000600660008481526020019081526020016000208054610d9590613203565b80601f0160208091040260200160405190810160405280929190818152602001828054610dc190613203565b8015610e0e5780601f10610de357610100808354040283529160200191610e0e565b820191906000526020600020905b815481529060010190602001808311610df157829003601f168201915b505050505090506000610e1f611ab9565b9050600081511415610e35578192505050610e78565b600082511115610e6a578082604051602001610e52929190612ae6565b60405160208183030381529060405292505050610e78565b610e7384611ad0565b925050505b919050565b6000610e896007611290565b9050600a8110610ece576040517f08c379a0000000000000000000000000000000000000000000000000000000008152600401610ec590612eef565b60405180910390fd5b6000610ed98261073d565b90506000610ee683610bab565b90506000610ef38461087b565b905060008160098585604051602001610f0f9493929190612b0a565b604051602081830303815290604052905060008484604051602001610f35929190612ae6565b60405160208183030381529060405290506000600883604051602001610f5c929190612b48565b60405160208183030381529060405290506000610fa183610f7c84611b77565b604051602001610f8d929190612bbb565b604051602081830303815290604052611b77565b9050600081604051602001610fb69190612c22565b60405160208183030381529060405290506110056040518060400160405280601581526020017f0a2d2d2d2d2d2d2d2d2d2d2d2d2d2d2d2d2d2d2d2d000000000000000000000081525061118d565b61100e8461118d565b611036816040516020016110229190612b77565b60405160208183030381529060405261118d565b6110746040518060400160405280601581526020017f2d2d2d2d2d2d2d2d2d2d2d2d2d2d2d2d2d2d2d2d0a000000000000000000000081525061118d565b61107e338a611d16565b6110888982611d34565b6110926007611da8565b6110b5604051806060016040528060258152602001613a6b602591398a33611dbe565b7febb98688741ffa4c7589bf325de30cf7becb63de567842e1ccdb6cb949fdc82c338a6040516110e6929190612cab565b60405180910390a1505050505050505050565b6000600560008473ffffffffffffffffffffffffffffffffffffffff1673ffffffffffffffffffffffffffffffffffffffff16815260200190815260200160002060008373ffffffffffffffffffffffffffffffffffffffff1673ffffffffffffffffffffffffffffffffffffffff16815260200190815260200160002060009054906101000a900460ff16905092915050565b611223816040516024016111a19190612cef565b6040516020818303038152906040527f41304fac000000000000000000000000000000000000000000000000000000007bffffffffffffffffffffffffffffffffffffffffffffffffffffffff19166020820180517bffffffffffffffffffffffffffffffffffffffffffffffffffffffff8381831617835250505050611e5d565b50565b60007f01ffc9a7000000000000000000000000000000000000000000000000000000007bffffffffffffffffffffffffffffffffffffffffffffffffffffffff1916827bffffffffffffffffffffffffffffffffffffffffffffffffffffffff1916149050919050565b600081600001549050919050565b60008073ffffffffffffffffffffffffffffffffffffffff166002600084815260200190815260200160002060009054906101000a900473ffffffffffffffffffffffffffffffffffffffff1673ffffffffffffffffffffffffffffffffffffffff1614159050919050565b600033905090565b816004600083815260200190815260200160002060006101000a81548173ffffffffffffffffffffffffffffffffffffffff021916908373ffffffffffffffffffffffffffffffffffffffff160217905550808273ffffffffffffffffffffffffffffffffffffffff1661138583610999565b73ffffffffffffffffffffffffffffffffffffffff167f8c5be1e5ebec7d5bd14f71427d1e84f3dd0314c0f7b2291e5b200ac8c7c3b92560405160405180910390a45050565b60006113d68261129e565b611415576040517f08c379a000000000000000000000000000000000000000000000000000000000815260040161140c90612def565b60405180910390fd5b600061142083610999565b90508073ffffffffffffffffffffffffffffffffffffffff168473ffffffffffffffffffffffffffffffffffffffff16148061148f57508373ffffffffffffffffffffffffffffffffffffffff1661147784610540565b73ffffffffffffffffffffffffffffffffffffffff16145b806114a0575061149f81856110f9565b5b91505092915050565b8273ffffffffffffffffffffffffffffffffffffffff166114c982610999565b73ffffffffffffffffffffffffffffffffffffffff161461151f576040517f08c379a000000000000000000000000000000000000000000000000000000000815260040161151690612d6f565b60405180910390fd5b600073ffffffffffffffffffffffffffffffffffffffff168273ffffffffffffffffffffffffffffffffffffffff16141561158f576040517f08c379a000000000000000000000000000000000000000000000000000000000815260040161158690612daf565b60405180910390fd5b61159a838383611e86565b6115a5600082611312565b6001600360008573ffffffffffffffffffffffffffffffffffffffff1673ffffffffffffffffffffffffffffffffffffffff16815260200190815260200160002060008282546115f59190613119565b925050819055506001600360008473ffffffffffffffffffffffffffffffffffffffff1673ffffffffffffffffffffffffffffffffffffffff168152602001908152602001600020600082825461164c9190613038565b92505081905550816002600083815260200190815260200160002060006101000a81548173ffffffffffffffffffffffffffffffffffffffff021916908373ffffffffffffffffffffffffffffffffffffffff160217905550808273ffffffffffffffffffffffffffffffffffffffff168473ffffffffffffffffffffffffffffffffffffffff167fddf252ad1be2c89b69c2b068fc378daa952ba7f163c4a11628f55a4df523b3ef60405160405180910390a461170b838383611e8b565b505050565b60606000821415611758576040518060400160405280600181526020017f300000000000000000000000000000000000000000000000000000000000000081525090506118b8565b600082905060005b6000821461178a57808061177390613266565b915050600a82611783919061308e565b9150611760565b60008167ffffffffffffffff8111156117cc577f4e487b7100000000000000000000000000000000000000000000000000000000600052604160045260246000fd5b6040519080825280601f01601f1916602001820160405280156117fe5781602001600182028036833780820191505090505b5090505b600085146118b1576001826118179190613119565b9150600a8561182691906132af565b60306118329190613038565b60f81b81838151811061186e577f4e487b7100000000000000000000000000000000000000000000000000000000600052603260045260246000fd5b60200101907effffffffffffffffffffffffffffffffffffffffffffffffffffffffffffff1916908160001a905350600a856118aa919061308e565b9450611802565b8093505050505b919050565b6000816040516020016118d09190612acf565b6040516020818303038152906040528051906020012060001c9050919050565b8173ffffffffffffffffffffffffffffffffffffffff168373ffffffffffffffffffffffffffffffffffffffff16141561195f576040517f08c379a000000000000000000000000000000000000000000000000000000000815260040161195690612dcf565b60405180910390fd5b80600560008573ffffffffffffffffffffffffffffffffffffffff1673ffffffffffffffffffffffffffffffffffffffff16815260200190815260200160002060008473ffffffffffffffffffffffffffffffffffffffff1673ffffffffffffffffffffffffffffffffffffffff16815260200190815260200160002060006101000a81548160ff0219169083151502179055508173ffffffffffffffffffffffffffffffffffffffff168373ffffffffffffffffffffffffffffffffffffffff167f17307eab39ab6107e8899845ad3d59bd9653f200f220920489ca2b5937696c3183604051611a509190612cd4565b60405180910390a3505050565b611a688484846114a9565b611a7484848484611e90565b611ab3576040517f08c379a0000000000000000000000000000000000000000000000000000000008152600401611aaa90612d4f565b60405180910390fd5b50505050565b606060405180602001604052806000815250905090565b6060611adb8261129e565b611b1a576040517f08c379a0000000000000000000000000000000000000000000000000000000008152600401611b1190612f0f565b60405180910390fd5b6000611b24611ab9565b90506000815111611b445760405180602001604052806000815250611b6f565b80611b4e84611710565b604051602001611b5f929190612ae6565b6040516020818303038152906040525b915050919050565b6060600082511415611b9a57604051806020016040528060008152509050611d11565b6000604051806060016040528060408152602001613a906040913990506000600360028551611bc99190613038565b611bd3919061308e565b6004611bdf91906130bf565b90506000602082611bf09190613038565b67ffffffffffffffff811115611c2f577f4e487b7100000000000000000000000000000000000000000000000000000000600052604160045260246000fd5b6040519080825280601f01601f191660200182016040528015611c615781602001600182028036833780820191505090505b509050818152600183018586518101602084015b81831015611cd0576003830192508251603f8160121c168501518253600182019150603f81600c1c168501518253600182019150603f8160061c168501518253600182019150603f8116850151825360018201915050611c75565b600389510660018114611cea5760028114611cfa57611d05565b613d3d60f01b6002830352611d05565b603d60f81b60018303525b50505050508093505050505b919050565b611d30828260405180602001604052806000815250612027565b5050565b611d3d8261129e565b611d7c576040517f08c379a0000000000000000000000000000000000000000000000000000000008152600401611d7390612e6f565b60405180910390fd5b80600660008481526020019081526020016000209080519060200190611da392919061227f565b505050565b6001816000016000828254019250508190555050565b611e58838383604051602401611dd693929190612d11565b6040516020818303038152906040527fe3849f79000000000000000000000000000000000000000000000000000000007bffffffffffffffffffffffffffffffffffffffffffffffffffffffff19166020820180517bffffffffffffffffffffffffffffffffffffffffffffffffffffffff8381831617835250505050611e5d565b505050565b60008151905060006a636f6e736f6c652e6c6f679050602083016000808483855afa5050505050565b505050565b505050565b6000611eb18473ffffffffffffffffffffffffffffffffffffffff16612082565b1561201a578373ffffffffffffffffffffffffffffffffffffffff1663150b7a02611eda61130a565b8786866040518563ffffffff1660e01b8152600401611efc9493929190612c5f565b602060405180830381600087803b158015611f1657600080fd5b505af1925050508015611f4757506040513d601f19601f82011682018060405250810190611f4491906125c3565b60015b611fca573d8060008114611f77576040519150601f19603f3d011682016040523d82523d6000602084013e611f7c565b606091505b50600081511415611fc2576040517f08c379a0000000000000000000000000000000000000000000000000000000008152600401611fb990612d4f565b60405180910390fd5b805181602001fd5b63150b7a0260e01b7bffffffffffffffffffffffffffffffffffffffffffffffffffffffff1916817bffffffffffffffffffffffffffffffffffffffffffffffffffffffff19161491505061201f565b600190505b949350505050565b61203183836120a5565b61203e6000848484611e90565b61207d576040517f08c379a000000000000000000000000000000000000000000000000000000000815260040161207490612d4f565b60405180910390fd5b505050565b6000808273ffffffffffffffffffffffffffffffffffffffff163b119050919050565b600073ffffffffffffffffffffffffffffffffffffffff168273ffffffffffffffffffffffffffffffffffffffff161415612115576040517f08c379a000000000000000000000000000000000000000000000000000000000815260040161210c90612e8f565b60405180910390fd5b61211e8161129e565b1561215e576040517f08c379a000000000000000000000000000000000000000000000000000000000815260040161215590612d8f565b60405180910390fd5b61216a60008383611e86565b6001600360008473ffffffffffffffffffffffffffffffffffffffff1673ffffffffffffffffffffffffffffffffffffffff16815260200190815260200160002060008282546121ba9190613038565b92505081905550816002600083815260200190815260200160002060006101000a81548173ffffffffffffffffffffffffffffffffffffffff021916908373ffffffffffffffffffffffffffffffffffffffff160217905550808273ffffffffffffffffffffffffffffffffffffffff16600073ffffffffffffffffffffffffffffffffffffffff167fddf252ad1be2c89b69c2b068fc378daa952ba7f163c4a11628f55a4df523b3ef60405160405180910390a461227b60008383611e8b565b5050565b82805461228b90613203565b90600052602060002090601f0160209004810192826122ad57600085556122f4565b82601f106122c657805160ff19168380011785556122f4565b828001600101855582156122f4579182015b828111156122f35782518255916020019190600101906122d8565b5b5090506123019190612305565b5090565b5b8082111561231e576000816000905550600101612306565b5090565b600061233561233084612faf565b612f8a565b90508281526020810184848401111561234d57600080fd5b6123588482856131c1565b509392505050565b60008135905061236f81613a0e565b92915050565b60008135905061238481613a25565b92915050565b60008135905061239981613a3c565b92915050565b6000815190506123ae81613a3c565b92915050565b600082601f8301126123c557600080fd5b81356123d5848260208601612322565b91505092915050565b6000813590506123ed81613a53565b92915050565b60006020828403121561240557600080fd5b600061241384828501612360565b91505092915050565b6000806040838503121561242f57600080fd5b600061243d85828601612360565b925050602061244e85828601612360565b9150509250929050565b60008060006060848603121561246d57600080fd5b600061247b86828701612360565b935050602061248c86828701612360565b925050604061249d868287016123de565b9150509250925092565b600080600080608085870312156124bd57600080fd5b60006124cb87828801612360565b94505060206124dc87828801612360565b93505060406124ed878288016123de565b925050606085013567ffffffffffffffff81111561250a57600080fd5b612516878288016123b4565b91505092959194509250565b6000806040838503121561253557600080fd5b600061254385828601612360565b925050602061255485828601612375565b9150509250929050565b6000806040838503121561257157600080fd5b600061257f85828601612360565b9250506020612590858286016123de565b9150509250929050565b6000602082840312156125ac57600080fd5b60006125ba8482850161238a565b91505092915050565b6000602082840312156125d557600080fd5b60006125e38482850161239f565b91505092915050565b6000602082840312156125fe57600080fd5b600061260c848285016123de565b91505092915050565b61261e8161314d565b82525050565b61262d8161315f565b82525050565b600061263e82612ff5565b612648818561300b565b93506126588185602086016131d0565b6126618161339c565b840191505092915050565b600061267782613000565b612681818561301c565b93506126918185602086016131d0565b61269a8161339c565b840191505092915050565b60006126b082613000565b6126ba818561302d565b93506126ca8185602086016131d0565b80840191505092915050565b600081546126e381613203565b6126ed818661302d565b9450600182166000811461270857600181146127195761274c565b60ff1983168652818601935061274c565b61272285612fe0565b60005b8381101561274457815481890152600182019150602081019050612725565b838801955050505b50505092915050565b600061276260258361302d565b915061276d826133ad565b602582019050919050565b600061278560328361301c565b9150612790826133fc565b604082019050919050565b60006127a860258361301c565b91506127b38261344b565b604082019050919050565b60006127cb60488361302d565b91506127d68261349a565b604882019050919050565b60006127ee601c8361301c565b91506127f98261350f565b602082019050919050565b600061281160248361301c565b915061281c82613538565b604082019050919050565b600061283460198361301c565b915061283f82613587565b602082019050919050565b6000612857600b8361302d565b9150612862826135b0565b600b82019050919050565b600061287a602c8361301c565b9150612885826135d9565b604082019050919050565b600061289d600d8361302d565b91506128a882613628565b600d82019050919050565b60006128c060388361301c565b91506128cb82613651565b604082019050919050565b60006128e3602a8361301c565b91506128ee826136a0565b604082019050919050565b600061290660298361301c565b9150612911826136ef565b604082019050919050565b6000612929602e8361301c565b91506129348261373e565b604082019050919050565b600061294c60028361302d565b91506129578261378d565b600282019050919050565b600061296f60208361301c565b915061297a826137b6565b602082019050919050565b600061299260318361301c565b915061299d826137df565b604082019050919050565b60006129b5602c8361301c565b91506129c08261382e565b604082019050919050565b60006129d860098361301c565b91506129e38261387d565b602082019050919050565b60006129fb602f8361301c565b9150612a06826138a6565b604082019050919050565b6000612a1e600a8361302d565b9150612a29826138f5565b600a82019050919050565b6000612a4160218361301c565b9150612a4c8261391e565b604082019050919050565b6000612a64600a8361302d565b9150612a6f8261396d565b600a82019050919050565b6000612a87601d8361302d565b9150612a9282613996565b601d82019050919050565b6000612aaa60318361301c565b9150612ab5826139bf565b604082019050919050565b612ac9816131b7565b82525050565b6000612adb82846126a5565b915081905092915050565b6000612af282856126a5565b9150612afe82846126a5565b91508190509392505050565b6000612b1682876126a5565b9150612b2282866126d6565b9150612b2e82856126a5565b9150612b3a82846126a5565b915081905095945050505050565b6000612b5482856126d6565b9150612b6082846126a5565b9150612b6b82612890565b91508190509392505050565b6000612b8282612755565b9150612b8e82846126a5565b915081905092915050565b6000612ba48261284a565b9150612bb082846126a5565b915081905092915050565b6000612bc682612a11565b9150612bd282856126a5565b9150612bdd826127be565b9150612be982846126a5565b9150612bf48261293f565b91508190509392505050565b6000612c0b82612a57565b9150612c1782846126a5565b915081905092915050565b6000612c2d82612a7a565b9150612c3982846126a5565b915081905092915050565b6000602082019050612c596000830184612615565b92915050565b6000608082019050612c746000830187612615565b612c816020830186612615565b612c8e6040830185612ac0565b8181036060830152612ca08184612633565b905095945050505050565b6000604082019050612cc06000830185612615565b612ccd6020830184612ac0565b9392505050565b6000602082019050612ce96000830184612624565b92915050565b60006020820190508181036000830152612d09818461266c565b905092915050565b60006060820190508181036000830152612d2b818661266c565b9050612d3a6020830185612ac0565b612d476040830184612615565b949350505050565b60006020820190508181036000830152612d6881612778565b9050919050565b60006020820190508181036000830152612d888161279b565b9050919050565b60006020820190508181036000830152612da8816127e1565b9050919050565b60006020820190508181036000830152612dc881612804565b9050919050565b60006020820190508181036000830152612de881612827565b9050919050565b60006020820190508181036000830152612e088161286d565b9050919050565b60006020820190508181036000830152612e28816128b3565b9050919050565b60006020820190508181036000830152612e48816128d6565b9050919050565b60006020820190508181036000830152612e68816128f9565b9050919050565b60006020820190508181036000830152612e888161291c565b9050919050565b60006020820190508181036000830152612ea881612962565b9050919050565b60006020820190508181036000830152612ec881612985565b9050919050565b60006020820190508181036000830152612ee8816129a8565b9050919050565b60006020820190508181036000830152612f08816129cb565b9050919050565b60006020820190508181036000830152612f28816129ee565b9050919050565b60006020820190508181036000830152612f4881612a34565b9050919050565b60006020820190508181036000830152612f6881612a9d565b9050919050565b6000602082019050612f846000830184612ac0565b92915050565b6000612f94612fa5565b9050612fa08282613235565b919050565b6000604051905090565b600067ffffffffffffffff821115612fca57612fc961336d565b5b612fd38261339c565b9050602081019050919050565b60008190508160005260206000209050919050565b600081519050919050565b600081519050919050565b600082825260208201905092915050565b600082825260208201905092915050565b600081905092915050565b6000613043826131b7565b915061304e836131b7565b9250827fffffffffffffffffffffffffffffffffffffffffffffffffffffffffffffffff03821115613083576130826132e0565b5b828201905092915050565b6000613099826131b7565b91506130a4836131b7565b9250826130b4576130b361330f565b5b828204905092915050565b60006130ca826131b7565b91506130d5836131b7565b9250817fffffffffffffffffffffffffffffffffffffffffffffffffffffffffffffffff048311821515161561310e5761310d6132e0565b5b828202905092915050565b6000613124826131b7565b915061312f836131b7565b925082821015613142576131416132e0565b5b828203905092915050565b600061315882613197565b9050919050565b60008115159050919050565b60007fffffffff0000000000000000000000000000000000000000000000000000000082169050919050565b600073ffffffffffffffffffffffffffffffffffffffff82169050919050565b6000819050919050565b82818337600083830152505050565b60005b838110156131ee5780820151818401526020810190506131d3565b838111156131fd576000848401525b50505050565b6000600282049050600182168061321b57607f821691505b6020821081141561322f5761322e61333e565b5b50919050565b61323e8261339c565b810181811067ffffffffffffffff8211171561325d5761325c61336d565b5b80604052505050565b6000613271826131b7565b91507fffffffffffffffffffffffffffffffffffffffffffffffffffffffffffffffff8214156132a4576132a36132e0565b5b600182019050919050565b60006132ba826131b7565b91506132c5836131b7565b9250826132d5576132d461330f565b5b828206905092915050565b7f4e487b7100000000000000000000000000000000000000000000000000000000600052601160045260246000fd5b7f4e487b7100000000000000000000000000000000000000000000000000000000600052601260045260246000fd5b7f4e487b7100000000000000000000000000000000000000000000000000000000600052602260045260246000fd5b7f4e487b7100000000000000000000000000000000000000000000000000000000600052604160045260246000fd5b6000601f19601f8301169050919050565b7f68747470733a2f2f6e6674707265766965772e30786465762e636f6465732f3f60008201527f636f64653d000000000000000000000000000000000000000000000000000000602082015250565b7f4552433732313a207472616e7366657220746f206e6f6e20455243373231526560008201527f63656976657220696d706c656d656e7465720000000000000000000000000000602082015250565b7f4552433732313a207472616e736665722066726f6d20696e636f72726563742060008201527f6f776e6572000000000000000000000000000000000000000000000000000000602082015250565b7f222c20226465736372697074696f6e223a20224f50204d4d435320504f57455260008201527f53222c2022696d616765223a2022646174613a696d6167652f7376672b786d6c60208201527f3b6261736536342c000000000000000000000000000000000000000000000000604082015250565b7f4552433732313a20746f6b656e20616c7265616479206d696e74656400000000600082015250565b7f4552433732313a207472616e7366657220746f20746865207a65726f2061646460008201527f7265737300000000000000000000000000000000000000000000000000000000602082015250565b7f4552433732313a20617070726f766520746f2063616c6c657200000000000000600082015250565b7f5345434f4e445f574f5244000000000000000000000000000000000000000000600082015250565b7f4552433732313a206f70657261746f7220717565727920666f72206e6f6e657860008201527f697374656e7420746f6b656e0000000000000000000000000000000000000000602082015250565b7f3c2f746578743e3c2f7376673e00000000000000000000000000000000000000600082015250565b7f4552433732313a20617070726f76652063616c6c6572206973206e6f74206f7760008201527f6e6572206e6f7220617070726f76656420666f7220616c6c0000000000000000602082015250565b7f4552433732313a2062616c616e636520717565727920666f7220746865207a6560008201527f726f206164647265737300000000000000000000000000000000000000000000602082015250565b7f4552433732313a206f776e657220717565727920666f72206e6f6e657869737460008201527f656e7420746f6b656e0000000000000000000000000000000000000000000000602082015250565b7f45524337323155524953746f726167653a2055524920736574206f66206e6f6e60008201527f6578697374656e7420746f6b656e000000000000000000000000000000000000602082015250565b7f227d000000000000000000000000000000000000000000000000000000000000600082015250565b7f4552433732313a206d696e7420746f20746865207a65726f2061646472657373600082015250565b7f45524337323155524953746f726167653a2055524920717565727920666f722060008201527f6e6f6e6578697374656e7420746f6b656e000000000000000000000000000000602082015250565b7f4552433732313a20617070726f76656420717565727920666f72206e6f6e657860008201527f697374656e7420746f6b656e0000000000000000000000000000000000000000602082015250565b7f534f4c44204f5554210000000000000000000000000000000000000000000000600082015250565b7f4552433732314d657461646174613a2055524920717565727920666f72206e6f60008201527f6e6578697374656e7420746f6b656e0000000000000000000000000000000000602082015250565b7f7b226e616d65223a202200000000000000000000000000000000000000000000600082015250565b7f4552433732313a20617070726f76616c20746f2063757272656e74206f776e6560008201527f7200000000000000000000000000000000000000000000000000000000000000602082015250565b7f46495253545f574f524400000000000000000000000000000000000000000000600082015250565b7f646174613a6170706c69636174696f6e2f6a736f6e3b6261736536342c000000600082015250565b7f4552433732313a207472616e736665722063616c6c6572206973206e6f74206f60008201527f776e6572206e6f7220617070726f766564000000000000000000000000000000602082015250565b613a178161314d565b8114613a2257600080fd5b50565b613a2e8161315f565b8114613a3957600080fd5b50565b613a458161316b565b8114613a5057600080fd5b50565b613a5c816131b7565b8114613a6757600080fd5b5056fe416e204e465420772f20494420257320686173206265656e206d696e74656420746f2025734142434445464748494a4b4c4d4e4f505152535455565758595a6162636465666768696a6b6c6d6e6f707172737475767778797a303132333435363738392b2fa26469706673582212203e6c6770308c1ddc08f124cf7b9efc8dda4ccb16c90e8696a81e6f7c1ddd017e64736f6c63430008010033272f3e3c73746f70206f66667365743d2731303025272073746f702d636f6c6f723d27626c7565272f3e3c2f72616469616c4772616469656e743e3c72616469616c4772616469656e742069643d2752616469616c4772616469656e7432272063783d27302e3235272063793d27302e32352720723d27302e3235273e3c73746f70206f66667365743d273025272073746f702d636f6c6f723d27726564272f3e3c73746f70206f66667365743d2731303025272073746f702d636f6c6f723d27626c7565272f3e3c2f72616469616c4772616469656e743e3c2f646566733e3c7374796c653e2e62617365207b2066696c6c3a2077686974653b20666f6e742d66616d696c793a2073657269663b20666f6e742d73697a653a20313470783b207d2e6865617679207b20666f6e743a206974616c696320333570782073657269663b2066696c6c3a2062616c636b3b207d3c2f7374796c653e3c726563742077696474683d273130302527206865696768743d2731303025272072783d273135272072793d273135272066696c6c3d2775726c282352616469616c4772616469656e743129272f3e3c7465787420783d273530252720793d273530252720636c6173733d2768656176792720646f6d696e616e742d626173656c696e653d276d6964646c652720746578742d616e63686f723d276d6964646c65273e3c73766720786d6c6e733d27687474703a2f2f7777772e77332e6f72672f323030302f73766727207072657365727665417370656374526174696f3d27784d696e594d696e206d656574272076696577426f783d273020302033353020333530273e3c646566733e3c72616469616c4772616469656e742069643d2752616469616c4772616469656e7431273e3c73746f70206f66667365743d27313025272073746f702d636f6c6f723d27",
  "devdoc": {
    "kind": "dev",
    "methods": {
      "approve(address,uint256)": {
        "details": "See {IERC721-approve}."
      },
      "balanceOf(address)": {
        "details": "See {IERC721-balanceOf}."
      },
      "getApproved(uint256)": {
        "details": "See {IERC721-getApproved}."
      },
      "isApprovedForAll(address,address)": {
        "details": "See {IERC721-isApprovedForAll}."
      },
      "name()": {
        "details": "See {IERC721Metadata-name}."
      },
      "ownerOf(uint256)": {
        "details": "See {IERC721-ownerOf}."
      },
      "safeTransferFrom(address,address,uint256)": {
        "details": "See {IERC721-safeTransferFrom}."
      },
      "safeTransferFrom(address,address,uint256,bytes)": {
        "details": "See {IERC721-safeTransferFrom}."
      },
      "setApprovalForAll(address,bool)": {
        "details": "See {IERC721-setApprovalForAll}."
      },
      "supportsInterface(bytes4)": {
        "details": "See {IERC165-supportsInterface}."
      },
      "symbol()": {
        "details": "See {IERC721Metadata-symbol}."
      },
      "tokenURI(uint256)": {
        "details": "See {IERC721Metadata-tokenURI}."
      },
      "transferFrom(address,address,uint256)": {
        "details": "See {IERC721-transferFrom}."
      }
    },
    "version": 1
  },
  "userdoc": {
    "kind": "user",
    "methods": {},
    "version": 1
  },
  "storageLayout": {
    "storage": [
      {
        "astId": 130,
        "contract": "src/MyEpicNFT.sol:MyEpicNFT",
        "label": "_name",
        "offset": 0,
        "slot": "0",
        "type": "t_string_storage"
      },
      {
        "astId": 132,
        "contract": "src/MyEpicNFT.sol:MyEpicNFT",
        "label": "_symbol",
        "offset": 0,
        "slot": "1",
        "type": "t_string_storage"
      },
      {
        "astId": 136,
        "contract": "src/MyEpicNFT.sol:MyEpicNFT",
        "label": "_owners",
        "offset": 0,
        "slot": "2",
        "type": "t_mapping(t_uint256,t_address)"
      },
      {
        "astId": 140,
        "contract": "src/MyEpicNFT.sol:MyEpicNFT",
        "label": "_balances",
        "offset": 0,
        "slot": "3",
        "type": "t_mapping(t_address,t_uint256)"
      },
      {
        "astId": 144,
        "contract": "src/MyEpicNFT.sol:MyEpicNFT",
        "label": "_tokenApprovals",
        "offset": 0,
        "slot": "4",
        "type": "t_mapping(t_uint256,t_address)"
      },
      {
        "astId": 150,
        "contract": "src/MyEpicNFT.sol:MyEpicNFT",
        "label": "_operatorApprovals",
        "offset": 0,
        "slot": "5",
        "type": "t_mapping(t_address,t_mapping(t_address,t_bool))"
      },
      {
        "astId": 1117,
        "contract": "src/MyEpicNFT.sol:MyEpicNFT",
        "label": "_tokenURIs",
        "offset": 0,
        "slot": "6",
        "type": "t_mapping(t_uint256,t_string_storage)"
      },
      {
        "astId": 10265,
        "contract": "src/MyEpicNFT.sol:MyEpicNFT",
        "label": "_tokenIds",
        "offset": 0,
        "slot": "7",
        "type": "t_struct(Counter)1582_storage"
      },
      {
        "astId": 10268,
        "contract": "src/MyEpicNFT.sol:MyEpicNFT",
        "label": "baseSvg",
        "offset": 0,
        "slot": "8",
        "type": "t_string_storage"
      },
      {
        "astId": 10271,
        "contract": "src/MyEpicNFT.sol:MyEpicNFT",
        "label": "baseSvg2",
        "offset": 0,
        "slot": "9",
        "type": "t_string_storage"
      },
      {
        "astId": 10281,
        "contract": "src/MyEpicNFT.sol:MyEpicNFT",
        "label": "firstWords",
        "offset": 0,
        "slot": "10",
        "type": "t_array(t_string_storage)dyn_storage"
      },
      {
        "astId": 10291,
        "contract": "src/MyEpicNFT.sol:MyEpicNFT",
        "label": "secondWords",
        "offset": 0,
        "slot": "11",
        "type": "t_array(t_string_storage)dyn_storage"
      },
      {
        "astId": 10302,
        "contract": "src/MyEpicNFT.sol:MyEpicNFT",
        "label": "colors",
        "offset": 0,
        "slot": "12",
        "type": "t_array(t_string_storage)dyn_storage"
      }
    ],
    "types": {
      "t_address": {
        "encoding": "inplace",
        "label": "address",
        "numberOfBytes": "20"
      },
      "t_array(t_string_storage)dyn_storage": {
        "base": "t_string_storage",
        "encoding": "dynamic_array",
        "label": "string[]",
        "numberOfBytes": "32"
      },
      "t_bool": {
        "encoding": "inplace",
        "label": "bool",
        "numberOfBytes": "1"
      },
      "t_mapping(t_address,t_bool)": {
        "encoding": "mapping",
        "key": "t_address",
        "label": "mapping(address => bool)",
        "numberOfBytes": "32",
        "value": "t_bool"
      },
      "t_mapping(t_address,t_mapping(t_address,t_bool))": {
        "encoding": "mapping",
        "key": "t_address",
        "label": "mapping(address => mapping(address => bool))",
        "numberOfBytes": "32",
        "value": "t_mapping(t_address,t_bool)"
      },
      "t_mapping(t_address,t_uint256)": {
        "encoding": "mapping",
        "key": "t_address",
        "label": "mapping(address => uint256)",
        "numberOfBytes": "32",
        "value": "t_uint256"
      },
      "t_mapping(t_uint256,t_address)": {
        "encoding": "mapping",
        "key": "t_uint256",
        "label": "mapping(uint256 => address)",
        "numberOfBytes": "32",
        "value": "t_address"
      },
      "t_mapping(t_uint256,t_string_storage)": {
        "encoding": "mapping",
        "key": "t_uint256",
        "label": "mapping(uint256 => string)",
        "numberOfBytes": "32",
        "value": "t_string_storage"
      },
      "t_string_storage": {
        "encoding": "bytes",
        "label": "string",
        "numberOfBytes": "32"
      },
      "t_struct(Counter)1582_storage": {
        "encoding": "inplace",
        "label": "struct Counters.Counter",
        "members": [
          {
            "astId": 1581,
            "contract": "src/MyEpicNFT.sol:MyEpicNFT",
            "label": "_value",
            "offset": 0,
            "slot": "0",
            "type": "t_uint256"
          }
        ],
        "numberOfBytes": "32"
      },
      "t_uint256": {
        "encoding": "inplace",
        "label": "uint256",
        "numberOfBytes": "32"
      }
    }
  }
}