{
  "address": "0x756BD072f655A7173830de861cb09E86e3c8E0CB",
  "abi": [
    {
      "inputs": [],
      "stateMutability": "nonpayable",
      "type": "constructor"
    },
    {
      "inputs": [
        {
          "internalType": "address",
          "name": "NFTaddress",
          "type": "address"
        },
        {
          "internalType": "uint16",
          "name": "amount_",
          "type": "uint16"
        }
      ],
      "name": "mint_NFTS",
      "outputs": [],
      "stateMutability": "nonpayable",
      "type": "function"
    },
    {
      "inputs": [
        {
          "internalType": "address",
          "name": "",
          "type": "address"
        },
        {
          "internalType": "address",
          "name": "",
          "type": "address"
        },
        {
          "internalType": "uint256",
          "name": "",
          "type": "uint256"
        },
        {
          "internalType": "bytes",
          "name": "",
          "type": "bytes"
        }
      ],
      "name": "onERC721Received",
      "outputs": [
        {
          "internalType": "bytes4",
          "name": "",
          "type": "bytes4"
        }
      ],
      "stateMutability": "nonpayable",
      "type": "function"
    },
    {
      "inputs": [],
      "name": "viewOwner",
      "outputs": [
        {
          "internalType": "address",
          "name": "",
          "type": "address"
        }
      ],
      "stateMutability": "view",
      "type": "function"
    },
    {
      "inputs": [],
      "name": "viewOwnerName",
      "outputs": [
        {
          "internalType": "string",
          "name": "",
          "type": "string"
        }
      ],
      "stateMutability": "view",
      "type": "function"
    }
  ],
  "transactionHash": "0x283bf62dadf8cefb342a89f3bce2eb13bd9e040d9123e41bfcc408787298b9e8",
  "args": [],
  "numDeployments": 1,
  "solcInputHash": "3308b41394fa376b6258adf2155241bd",
  "bytecode": "0x608060405234801561001057600080fd5b50336000806101000a81548173ffffffffffffffffffffffffffffffffffffffff021916908373ffffffffffffffffffffffffffffffffffffffff160217905550610675806100606000396000f3fe608060405234801561001057600080fd5b506004361061004c5760003560e01c8063150b7a021461005157806388f44bed146100815780639cc0987b1461009d578063bc677b46146100bb575b600080fd5b61006b60048036038101906100669190610281565b6100d9565b60405161007891906103aa565b60405180910390f35b61009b600480360381019061009691906102fc565b6100ed565b005b6100a5610174565b6040516100b291906103c5565b60405180910390f35b6100c36101b1565b6040516100d0919061038f565b60405180910390f35b600063150b7a0260e01b9050949350505050565b60005b8161ffff1681101561016f578273ffffffffffffffffffffffffffffffffffffffff1663de9d132f6040518163ffffffff1660e01b8152600401600060405180830381600087803b15801561014457600080fd5b505af1158015610158573d6000803e3d6000fd5b50505050808061016790610542565b9150506100f0565b505050565b60606040518060400160405280601281526020017f4b61796162615f4174747269627574696f6e0000000000000000000000000000815250905090565b60008060009054906101000a900473ffffffffffffffffffffffffffffffffffffffff16905090565b60006101ed6101e88461040c565b6103e7565b90508281526020810184848401111561020557600080fd5b6102108482856104cf565b509392505050565b600081359050610227816105fa565b92915050565b600082601f83011261023e57600080fd5b813561024e8482602086016101da565b91505092915050565b60008135905061026681610611565b92915050565b60008135905061027b81610628565b92915050565b6000806000806080858703121561029757600080fd5b60006102a587828801610218565b94505060206102b687828801610218565b93505060406102c78782880161026c565b925050606085013567ffffffffffffffff8111156102e457600080fd5b6102f08782880161022d565b91505092959194509250565b6000806040838503121561030f57600080fd5b600061031d85828601610218565b925050602061032e85828601610257565b9150509250929050565b61034181610459565b82525050565b6103508161046b565b82525050565b60006103618261043d565b61036b8185610448565b935061037b8185602086016104de565b610384816105e9565b840191505092915050565b60006020820190506103a46000830184610338565b92915050565b60006020820190506103bf6000830184610347565b92915050565b600060208201905081810360008301526103df8184610356565b905092915050565b60006103f1610402565b90506103fd8282610511565b919050565b6000604051905090565b600067ffffffffffffffff821115610427576104266105ba565b5b610430826105e9565b9050602081019050919050565b600081519050919050565b600082825260208201905092915050565b6000610464826104a5565b9050919050565b60007fffffffff0000000000000000000000000000000000000000000000000000000082169050919050565b600061ffff82169050919050565b600073ffffffffffffffffffffffffffffffffffffffff82169050919050565b6000819050919050565b82818337600083830152505050565b60005b838110156104fc5780820151818401526020810190506104e1565b8381111561050b576000848401525b50505050565b61051a826105e9565b810181811067ffffffffffffffff82111715610539576105386105ba565b5b80604052505050565b600061054d826104c5565b91507fffffffffffffffffffffffffffffffffffffffffffffffffffffffffffffffff8214156105805761057f61058b565b5b600182019050919050565b7f4e487b7100000000000000000000000000000000000000000000000000000000600052601160045260246000fd5b7f4e487b7100000000000000000000000000000000000000000000000000000000600052604160045260246000fd5b6000601f19601f8301169050919050565b61060381610459565b811461060e57600080fd5b50565b61061a81610497565b811461062557600080fd5b50565b610631816104c5565b811461063c57600080fd5b5056fea2646970667358221220ae352ca46c77d6160b06aecc0c9aa13c4de3a792ee9d35c4ddaeef12b0a6f57364736f6c63430008010033",
  "devdoc": {
    "kind": "dev",
    "methods": {},
    "version": 1
  },
  "userdoc": {
    "kind": "user",
    "methods": {
      "onERC721Received(address,address,uint256,bytes)": {
        "notice": "Always returns `IERC721Receiver.onERC721Received.selector`."
      }
    },
    "version": 1
  },
  "storageLayout": {
    "storage": [
      {
        "astId": 47,
        "contract": "src/NFTminter.sol:NFTminter",
        "label": "owner",
        "offset": 0,
        "slot": "0",
        "type": "t_address"
      }
    ],
    "types": {
      "t_address": {
        "encoding": "inplace",
        "label": "address",
        "numberOfBytes": "20"
      }
    }
  }
}