{
  "address": "0x2B35A1aA1c65cA6e57bB822E68f0ffc6B589cE24",
  "abi": [
    {
      "inputs": [
        {
          "internalType": "string",
          "name": "_purpose",
          "type": "string"
        }
      ],
      "stateMutability": "nonpayable",
      "type": "constructor"
    },
    {
      "anonymous": false,
      "inputs": [
        {
          "indexed": false,
          "internalType": "address",
          "name": "user",
          "type": "address"
        },
        {
          "indexed": false,
          "internalType": "uint256",
          "name": "value",
          "type": "uint256"
        }
      ],
      "name": "Deposit",
      "type": "event"
    },
    {
      "anonymous": false,
      "inputs": [
        {
          "indexed": true,
          "internalType": "address",
          "name": "previousOwner",
          "type": "address"
        },
        {
          "indexed": true,
          "internalType": "address",
          "name": "newOwner",
          "type": "address"
        }
      ],
      "name": "OwnershipTransferred",
      "type": "event"
    },
    {
      "anonymous": false,
      "inputs": [
        {
          "indexed": false,
          "internalType": "address",
          "name": "sender",
          "type": "address"
        },
        {
          "indexed": false,
          "internalType": "string",
          "name": "purpose",
          "type": "string"
        }
      ],
      "name": "SetPurpose",
      "type": "event"
    },
    {
      "anonymous": false,
      "inputs": [
        {
          "indexed": false,
          "internalType": "address",
          "name": "user",
          "type": "address"
        },
        {
          "indexed": false,
          "internalType": "uint256",
          "name": "value",
          "type": "uint256"
        }
      ],
      "name": "Withdraw",
      "type": "event"
    },
    {
      "inputs": [],
      "name": "deposit",
      "outputs": [],
      "stateMutability": "payable",
      "type": "function"
    },
    {
      "inputs": [
        {
          "internalType": "address",
          "name": "_user",
          "type": "address"
        }
      ],
      "name": "depositBalance",
      "outputs": [
        {
          "internalType": "uint256",
          "name": "",
          "type": "uint256"
        }
      ],
      "stateMutability": "view",
      "type": "function"
    },
    {
      "inputs": [
        {
          "internalType": "address",
          "name": "",
          "type": "address"
        }
      ],
      "name": "deposited",
      "outputs": [
        {
          "internalType": "uint256",
          "name": "",
          "type": "uint256"
        }
      ],
      "stateMutability": "view",
      "type": "function"
    },
    {
      "inputs": [],
      "name": "owner",
      "outputs": [
        {
          "internalType": "address",
          "name": "",
          "type": "address"
        }
      ],
      "stateMutability": "view",
      "type": "function"
    },
    {
      "inputs": [],
      "name": "purpose",
      "outputs": [
        {
          "internalType": "string",
          "name": "",
          "type": "string"
        }
      ],
      "stateMutability": "view",
      "type": "function"
    },
    {
      "inputs": [],
      "name": "renounceOwnership",
      "outputs": [],
      "stateMutability": "nonpayable",
      "type": "function"
    },
    {
      "inputs": [
        {
          "internalType": "string",
          "name": "_purpose",
          "type": "string"
        }
      ],
      "name": "setPurpose",
      "outputs": [],
      "stateMutability": "nonpayable",
      "type": "function"
    },
    {
      "inputs": [
        {
          "internalType": "address",
          "name": "newOwner",
          "type": "address"
        }
      ],
      "name": "transferOwnership",
      "outputs": [],
      "stateMutability": "nonpayable",
      "type": "function"
    },
    {
      "inputs": [
        {
          "internalType": "address payable",
          "name": "_user",
          "type": "address"
        },
        {
          "internalType": "uint256",
          "name": "_amount",
          "type": "uint256"
        }
      ],
      "name": "withdraw",
      "outputs": [],
      "stateMutability": "nonpayable",
      "type": "function"
    }
  ],
  "transactionHash": "0x471e7a9490469d7e103df3a692f5adc01ce51e21e79c0b0c084dd8a4f2f6beac",
  "args": [
    "Hello, world!"
  ],
  "numDeployments": 1,
  "solcInputHash": "64d9c17efa63b5a9d2b8599c3ecc7cc9",
  "bytecode": "0x60806040523480156200001157600080fd5b5060405162001c4438038062001c44833981810160405281019062000037919062000364565b620000576200004b620000a760201b60201c565b620000af60201b60201c565b6200008760405180606001604052806022815260200162001c2260229139826200017360201b620009141760201c565b80600190805190602001906200009f92919062000242565b505062000583565b600033905090565b60008060009054906101000a900473ffffffffffffffffffffffffffffffffffffffff169050816000806101000a81548173ffffffffffffffffffffffffffffffffffffffff021916908373ffffffffffffffffffffffffffffffffffffffff1602179055508173ffffffffffffffffffffffffffffffffffffffff168173ffffffffffffffffffffffffffffffffffffffff167f8be0079c531659141344cd1fd0a4f28419497f9722a3daafe3b4186f6b6457e060405160405180910390a35050565b6200021582826040516024016200018c929190620003ea565b6040516020818303038152906040527f4b5c4277000000000000000000000000000000000000000000000000000000007bffffffffffffffffffffffffffffffffffffffffffffffffffffffff19166020820180517bffffffffffffffffffffffffffffffffffffffffffffffffffffffff83818316178352505050506200021960201b60201c565b5050565b60008151905060006a636f6e736f6c652e6c6f679050602083016000808483855afa5050505050565b8280546200025090620004de565b90600052602060002090601f016020900481019282620002745760008555620002c0565b82601f106200028f57805160ff1916838001178555620002c0565b82800160010185558215620002c0579182015b82811115620002bf578251825591602001919060010190620002a2565b5b509050620002cf9190620002d3565b5090565b5b80821115620002ee576000816000905550600101620002d4565b5090565b600062000309620003038462000459565b62000425565b9050828152602081018484840111156200032257600080fd5b6200032f848285620004a8565b509392505050565b600082601f8301126200034957600080fd5b81516200035b848260208601620002f2565b91505092915050565b6000602082840312156200037757600080fd5b600082015167ffffffffffffffff8111156200039257600080fd5b620003a08482850162000337565b91505092915050565b6000620003b6826200048c565b620003c2818562000497565b9350620003d4818560208601620004a8565b620003df8162000572565b840191505092915050565b60006040820190508181036000830152620004068185620003a9565b905081810360208301526200041c8184620003a9565b90509392505050565b6000604051905081810181811067ffffffffffffffff821117156200044f576200044e62000543565b5b8060405250919050565b600067ffffffffffffffff82111562000477576200047662000543565b5b601f19601f8301169050602081019050919050565b600081519050919050565b600082825260208201905092915050565b60005b83811015620004c8578082015181840152602081019050620004ab565b83811115620004d8576000848401525b50505050565b60006002820490506001821680620004f757607f821691505b602082108114156200050e576200050d62000514565b5b50919050565b7f4e487b7100000000000000000000000000000000000000000000000000000000600052602260045260246000fd5b7f4e487b7100000000000000000000000000000000000000000000000000000000600052604160045260246000fd5b6000601f19601f8301169050919050565b61168f80620005936000396000f3fe6080604052600436106100865760003560e01c8063cb13cddb11610059578063cb13cddb14610135578063d0e30db014610172578063eb68757f1461017c578063f2fde38b146101a5578063f3fef3a3146101ce57610086565b806370740aab1461008b578063715018a6146100b65780638da5cb5b146100cd578063956501bb146100f8575b600080fd5b34801561009757600080fd5b506100a06101f7565b6040516100ad9190611177565b60405180910390f35b3480156100c257600080fd5b506100cb610285565b005b3480156100d957600080fd5b506100e261030d565b6040516100ef91906110da565b60405180910390f35b34801561010457600080fd5b5061011f600480360381019061011a9190610d2d565b610336565b60405161012c919061131a565b60405180910390f35b34801561014157600080fd5b5061015c60048036038101906101579190610d2d565b61037f565b604051610169919061131a565b60405180910390f35b61017a610397565b005b34801561018857600080fd5b506101a3600480360381019061019e9190610d92565b6104ab565b005b3480156101b157600080fd5b506101cc60048036038101906101c79190610d2d565b6105ac565b005b3480156101da57600080fd5b506101f560048036038101906101f09190610d56565b6106a4565b005b6001805461020490611522565b80601f016020809104026020016040519081016040528092919081815260200182805461023090611522565b801561027d5780601f106102525761010080835404028352916020019161027d565b820191906000526020600020905b81548152906001019060200180831161026057829003601f168201915b505050505081565b61028d6109b0565b73ffffffffffffffffffffffffffffffffffffffff166102ab61030d565b73ffffffffffffffffffffffffffffffffffffffff1614610301576040517f08c379a00000000000000000000000000000000000000000000000000000000081526004016102f8906112da565b60405180910390fd5b61030b60006109b8565b565b60008060009054906101000a900473ffffffffffffffffffffffffffffffffffffffff16905090565b6000600260008373ffffffffffffffffffffffffffffffffffffffff1673ffffffffffffffffffffffffffffffffffffffff168152602001908152602001600020549050919050565b60026020528060005260406000206000915090505481565b600034116103da576040517f08c379a00000000000000000000000000000000000000000000000000000000081526004016103d1906112ba565b60405180910390fd5b61041a6040518060400160405280600f81526020017f272573206465706f7369747320257300000000000000000000000000000000008152503334610a7c565b34600260003373ffffffffffffffffffffffffffffffffffffffff1673ffffffffffffffffffffffffffffffffffffffff168152602001908152602001600020600082825461046991906113d2565b925050819055507fe1fffcc4923d04b559f4d29a8bfc6cda04eb5b0d3c460751c2402c5c5cc9109c33346040516104a192919061114e565b60405180910390a1565b61055860405180606001604052806022815260200161163860229139600180546104d490611522565b80601f016020809104026020016040519081016040528092919081815260200182805461050090611522565b801561054d5780601f106105225761010080835404028352916020019161054d565b820191906000526020600020905b81548152906001019060200180831161053057829003601f168201915b505050505083610b1b565b806001908051906020019061056e929190610be3565b507f6ea5d6383a120235c7728a9a6751672a8ac068e4ed34dcca2ee444182c1812de3360016040516105a192919061111e565b60405180910390a150565b6105b46109b0565b73ffffffffffffffffffffffffffffffffffffffff166105d261030d565b73ffffffffffffffffffffffffffffffffffffffff1614610628576040517f08c379a000000000000000000000000000000000000000000000000000000000815260040161061f906112da565b60405180910390fd5b600073ffffffffffffffffffffffffffffffffffffffff168173ffffffffffffffffffffffffffffffffffffffff161415610698576040517f08c379a000000000000000000000000000000000000000000000000000000000815260040161068f9061125a565b60405180910390fd5b6106a1816109b8565b50565b8173ffffffffffffffffffffffffffffffffffffffff163373ffffffffffffffffffffffffffffffffffffffff1614610712576040517f08c379a00000000000000000000000000000000000000000000000000000000081526004016107099061127a565b60405180910390fd5b80600260003373ffffffffffffffffffffffffffffffffffffffff1673ffffffffffffffffffffffffffffffffffffffff168152602001908152602001600020541015610794576040517f08c379a000000000000000000000000000000000000000000000000000000000815260040161078b906112fa565b60405180910390fd5b80600260008473ffffffffffffffffffffffffffffffffffffffff1673ffffffffffffffffffffffffffffffffffffffff16815260200190815260200160002060008282546107e39190611428565b9250508190555060008273ffffffffffffffffffffffffffffffffffffffff1682604051610810906110c5565b60006040518083038185875af1925050503d806000811461084d576040519150601f19603f3d011682016040523d82523d6000602084013e610852565b606091505b5050905080610896576040517f08c379a000000000000000000000000000000000000000000000000000000000815260040161088d9061129a565b60405180910390fd5b6108d66040518060400160405280601081526020017f27257320776974686472617773202573000000000000000000000000000000008152508484610a7c565b7f884edad9ce6fa2440d8a54cc123490eb96d2768479d49ff9c7366125a942436483836040516109079291906110f5565b60405180910390a1505050565b6109ac828260405160240161092a9291906111d7565b6040516020818303038152906040527f4b5c4277000000000000000000000000000000000000000000000000000000007bffffffffffffffffffffffffffffffffffffffffffffffffffffffff19166020820180517bffffffffffffffffffffffffffffffffffffffffffffffffffffffff8381831617835250505050610bba565b5050565b600033905090565b60008060009054906101000a900473ffffffffffffffffffffffffffffffffffffffff169050816000806101000a81548173ffffffffffffffffffffffffffffffffffffffff021916908373ffffffffffffffffffffffffffffffffffffffff1602179055508173ffffffffffffffffffffffffffffffffffffffff168173ffffffffffffffffffffffffffffffffffffffff167f8be0079c531659141344cd1fd0a4f28419497f9722a3daafe3b4186f6b6457e060405160405180910390a35050565b610b16838383604051602401610a9493929190611199565b6040516020818303038152906040527f07c81217000000000000000000000000000000000000000000000000000000007bffffffffffffffffffffffffffffffffffffffffffffffffffffffff19166020820180517bffffffffffffffffffffffffffffffffffffffffffffffffffffffff8381831617835250505050610bba565b505050565b610bb5838383604051602401610b339392919061120e565b6040516020818303038152906040527f2ced7cef000000000000000000000000000000000000000000000000000000007bffffffffffffffffffffffffffffffffffffffffffffffffffffffff19166020820180517bffffffffffffffffffffffffffffffffffffffffffffffffffffffff8381831617835250505050610bba565b505050565b60008151905060006a636f6e736f6c652e6c6f679050602083016000808483855afa5050505050565b828054610bef90611522565b90600052602060002090601f016020900481019282610c115760008555610c58565b82601f10610c2a57805160ff1916838001178555610c58565b82800160010185558215610c58579182015b82811115610c57578251825591602001919060010190610c3c565b5b509050610c659190610c69565b5090565b5b80821115610c82576000816000905550600101610c6a565b5090565b6000610c99610c9484611366565b611335565b905082815260208101848484011115610cb157600080fd5b610cbc8482856114e0565b509392505050565b600081359050610cd3816115f2565b92915050565b600081359050610ce881611609565b92915050565b600082601f830112610cff57600080fd5b8135610d0f848260208601610c86565b91505092915050565b600081359050610d2781611620565b92915050565b600060208284031215610d3f57600080fd5b6000610d4d84828501610cc4565b91505092915050565b60008060408385031215610d6957600080fd5b6000610d7785828601610cd9565b9250506020610d8885828601610d18565b9150509250929050565b600060208284031215610da457600080fd5b600082013567ffffffffffffffff811115610dbe57600080fd5b610dca84828501610cee565b91505092915050565b610ddc816114aa565b82525050565b610deb8161145c565b82525050565b6000610dfc826113ab565b610e0681856113c1565b9350610e168185602086016114ef565b610e1f816115e1565b840191505092915050565b60008154610e3781611522565b610e4181866113c1565b94506001821660008114610e5c5760018114610e6e57610ea1565b60ff1983168652602086019350610ea1565b610e7785611396565b60005b83811015610e9957815481890152600182019150602081019050610e7a565b808801955050505b50505092915050565b6000610eb76026836113c1565b91507f4f776e61626c653a206e6577206f776e657220697320746865207a65726f206160008301527f64647265737300000000000000000000000000000000000000000000000000006020830152604082019050919050565b6000610f1d601a836113c1565b91507f63616e6e6f74207769746864726177206f7468657273204554480000000000006000830152602082019050919050565b6000610f5d6031836113c1565b91507f756e61626c6520746f2073656e642076616c75652c20726563697069656e742060008301527f6d617920686176652072657665727465640000000000000000000000000000006020830152604082019050919050565b6000610fc36010836113c1565b91507f63616e6e6f74206465706f7369742030000000000000000000000000000000006000830152602082019050919050565b60006110036020836113c1565b91507f4f776e61626c653a2063616c6c6572206973206e6f7420746865206f776e65726000830152602082019050919050565b60006110436027836113c1565b91507f63616e6e6f74207769746864726177206d6f7265207468616e20796f7520646560008301527f706f7369746564000000000000000000000000000000000000000000000000006020830152604082019050919050565b60006110a96000836113b6565b9150600082019050919050565b6110bf816114a0565b82525050565b60006110d08261109c565b9150819050919050565b60006020820190506110ef6000830184610de2565b92915050565b600060408201905061110a6000830185610dd3565b61111760208301846110b6565b9392505050565b60006040820190506111336000830185610de2565b81810360208301526111458184610e2a565b90509392505050565b60006040820190506111636000830185610de2565b61117060208301846110b6565b9392505050565b600060208201905081810360008301526111918184610df1565b905092915050565b600060608201905081810360008301526111b38186610df1565b90506111c26020830185610de2565b6111cf60408301846110b6565b949350505050565b600060408201905081810360008301526111f18185610df1565b905081810360208301526112058184610df1565b90509392505050565b600060608201905081810360008301526112288186610df1565b9050818103602083015261123c8185610df1565b905081810360408301526112508184610df1565b9050949350505050565b6000602082019050818103600083015261127381610eaa565b9050919050565b6000602082019050818103600083015261129381610f10565b9050919050565b600060208201905081810360008301526112b381610f50565b9050919050565b600060208201905081810360008301526112d381610fb6565b9050919050565b600060208201905081810360008301526112f381610ff6565b9050919050565b6000602082019050818103600083015261131381611036565b9050919050565b600060208201905061132f60008301846110b6565b92915050565b6000604051905081810181811067ffffffffffffffff8211171561135c5761135b6115b2565b5b8060405250919050565b600067ffffffffffffffff821115611381576113806115b2565b5b601f19601f8301169050602081019050919050565b60008190508160005260206000209050919050565b600081519050919050565b600081905092915050565b600082825260208201905092915050565b60006113dd826114a0565b91506113e8836114a0565b9250827fffffffffffffffffffffffffffffffffffffffffffffffffffffffffffffffff0382111561141d5761141c611554565b5b828201905092915050565b6000611433826114a0565b915061143e836114a0565b92508282101561145157611450611554565b5b828203905092915050565b600061146782611480565b9050919050565b600061147982611480565b9050919050565b600073ffffffffffffffffffffffffffffffffffffffff82169050919050565b6000819050919050565b60006114b5826114bc565b9050919050565b60006114c7826114ce565b9050919050565b60006114d982611480565b9050919050565b82818337600083830152505050565b60005b8381101561150d5780820151818401526020810190506114f2565b8381111561151c576000848401525b50505050565b6000600282049050600182168061153a57607f821691505b6020821081141561154e5761154d611583565b5b50919050565b7f4e487b7100000000000000000000000000000000000000000000000000000000600052601160045260246000fd5b7f4e487b7100000000000000000000000000000000000000000000000000000000600052602260045260246000fd5b7f4e487b7100000000000000000000000000000000000000000000000000000000600052604160045260246000fd5b6000601f19601f8301169050919050565b6115fb8161145c565b811461160657600080fd5b50565b6116128161146e565b811461161d57600080fd5b50565b611629816114a0565b811461163457600080fd5b5056fe4368616e67696e6720707572706f73652066726f6d202725732720746f2027257327a2646970667358221220b234e43f5c5a9187a3f5322188f4e0b3ef1e2922f031e620e331f34e97d1c1ef64736f6c634300080000334465706c6f79696e67204d79436f6e7472616374207769746820707572706f73653a",
  "devdoc": {
    "kind": "dev",
    "methods": {
      "owner()": {
        "details": "Returns the address of the current owner."
      },
      "renounceOwnership()": {
        "details": "Leaves the contract without owner. It will not be possible to call `onlyOwner` functions anymore. Can only be called by the current owner. NOTE: Renouncing ownership will leave the contract without an owner, thereby removing any functionality that is only available to the owner."
      },
      "transferOwnership(address)": {
        "details": "Transfers ownership of the contract to a new account (`newOwner`). Can only be called by the current owner."
      }
    },
    "version": 1
  },
  "userdoc": {
    "kind": "user",
    "methods": {},
    "version": 1
  },
  "storageLayout": {
    "storage": [
      {
        "astId": 7,
        "contract": "src/MyContract.sol:MyContract",
        "label": "_owner",
        "offset": 0,
        "slot": "0",
        "type": "t_address"
      },
      {
        "astId": 8198,
        "contract": "src/MyContract.sol:MyContract",
        "label": "purpose",
        "offset": 0,
        "slot": "1",
        "type": "t_string_storage"
      },
      {
        "astId": 8202,
        "contract": "src/MyContract.sol:MyContract",
        "label": "deposited",
        "offset": 0,
        "slot": "2",
        "type": "t_mapping(t_address,t_uint256)"
      }
    ],
    "types": {
      "t_address": {
        "encoding": "inplace",
        "label": "address",
        "numberOfBytes": "20"
      },
      "t_mapping(t_address,t_uint256)": {
        "encoding": "mapping",
        "key": "t_address",
        "label": "mapping(address => uint256)",
        "numberOfBytes": "32",
        "value": "t_uint256"
      },
      "t_string_storage": {
        "encoding": "bytes",
        "label": "string",
        "numberOfBytes": "32"
      },
      "t_uint256": {
        "encoding": "inplace",
        "label": "uint256",
        "numberOfBytes": "32"
      }
    }
  }
}